:020000040000FA
:10000000C025002019400000152B0000211300001E
:100010002113000021130000211300002113000010
:10002000000000000000000000000000254000006B
:100030002113000000000000452E0000D741000001
:100040001B4B0000C9480000154A00001B4B000074
:100050001D4C0000555C00006D5D0000215D00003E
:10006000E35B0000555C00006D5D0000215D000059
:10007000E35B0000C1610000F56100007D610000EC
:100080009F610000555C00006D5D0000215D000077
:10009000E35B000000000000000000000000000022
:1000A0000000100800000000000000000000000038
:1000B0000000080000000000000000000000000038
:1000C00040003500030B0000000000000374000036
:1000D000027300000273000002730000027300004C
:1000E00002730000027300000273000002070000A8
:1000F000050500000370E0000571C00000606000AD
:1001000000606000006060000060600000000000AF
:10011000542B00207C2B00206C2B0020FC2A00207C
:10012000802B0020602B0020642B0020582B002007
:100130005C2B0020842B0020682B00200000000096
:10014000000096420000D2420000000000000000C3
:10015000000000004D6573736167655F4D616E61FE
:100160006765720000000000000000000000000051
:10017000000000000000000000000000000000007F
:1001800000000000010000001D0000000A00000047
:1001900004000000010000000E0000000500000047
:1001A0000100000000000000B07F0000000000001F
:1001B0000100000000000000003E0000540100208B
:1001C0000100000084000020000008000000000082
:1001D0000000000000000000000010080000000007
:0C01E0000000000000000000400035009E
:020000040000FA
:1001EC0040EA01039B0703D009E008C9121F08C0AD
:1001FC00042AFAD203E011F8013B00F8013B521E2D
:10020C00F9D27047D2B201E000F8012B491EFBD2A3
:10021C0070470022F6E710B513460A460446194605
:10022C00FFF7F0FF204610BD10B5002200E0521C75
:10023C00835C8C5CA34201D1002BF8D1D8B2E1B223
:10024C00401A10BD034611F8012B00F8012B002AAF
:10025C00F9D1184670470246014400E0521C8A420C
:10026C0002D21378002BF9D1101A704710B54843FD
:10027C00044607F0F9FB002805D00021002C02D021
:10028C00641E0155FAE710BD2DE9FE4F81EA030407
:10029C0004F0004421F0004100944FF0000B23F0D7
:1002AC00004350EA01045ED052EA03045BD0C3F36E
:1002BC000A54C1F30A552C44A4F2F3340194A0FB64
:1002CC000254C1F3130141F48011C3F3130343F43B
:1002DC00801301FB024400FB034E840A970A44EA94
:1002EC00815447EA8357A4FB076802958D0A05FBE6
:1002FC0007854FEA932C04FB0C542705029D4FEA0B
:10030C00065847EA1637B5EB08056EEB070C870E57
:10031C00920E47EA811742EA8312A7FB0201B6EB61
:10032C000B0164EB00042B0D43EA0C335E1844EB19
:10033C001C50DA465146E7FB0201C5F313044FEAA1
:10034C000B3343EA14534FEA0432019C43EA06038D
:10035C00A4F10C040294009CCDE900B400F0B6F8B2
:10036C0003B0BDE8F08F00200146F9E72DE9F04D10
:10037C0081EA030404F0004B21F0004514464FF0D1
:10038C00000A23F0004150EA050220D054EA010291
:10039C001DD0C5F30A570246C5F31303C1F313006E
:1003AC00C1F30A5640F4801543F48013A7EB0608FA
:1003BC00101BD64608F2FD3873EB050002D308F18A
:1003CC00010801E092185B41B8F1000F03DA00203C
:1003DC000146BDE8F08D00204FF48011064684469E
:1003EC000EE0171B73EB050705D3121B63EB05031C
:1003FC0006434CEA010C49084FEA300092185B4165
:10040C0050EA0107EDD152EA030012D082EA04004F
:10041C0083EA0501084305D0101BAB4106D201222B
:10042C00002306E000224FF0004302E06FF00102CF
:10043C0053101AEB06004CEB085110EB0A0041EB81
:10044C000B01BDE8F04D00F032B800F0004230F086
:10045C0000400AD0C10D01F56071C0F3160042EAEC
:10046C000151C208400711437047002001467047F4
:10047C00202A04DB203A00FA02F100207047914058
:10048C00C2F1200320FA03F3194390407047202A4D
:10049C0004DB203A21FA02F00021704721FA02F322
:1004AC00D040C2F12002914008431946704710B564
:1004BC00141E73F1000408DA401C41F1000192187B
:1004CC005B411A4301D120F0010010BD2DE9F04D24
:1004DC0092469B4611B1B1FA81F202E0B0FA80F279
:1004EC0020329046FFF7C4FF04460F4640EA0A004C
:1004FC0041EA0B0153465A46084313D0114653EABE
:10050C00010019D0C8F140025046FFF7C0FF054664
:10051C000E46504659464246FFF7AAFF084305D0FF
:10052C00012004E020463946BDE8F08D002005434B
:10053C0046EAE0762C4337430A986305E40AA0EBBD
:10054C0008000022FD0A44EA47540A3002D5002074
:10055C000146E9E7010510196941DDE90845001973
:10056C006941BDE8F04DA2E72DE9F04104460028B1
:10057C004FF000002DD042F24C65C2F200052978F4
:10058C000F2926D842F24868C2F20008D8F80000B9
:10059C0008B301208421FFF769FE10B394E8CE0064
:1005AC00C0E90663C0E900122978D8F800304A1C6B
:1005BC0064692A7042F25062C2F20002002B076298
:1005CC00C0F8804042F8210018BFBDE8F081C8F89F
:1005DC000000BDE8F081D4E9000102F0E9FE00283A
:1005EC00D7D00020BDE8F081FFF7BEBF70B5044640
:1005FC0044F82C1F06460020082B1D46C4E90100B8
:10060C00206128BF0825257332B12BB106F14000BB
:10061C0011462A46FFF7E4FD30682921224603F0F3
:10062C0077F8B0FA80F0400970BD000010B52DEDE0
:10063C00108B91ED008A91ED019AB0EE480A91ED84
:10064C0002AAD0ED0A8AD0ED0BBA90ED0CEA90ED2F
:10065C000DBA144607F098F82EEE000A30EE2B0A6D
:10066C0030EE68CAB0EE480A07F036F9B0EE408AB0
:10067C00B0EE490A07F088F82EEE000ABEEE00DA5A
:10068C0030EE2B0A30EE680A60EE0D9AB0EE490A95
:10069C0007F07AF82EEE000A9FED771A30EE2B0A4F
:1006AC0030EE680A20EE01FAB0EE490A07F014F9B0
:1006BC00B0EE409AB0EE4A0A07F066F82EEE000A49
:1006CC0030EE2B0A30EE680A60EE0DAAB0EE4A0A44
:1006DC0007F05AF82EEE000A9FED681A30EE2B0A3E
:1006EC0030EE680A60EE018AB0EE4A0A07F0F4F8C0
:1006FC0039EECC3A3AEECC1A23EE284A21EE0F5AB8
:10070C009FED5F6A34EE452A0020B0EEC27AB4EE5B
:10071C00467AF1EE10FAC0F2AC8035EE444AB0EEF7
:10072C00C45AB4EE465AF1EE10FAC0F2A2802AEE88
:10073C00AA5A2CEE4C6A2EEE007A35EE060A27EEFB
:10074C00075A69EEA90A35EE005A2EEE080A6EEE2B
:10075C00091A30EE866A61EEA10A60EE402A30EE8C
:10076C00866A32EE855A68EEA80A32EE866A6FEE19
:10077C000F2A30EE855A71EEC00A30EE477A32EE0F
:10078C00866A6FEE072A68EEA03A23EE077A61EECE
:10079C00200AF6EE001A26EE216A73EEA21A25EE56
:1007AC000D5A30EE877A6FEE050A63EE052A87EE56
:1007BC00043A81EE825A28EE867A21EE061A37EE3A
:1007CC00206A31EE227A86EE021A87EE042A23EE94
:1007DC00034A25EE056A73EE031A36EE044AB7EEA9
:1007EC00006A34EE064A3CEE416A22EE027A66EE6C
:1007FC00060A61EE821A30EE877A70EE000A20EE5D
:10080C00000A71EEA00A30EE070AB8EE007A25EE67
:10081C00077A6BEE0B1A27EE066A31EEC07AB1EE50
:10082C00000A64EE001A36EE200A21EE876A20EEEA
:10083C00007A37EE066AB5EE406AF1EE10FA18DB74
:10084C00B1EEC66A34EE044A012030EE060AB1EE6F
:10085C00400A80EE040A25EE004A23EE003A34EEFC
:10086C00011A33EE022A84ED001A84ED020A84ED9B
:10087C00012ABDEC108B10BDD7B35D3FD7B35DBF64
:10088C00BD37863510B543F24051C2F200010968FC
:10089C00044651B1084694B102F000FC43F24450B6
:1008AC00C2F20000006838B913E043F24450C2F2BF
:1008BC000000006868B154B100F0F4F809E002F0EF
:1008CC0094FC43F24450C2F20000006808B100F0FE
:1008DC00D5F943F24850C2F20000006820B124B1AF
:1008EC00BDE8104000F0DEB810BDBDE8104000F0CF
:1008FC00C5B900002DE9F0472DED028B42F64E7480
:10090C00C2F200042078002800F0AE8042F64C09B8
:10091C009FED638A43F2C45A4FF00008C2F20009FB
:10092C00C2F2000A002500BF59F82560D6E908017B
:10093C0096ED7E0AB1EE401A012941FE000A4107EC
:10094C0016D5F169042913D1F06A012805D1B06BD1
:10095C00002808BF06F1140001E006F1140090ED28
:10096C00000A06F5B47002F0F1F8306AF0EE400AB5
:10097C00800720D5307F10F0060F1CD096F834007D
:10098C00800705D5306C18B190ED000A70EE800A26
:10099C00306B012805D1F06B002808BF06F10C0064
:1009AC0001E006F10C0090ED000A06F1D80002F00F
:1009BC00CDF8F0EE400A96F83400C00705D0706C04
:1009CC0018B190ED000A70EE800A96F82000C0076E
:1009DC000BD0B6F9100000EE100A06F14800B8EE84
:1009EC00C00A02F0B3F8F0EE400AD6F80002022872
:1009FC0008BFD6ED7E0A96ED160AB06AB1EE601A03
:100A0C00B5EE400A012801FE201AF1EE10FA96F814
:100A1C000C0230FE080A00EB401180FE480A96F8E2
:100A2C000D02B4EE401AB1EE402A0AEB810181FEB0
:100A3C00021AF1EE10FA30FE010A01EB4003BDEE92
:100A4C00C00A10EE102A170A83F8247083F82520A8
:100A5C00D6F814221AB940000844A0F82480207853
:100A6C0001358542FFF460AF43F2C45443F2507633
:100A7C000025C2F20004C2F2000600BF705D30B166
:100A8C00E16904F1240220460823FFF7AFFD01358C
:100A9C00032D04F18404F1D1BDEC028BBDE8F08789
:100AAC0000FEFF4610B10121C0F8141270472DE969
:100ABC00F04383B0054643F220390020C2F200090E
:100ACC00002DC9F800004DD042F64E78C2F2000855
:100ADC0098F800000C2845D201204FF40C71FFF758
:100AEC00C5FB002840D0D5E92D610446D5E928CEB8
:100AFC0005F1A807D5F8BC008CCFC4F8100204F19E
:100B0C0024008CC0C4E90C6104F1480005F110010B
:100B1C00C4E907CE02F06AF904F1D80005F14001EE
:100B2C0002F064F904F5B47005F1700102F05EF99D
:100B3C0095E80F0004F1380C8CE80F00D4F8103253
:100B4C00D5F8C810DA1E05F1C0004F1E022A4FF06E
:100B5C00000211D2FBB2042B38BF0122134640F223
:100B6C00012215E0012000E00220C9F80000002459
:100B7C00204603B0BDE8F083022B10D1FAB200235B
:100B8C00032A88BF0123042A4FEA430340F20522BB
:100B9C0052FA87F228BF4F1F11463A4600E0002355
:100BAC00C4F8081243F25071C2F200010127CF546D
:100BBC000021C5F8CC1041F23111C0F2000184F8CB
:100BCC000D2284F80C32C5E93441FFF70DFDC4F851
:100BDC000402D8B3054698F80000E8B943F2C456AD
:100BEC00C2F2000630464FF4C671FFF712FBD5E98E
:100BFC00000140F2FF12F261C6E90001C6E92101D1
:100C0C004FF40070C6F8A000D5E90001C6E9420116
:100C1C0040F2FF20C6F824010220009040F67740F5
:100C2C00C0F20000CDE90104684600F020FA98F803
:100C3C0000200121C4E98510501C88F8000042F600
:100C4C004C00C2F2000040F8224091E70320C9F8A2
:100C5C000000204606F070FD89E720B1D0F818029C
:100C6C0008B100F0FCB90020704710B10021C0F8A9
:100C7C001412704708B180ED7E0A704710B1002144
:100C8C00C0F81412704708B1C0F800127047000089
:100C9C00B0B5056A002D00F0EE800446686808B116
:100CAC0000F011FA207A0138032800F2E280DFE824
:100CBC0000F002B12D696089A18900EE100AE0896B
:100CCC0003EE101AB8EE400A9FED711AB8EE433AD3
:100CDC0004EE100A20EE010A9FED682A23EE013A79
:100CEC00B8EE444A80EE020A83EE023A24EE011A70
:100CFC00142081EE021A9FED672A30EE020A33EEC1
:100D0C00023A85ED030A85ED043AADE06089B42121
:100D1C0000FB01F09FED591A00EE100AA089B8EE05
:100D2C00400A4FF4B47180EE010A00FB01F0E28935
:100D3C0002EE100A02FB01F0B8EE422A03EE100A92
:100D4C0082EE012AB8EE433A95ED124A83EE011A6F
:100D5C009FED4B3A342030EE030A95ED113A30EE0C
:100D6C00430A95ED103A85ED0E0A9FED460A32EED8
:100D7C00002A31EE000A32EE431A30EE440A85EDB9
:100D8C000F1A73E0E17AA07A227B090160F30D312E
:100D9C00637B41EA121C7C219B0001EA5000617AC2
:100DAC0062F38D23A27B40EAC11043EA9213E17BEC
:100DBC0000EE100A4FEA4C0062F30D2102EE100A0D
:100DCC00580003EE100A4800B8EE400A9FED2A1AAC
:100DDC0004EE100A80EE010AB8EE422AB8EE433A4D
:100DEC00B8EE444A82EE012A83EE013A84EE011AEF
:100DFC00BFEE004A302030EE040A85ED090A32EECF
:100E0C00042A33EE043A31EE040A85ED0A2A85ED04
:100E1C000B3A2BE06089A18900EE100AE08903EE01
:100E2C00101AB8EE400A9FED181AB8EE433A04EEC9
:100E3C00100A20EE010A9FED112A23EE013AB8EEBA
:100E4C00444A80EE020A83EE023A24EE011A202074
:100E5C0081EE021A9FED0D2A30EE020A33EE023AB1
:100E6C0085ED060A85ED073A31EE020A284480ED3D
:100E7C00000A00202870B0BD00FC7F4600FF7F47B1
:100E8C000000B4C2000034C31F858B421F850BC207
:100E9C003333EB4233336BC270B584B04FF0000484
:100EAC00B0B342F65076C2F20006054630780228FE
:100EBC002ED801205021FFF7D9F940B30446C820A1
:100ECC00019041F61D60C0F20000CDE9020401A8BA
:100EDC0000F0CDF8606040F69D40C0F20000C5E91E
:100EEC0004402846FFF780FBA06068B101203178F0
:100EFC00207000202064481C307042F2F850C2F27E
:100F0C00000040F8214003E0204606F015FC0024C8
:100F1C00204604B070BD42F2F050C2F200000178DD
:100F2C0001B1704781B00121017041F20401CEF290
:100F3C0000010968009142F2E851C2F20001009AE6
:100F4C000B689A4206D242F2EC52C2F200021368CB
:100F5C0001331360009A0A600021017001B07047E0
:100F6C0041F2040042F2DC52CEF20000C2F2000266
:100F7C000168126872B101EE102AB8EE411A20EE27
:100F8C00010ABCEEC00A10EE102A00BF03685B1AFF
:100F9C009342FBD3704780B52DED028B82B041F2AA
:100FAC000401CEF200010968019101990268891AC5
:100FBC0000EE101A42F2DC51C2F2000191ED001A5F
:100FCC00B8EE400AB8EE411A019980EE018A016030
:100FDC00FFF7A1FFB0EE480A02B0BDEC028B80BD5A
:100FEC004EF6FC51CEF200010A684FF0000C42F0B4
:100FFC0080720A6041F20001CEF20001C1F804C017
:10100C000B6844F24022C0F20F0200FB02F043F0E6
:10101C0001020A6042F2DC51C2F20001086044F69F
:10102C00D351C1F26201A0FB0112910942F2E052CC
:10103C00C2F2000211604DF68361C4F21B31A0FBB9
:10104C000101880C42F2E451C2F20001086042F244
:10105C00EC50C2F20000C0F800C0FFF75CBF20B13A
:10106C000089002818BF012070470020704770B518
:10107C00044600284FF0000022D042F64D76C2F212
:10108C00000635783F2D88BF70BD01201021FFF779
:10109C00EDF8B0B1D4E901122388002BC26008BF6F
:1010AC00642362884160691C0380002A08BF6422A3
:1010BC00317042F2E861C2F20001028141F8250070
:1010CC0070BD002070BD18B10188018100218172B2
:1010DC0070470000F0B581B042F64D74C2F20004C6
:1010EC002078E0B142F2E8660025C2F20006012742
:1010FC0056F8251019B10A8932B1013A0A81013525
:10110C008542F5D30BE000BF4A68002AF7D08B7AF2
:10111C00002BF4D1C8688F7290472078EFE701B0AC
:10112C00F0BD0000B0B5056A002D73D004464069CF
:10113C00D5F8081288426DD1D5F8180208B1FFF71E
:10114C00C2FF05F50770FFF726FFD5F8200285EDE5
:10115C008A0A61690130C5F82002A888C5F82412F2
:10116C00688021899FED2C1A09BA0A0C00EE102A0E
:10117C00AA80B8EE400A9FED293A20EE010A95EDBF
:10118C00031A85ED020AC0EB114162899FED244AD6
:10119C00D2BA02EE102A21EE041AB8EEC22AB5F920
:1011AC00102022EE032A9FED1F3A31EE021A9FED1A
:1011BC001E4A85ED031AB1F5805F01EE102AA28953
:1011CC00B8EEC11AD2BA02EE102A21EE041AB8EE09
:1011DC00C22A22EE032A31EE021ABDEEC11A11EE1A
:1011EC00102A2A82A07BA87402DDA869013804E0C9
:1011FC00A86911F5805F01DA0130A86101EE100ACF
:10120C009FED0A2AB8EEC11A21EE021A31EE000A3D
:10121C0085ED050AB0BD00BFACFF333D3433A340B0
:10122C009899193E6666663FD0CCCC3D0000B4431D
:10123C00B0B5056A002D5BD00446D5F8180208B18C
:10124C00FFF741FFA8689FED2B1A6860207A9FED8D
:10125C002E2A2870B4F8090000BA000C00EE100A0F
:10126C00B8EE400A20EE010A9FED231A80EE010A27
:10127C009FED221A30EE010A9FED211A85ED020A2C
:10128C00E07A217B000140EA111000EE100AB8EE62
:10129C00400A20EE010A9FED1B1A80EE010A30EE87
:1012AC00020A9FED1A2A20EE020A85ED030A207B22
:1012BC00617B00F00F0041EA00200B2100FB01F0E4
:1012CC0000EE100AB8EE400A80EE010AB9EE061ADA
:1012DC0030EE010A9FED0E1A85ED040AE08940BA42
:1012EC0000EE100AB8EE400A20EE010A85ED050A60
:1012FC00B0BD00BFB81EC9C100FF7F47B81E494131
:10130C000000C84200F07F45000048C2E12E654253
:10131C00CDCCCC3D00BE704780B586B0C820FFF761
:10132C005FFE1F480DF1080C01901DA0031D006904
:10133C000ECB059001A88CE80E0002F079FE43F26A
:10134C005471C2F20001086043F2D03048F26C21B3
:10135C00C2F20000C0F2000103F08EF844F688419E
:10136C00C2F20001086013A04C2101F0A5FD42F669
:10137C00C801C2F20001086011A0CC2102F00AFFE2
:10138C0042F6E411C2F20001086042F6CC010120E1
:10139C00C2F200010022C1E900028A6006B080BDE1
:1013AC000000000018260020407F00000000000014
:1013BC000000000064756D6D795F636D6400000062
:1013CC0064756D6D795F666565640000F0B58DB010
:1013DC0042F6E410C2F2000042F6E8140068C2F2D1
:1013EC000004214602F0C2FE42F6CC0294ED150A2E
:1013FC009FED3B1A0120C2F200020021C2E900015C
:10140C0044F68C4094ED1A2A30EE010A9FED351A01
:10141C0091605A22C2F20000236C027010EE102A66
:10142C0032EE010AC0F80130C0F8052010EE102A87
:10143C00E36FC0F80920C0F80D30D4F89020D4F830
:10144C00A430C0F81120C0F8153000BF621892F813
:10145C00512022B114317829F8D1012100E000216A
:10146C0041764FF6FB7141831C2103F037F842F2B1
:10147C00F250C2F20000018801318AB20180052AC3
:10148C0020D3002104F1100E01809EE80F50D4E906
:10149C000A5604F13007E46BCDF830E0CDE9064094
:1014AC0008A880E80E1043F25470C2F20000CDE997
:1014BC000156E0CF006801A90C220395049605970C
:1014CC0002F028FE42F6C800C2F20000006842F6A4
:1014DC00CC01C2F2000101F0D1FC0DB0F0BD00BF97
:1014EC00000096C20000B4C2F0B5ADF2FC5D42F64D
:1014FC007C00C2F200004C21FEF78BFE42F6181065
:10150C00C2F20000CC21FEF784FE42F2A860C2F2C7
:10151C0000004021FEF77DFE43F26070C2F2000035
:10152C004021FEF776FE6C4604F130004FF4327128
:10153C00FEF76FFE0020C3F6D070119044F2B3108A
:10154C00CBF6A67013904DF66F00C2F6B6000025D0
:10155C00129004F1500018211095FEF75AFE42F239
:10156C00FB1042F6185142F2FB12CBF6F970C5F2A1
:10157C004441C3F6F9721B901A91CDE91E10CDE9C6
:10158C002012CDE9221020461821FEF742FE44F22B
:10159C006B30C3F6D770079041F21630C8F69B70CB
:1015AC0006904BF65100C3F6AE700B9041F6B86046
:1015BC00CEF685300A9041F26F20C3F6832024903A
:1015CC000020C4F27A40259000200021C4F296201D
:1015DC00C4F2D22127907590CDE99F0101208DF89E
:1015EC000C018DF818018DF830018DF8E8008DF89C
:1015FC00D0028DF89C028DF8F4024BF2A9002891D0
:10160C000021C4F2B720C4F20C31BF9047F239402C
:10161C0042910021CCF2B1200022CCF2DC21C0900E
:10162C000020C4F23432002344910021C4F2D810BB
:10163C0076924FF07E52CBF68073C4F22021C1908B
:10164C004CF6CD40509265926C9273927A92CDE9A1
:10165C0087238F9296929D92459100210022C4F28D
:10166C00E610CCF20231C4F20232C2904EF6853052
:10167C004A91CDE938124FF48171C4F29710ADF84C
:10168C0090120021C39045F2B050CCF20731C4F255
:10169C000E00A5910021C4900020C4F2E001C4F218
:1016AC004830B5910021C59040F26D70C4F2A00194
:1016BC00CCF23E30CDE9C60145F2EC10C3F6B85081
:1016CC00C99045F62940C3F60F50C8904CF28F20B4
:1016DC00C3F6F550CA9043F67150C3F68A60CB90AE
:1016EC0049F69A10CBF61960CC904DF20A70CBF6F5
:1016FC002340CD9043F23330CBF6B360CE904DF611
:10170C002330CBF6F950CDE9CF0542F61B70C3F66A
:10171C00DD505793CDE95D3381934FF08143D190E8
:10172C0049F69A10B8930023C3F6D9704B92002255
:10173C00C4F24003D2904FF07F50CDE90855C4F26B
:10174C00C002B9934FF08043BE95CDE9D300002081
:10175C0042F66075B692CDE9BA320022C4F270201E
:10176C00C2F20005B791C4F2A012D59028462146CA
:10177C00BC9201F0D7F843F2243440F2FC01C2F2DF
:10178C000004C2F200012846224601F09FF82846C8
:10179C00214601F00BF940480DF5BD6CCDF8E40580
:1017AC003DA0061D4ECE40698CE84E000DF20C5546
:1017BC0047F68841CDF8F805C0F200012846D8223A
:1017CC00FEF70EFD0DF2344447F66051C0F20001F5
:1017DC002046D822FEF704FDD7AE47F63861C0F29A
:1017EC0000013046D822FEF7FBFC284601F05CFCD9
:1017FC0043F24057C2F2000738603046FFF757F902
:10180C0043F24855C2F2000528602046FFF74FF915
:10181C00396843F24454C2F20004206019B10846FE
:10182C0001F078FB206810B10221FFF72CFA286830
:10183C0010B10221FFF727FA0DF2E450FFF72CFB51
:10184C0042F65474C2F20004206028B1032100F067
:10185C000CFB206800F0E0FA00F010FA002000F019
:10186C0087F913A0CC2101F027FB42F6B421C2F278
:10187C000001086011A04C2102F08CFC42F6B8214A
:10188C00C2F20001086042F65870C2F20000012159
:10189C0001700DF2FC5DF0BD3C33002004820000B1
:1018AC0022000000220000000000000000000000E8
:1018BC0064756D6D795F66656564000064756D6D4A
:1018CC00795F636D6400000042F65870C2F200004C
:1018DC000078012818BF70472DE9F04788B042F610
:1018EC00B820C2F2000042F67C040068C2F2000488
:1018FC00214602F03BFC42F65476C2F200063068F8
:10190C0060B142F2F451C2F200010A780A2A05D8F9
:10191C0001320A2A0A7008BF00F09FFA20680328D7
:10192C0053D8DFE800F00265091D0020FEF7AAFF7E
:10193C0000F0A4F9002010E00020FEF7A3FF04F152
:10194C0018078FCF43F22435E46AC2F2000585E80C
:10195C008F006C6100F092F9012000F009F934E07D
:10196C000020FEF78FFF04F1300043F2607490EC1E
:10197C00060AC2F20004204600F07AFAD4E90012FA
:10198C0042F2A860C2F200000160A1684260E26805
:10199C0081602169C26062690161A1694261E26989
:1019AC008161216AC261626A0162A16A4262E26A71
:1019BC008162216BC262626BC0E90C12D4E90E1217
:1019CC00C0E90E12012000F07FF9306808B100F078
:1019DC0023FA42F6B420C2F20000006842F6181155
:1019EC00C2F2000101F04AFA08B0BDE8F0477047B6
:1019FC000120FEF747FF43F24054C2F20004216875
:101A0C0002200029DFD043F2445AC2F2000ADAF86D
:101A1C000020002AD7D043F24858C2F20008D8F868
:101A2C000030002BCFD0886892ED050A9FED481A44
:101A3C0093ED052A0290306820EE010A22EE011A7D
:101A4C0000218DED030A8DED041A05910691079185
:101A5C0028B1D0E90D12C06B0790CDE9051243F205
:101A6C00607542F2906942F66070C2F20005C2F2F3
:101A7C00000942F29C67C2F2000002A92A46C2F297
:101A8C0000074B46009700F07DFA00285ED0D5E9A0
:101A9C00000242F2A861C2F200010860A8684A6024
:101AAC00EA6888602869CA606A690861A8694A613D
:101ABC00EA698861286ACA616A6A0862A86A4A6225
:101ACC00EA6A8862286BCA626A6B0863A86BC1E910
:101ADC000D202068EA6BCA6338B199ED000A9FEDBE
:101AEC001D1A20EE010A01F07CFBDAF8000098B117
:101AFC0099ED010A9FED181A20EE010A9FED171AB5
:101B0C0020EE010A9FED161A20EE010A9FED151A20
:101B1C0080EE010AFFF7AEF8D8F8000000283FF479
:101B2C0051AF99ED020A9FED101A20EE010A9FEDBC
:101B3C000B1A20EE010A9FED0D1A20EE010A9FED03
:101B4C00091A80EE010AFFF795F83BE702203AE705
:101B5C0035FA8E3CCDCCCC3EAAAAAAC500007A445C
:101B6C00713D8A3F00403944AAAAAA45CDCC8C3F8E
:101B7C002DE9F04142F67C0142F2A863C2F2000169
:101B8C00C2F20003D1E9008CD3E900E403F10807A9
:101B9C008968E0CF42F618125B69C2F20002C2E912
:101BAC000081C2E902C0C2E904E4C2E90656C2E9F6
:101BBC000873BDE8F04100F001B8000043F240505A
:101BCC00C2F200009FED2B0A0068B0EE401A28B15B
:101BDC0090ED021A9FED282A21EE021A70B543F2FD
:101BEC004456C2F2000642F618143168C2F20004E0
:101BFC0084ED0A1AB0EE401A09B191ED051A43F2C0
:101C0C00485584ED0B1AC2F200052A68B0EE402A42
:101C1C000AB192ED052A42F6547284ED0C2AC2F2F6
:101C2C0000021268B0EE401AB0EE402A2AB192EDD2
:101C3C000D0A92ED0E1A92ED0F2A84ED0D0A84ED29
:101C4C000E1A84ED0F2A30B1D0F8180218B1FFF734
:101C5C0006FA316800E0002084F850000846FEF7D0
:101C6C00FCFF296884F864000846FEF7F6FF84F848
:101C7C00780070BD00000000E12E654210B543F203
:101C8C00243242F6181C0020C2F2000240F2011E5F
:101C9C00C2F2000C002100BF52F8043B0CEB010413
:101CAC0014317829A4F850E0C4E91030A064E06441
:101CBC00F2D10020CCF8B8004FF48070ACF8C8001A
:101CCC00BDE81040FFF77ABF80B5FFF751FF42F631
:101CDC00181200204FF4807CC2F20002002300BFD7
:101CEC00D11814338C2BC1E91100C864A1F850C071
:101CFC00F6D1BDE88040FFF761BF42F64870C2F2F2
:101D0C000000006842F628620021C2F20002117045
:101D1C0002F09ABB42F64870C2F20000016800293A
:101D2C0075D02DE9F04F87B042F6246291F800315E
:101D3C00C2F20002108863B142F62967C2F20007B2
:101D4C0011F8016B85B20130013BC0B27E55F7D161
:101D5C00108042F62669C2F20009B9F80010401A48
:101D6C005FFA80FABAF11B0F4ED342F6296742F69E
:101D7C002C7B6E46C2F200074FF6FB78C2F2000BCA
:101D8C0088B200228318DBB2FB5CB35401321B2AED
:101D9C00F8D19DF80000AA282CD1BDF819004045B7
:101DAC0028D19DE83D10AAF11B0A8BE81D00BDF857
:101DBC00180042F62862ABF818009DF81A00C2F21F
:101DCC0000028BF81A0001F11B00C1B242F6206030
:101DDC00C2F2000000680123CBF81050CBF814C0FD
:101DEC00A9F80010137058B1FFF76DF9B9F800108D
:101DFC0006E000BF481CC1B2AAF1010AA9F8001004
:101E0C001FFA8AF01A28BBD807B0BDE8F04F70470C
:101E1C0008B1012101707047F0B18168E1B180B562
:101E2C00C36CD1F81CE05A1E4FEA1E2C042A28BFA2
:101E3C000323CC2281F824E081F825C081F82630D8
:101E4C0081F82720806840F2FF6100F1240204230E
:101E5C00BDE88040FEF7CABB704728B1D0E90D132E
:101E6C00C26B8164C0E91023704700B1C164704734
:101E7C00B0B10146012081ED000AB0EE620AC1ED5D
:101E8C00010A81ED021AF0EE420AB0EE611A81F8F5
:101E9C003C0001F118000C31C1EC031A00F002B83F
:101EAC0070470000002869D010B52DED0C8B9FED0C
:101EBC00342A044620EE028A20EE829AB0EE480ABA
:101ECC0021EE02AA05F060FCB0EE40BAB0EE480A72
:101EDC0005F002FDB0EE408AB0EE490A05F054FC64
:101EEC00B0EE40CAB0EE490A05F0F6FCB0EE409AEE
:101EFC00B0EE4A0A05F048FCB0EE40DAB0EE4A0A01
:101F0C0005F0EAFC2BEE091A28EE0D2A21EE003A18
:101F1C0021EE0D1A33EE422A28EE003A2BEE0C4A33
:101F2C0031EE031A28EE0C3A84ED021A84ED012AE4
:101F3C0028EE091A84ED033A84ED004A2BEE0D2AA3
:101F4C0021EE003A2BEE004A21EE0D1A33EE022A56
:101F5C0031EE441A2CEE000A2CEE0D3A84ED042AD4
:101F6C00B1EE492A84ED051A84ED062A84ED070AA0
:101F7C0084ED083ABDEC0C8BBDE81040704700BFF7
:101F8C0035FA8E3C2DE9F0412DED088B8AB00028F6
:101F9C004FF0000500F009810F46002900F0058183
:101FAC001646002A00F00181044690F8BC03012873
:101FBC0040F0FB8094EDC12A9FED7F8A94EDBF0A1F
:101FCC0094EDC01A94EDC23A22EE482A97ED004ADD
:101FDC0097ED015A97ED026A20EE080A32EE44BAE8
:101FEC0023EE082A21EE081A94EDC33A35EE400A86
:101FFC0031EE461A23EE083A30EE42AA31EE439AFD
:10200C0098468DED07BA07A98DED08AA04AA8DEDA7
:10201C00099A01AB20460695CDE904550395029526
:10202C00019500F0D9F80546002800F0BE8094ED2B
:10203C00C10A9FED621A94EDC42A20EE010A32EE19
:10204C00000AB4EE40BAF1EE10FAC4BFD4F81C0387
:10205C00049094EDBF0A94EDC51A94EDC22A31EEAA
:10206C00400A30EE420A20EE080AB4EE40AAF1EE25
:10207C0010FA07DD9DED050A9FED511A20EE010ABD
:10208C008DED050A94EDC00A94EDC61A94EDC32AA1
:10209C0030EE410A30EE420A20EE080AB4EE409AC5
:1020AC00F1EE10FA07DD9DED060A9FED451A20EEC4
:1020BC00010A8DED060A9DED032A94EDCE5ADFED53
:1020CC00421A35EE422A94EDD55A9DED021A94ED42
:1020DC00CD4AB4EE615A34EE411A9FED3C4AF1EE12
:1020EC0010FA4FF0010035FE044A97ED045AF1EE58
:1020FC00441A86F83C00F4EE451A85FE445A06F163
:10210C001800F1EE10FA31FE855A9DED010A85EEAC
:10211C00044A94EDCC3A94EDD07A94EDCF6AD4ED98
:10212C00D10AD4EDD31A30EE430A31EE471AD4ED6E
:10213C00D22A32EE062A30EE200A94EDD43A21EE61
:10214C00215A97ED031A9FED1F6A9FED217A22EE1B
:10215C00222A20EE033A31EE061A24EE074A9FEDAE
:10216C001D6A97ED050A77EE440A22EE062A25EE43
:10217C00064A23EE063A189C86ED002A86ED014AA3
:10218C0086ED023A86ED031AC6ED040A86ED050AC1
:10219C00FFF788FEB8F1000F03D004AA07CA88E83D
:1021AC00070014B101AA07CA07C428460AB0BDEC3F
:1021BC00088BBDE8F08100BF35FA8E3C35FA8EBC39
:1021CC009A99993E00003443BD3786350000704221
:1021DC000000B44200007A442DE9F04F81B02DED9F
:1021EC00108BADF5287D00284FF0000A00F06283BB
:1021FC000F46002900F05E839346002A00F05A83B4
:10220C001C46002B00F05683064600F53E704FF03E
:10221C000008A5AA3946CDF89C82CDE9A588FEF721
:10222C0005FA8246002800F045839DEDA5CA9DED78
:10223C00A6DA9DEDA7BA95A884ED00CA402184EDDD
:10224C0001DA84ED02BAFDF7E4FF85A8142100F150
:10225C001404FDF7DEFF4FF000404FF07E59CDE93E
:10226C008B0875A81421CDF82892CDE98D88CDE97D
:10227C008F98CDE99188CDE99389FDF7CAFF4BF290
:10228C00D731CBF65D710120CDE97B184BF2D731FC
:10229C00CBF60070C3F65D717A90CDE97E1065A81F
:1022AC001421CDF8F481CDE98088CDE98288CDF870
:1022BC001092FDF7AEFF4BF2D83197ED008AC3F6C2
:1022CC005D714FF6FD70CDE96B184BF2D831B0EE65
:1022DC00480ACBF6FF60CBF65D7196EDCAFA6A90B0
:1022EC00CDF8B481CDE96E10CDE97088CDE9728856
:1022FC00CDF8D091CDF8848105F046FAD6EDC98A97
:10230C002FEE000AD6EDC89A30EE280ACDF88C8153
:10231C00B1EE4FEA30EE690A8DED620AB0EE480A72
:10232C0005F0DAFA2FEE400A97ED019A8DED640A6A
:10233C00CDF87481B0EE490A05F026FA2FEE000AAA
:10234C00CDF87C8130EE280A30EE690A8DED5E0AFC
:10235C00B0EE490A05F0C0FA2FEE400A97ED02AA3A
:10236C008DED600ACDF86481B0EE4A0A05F00CFAE6
:10237C002FEE000ACDF86C8130EE280A30EE690A97
:10238C008DED5A0AB0EE4A0A05F0A6FA2FEE401A65
:10239C009FED0A0A01208DED5C1A55A961AA23460E
:1023AC00CDF86081CDE95688CDF85081CDE95288C1
:1023BC00CDF84081CDE94E8802E000BF000000005E
:1023CC0001EB8007B0EE401A002600BF9D1995ED79
:1023DC00002A951995ED013A043622EE032A0C2EAB
:1023EC0032EE011AF2D1013087ED001A042803F104
:1023FC001003E5D175A800F114061FED100A012099
:10240C000DF5A27C5DAA33460DF515790CEB800712
:10241C00B0EE401A002500BF591991ED002A511950
:10242C0091ED013A043522EE032A0C2D32EE011AFD
:10243C00F2D1013087ED001A042803F11003E5D125
:10244C0065A800F114071FED230A01200DF59A7CF5
:10245C0059AA3B460CEB800EB0EE401A002100BF8F
:10246C005D1895ED002A551895ED013A043122EED0
:10247C00032A0C2932EE011AF2D101308EED001A2A
:10248C00042803F11003E5D1B0EE480ADDED568ABD
:10249C00DDED57CADDED58AADDED52DADDED539ACC
:1024AC00DDED54EADDED4EBADDED4FFA9DED50FA5F
:1024BC0005F012FA20EE0E0A00258DED4A0A4B9516
:1024CC00B0EE480A05F060F920EE0E0A8DED4C0ACC
:1024DC00B0EE490A05F000FA20EE0E0A47958DED94
:1024EC00460AB0EE490A05F04FF920EE0E0A8DEDC2
:1024FC00480AB0EE4A0A05F0EFF920EE0E0A4395B1
:10250C008DED420AB0EE4A0A05F03EF920EE0E1AA5
:10251C009FEDEC0A01208DED441A0DF1F40C49AA43
:10252C004095CDE93E553C95CDE93A553895CDE9E8
:10253C00365500BF0CEB8003B0EE401A002500BFEF
:10254C00611991ED002A511991ED013A043522EEF1
:10255C00032A0C2D32EE011AF2D1013083ED001A50
:10256C00042804F11004E5D13DEE6C8A3CEE6D9A22
:10257C003BEE6EEA3DEE6FAA9FEDD20A012039A91F
:10258C0045AA00BF01EB8003B0EE401A002500BF46
:10259C00741994ED002A541994ED013A043522EE85
:1025AC00032A0C2D32EE011AF2D1013083ED001A00
:1025BC00042806F11006E5D17BEE6AAA7CEE6BBA14
:1025CC009FEDC00A012035A941AA00BF01EB800391
:1025DC00B0EE401A002600BFBD1995ED002A9519E2
:1025EC0095ED013A043622EE032A0C2E32EE011A36
:1025FC00F2D1013083ED001A042807F11007E5D160
:10260C003CEE68CA9DED3F0A9DED3E1A28EE000A8D
:10261C002CEE011A9DED402A31EE000A2AEE821AA8
:10262C003DEE69DA3BEE4FBA31EE00FA9DED3B0A16
:10263C009DED3A1A9DED372A9DED363A2DEE000AA6
:10264C0029EE011A2AEE022A2BEE833A31EE000A09
:10265C0033EE021A9DED3C2A9DED383A2EEE022AFD
:10266C002BEE033A25AE30463C2172EE008A73EE17
:10267C00019AFDF7CEFD15AF8DED2AFA3846CDED5A
:10268C002F8A3421CDED349AFDF7C3FD2EEE0A0AC4
:10269C002EEE2B1A29EE0B2A2DEE0B3A32EE412A96
:1026AC0033EE403A2DEE2B1A29EE0A4A28EE020A96
:1026BC002CEE035A34EE411A35EE400A2AEE814ACA
:1026CC0034EE000A9FED804AB0EEC05AB4EE445A84
:1026DC00F1EE10FAC0F29D80B1EE4A4AB1EE422AF8
:1026EC002AEE844A28EE0B5A2AEE8D6A28EE0E7AD0
:1026FC0035EE044A37EE465AB1EE6B6AB1EE444AF7
:10270C002CEE0B7A6AEE860A6AEE891A6CEE0E2AA9
:10271C0037EE207A71EEE20A28EE066A6CEE0A1A9F
:10272C006CEE0D2A31EE866A68EE091AB1EE466A35
:10273C000DF1140872EEE11A83EE003A84EE004AB1
:10274C0085EE005A82EE002A87EE007AC0EE800AEF
:10275C0081EE001A86EE006A81EE800A4046402126
:10276C0007F114048DED1A3A8DED1B4A8DED1C5AB0
:10277C008DED1E2A8DED1F7ACDED200A8DED221ADE
:10278C008DED236A8DED240AFDF743FD06F1140C43
:10279C004FF0010E08EB0E130122664603EB820587
:1027AC00002795ED000A3046E11991ED001A90EDE5
:1027BC00002A043721EE021A0C2F31EE000A00F128
:1027CC001000F1D1013285ED000A042A06F104064D
:1027DC00E4D10EF1010EBEF1040F04F11004D9D1B5
:1027EC0009F1140008F11401012200BF002300BFFD
:1027FC00CF1897ED000AC7180433B1EE400A0C2B22
:10280C0087ED000AF4D101321030042A01F11001D5
:10281C00ECD105AC20464021FDF7FBFC00200490D8
:10282C00CDE9020004F1140009F11406012203465B
:10283C000027314651F8105BDD5104370C2FF9D1CC
:10284C0001321033042A06F10406F1D19FED1D0A62
:10285C0048F24003012101AAC0F2000302EB8107F8
:10286C00B0EE401A002600BF851995ED002A9D197F
:10287C0095ED013A043622EE032A0C2E32EE011AA3
:10288C00F2D1013187ED001A042900F11000E5D1D5
:10289C009DED020A9DED031A9DED042AB1EE400A4E
:1028AC00B1EE411AB1EE422A8BED000A8BED011A02
:1028BC008BED022A50460DF5287DBDEC108B01B036
:1028CC00BDE8F08F000000006F12833A40B339B3BB
:1028DC0032B310B500F5A07300F5E87C4FF0000E94
:1028EC000CEB8E0090ED000A002000BF1C1894ED3C
:1028FC00001A0C1894ED002A043021EE021A182844
:10290C0031EE000AF2D102EB8E000EF1010EBEF197
:10291C00060F80ED000A03F11803E1D1BDE8104069
:10292C0070470000B8B32DE9F04F81B00C4679B375
:10293C004FF470718046FDF76CFC404621464FF415
:10294C005672FDF74DFC9FED150B9FED161B04F118
:10295C0098095BEC10AB54EC117B08F56275002602
:10296C0059F80600FDF771FD52465B46FDF78CFCED
:10297C003A462346FDF7FAFC41EC100B043605ED04
:10298C000C0B182EA5EC020BEAD1012088F8BC0325
:10299C0001B0BDE8F04F704700BF00BF182D445484
:1029AC00FB2109400000000000806640002800F078
:1029BC00A980002900F0A68090F80C21012A0FD1E3
:1029CC0091ED010A90ED411A90ED422AB4EE401AB5
:1029DC0080FE420AF1EE10FA31FE000A81ED010A86
:1029EC0090F81821012A0FD191ED020A90ED441AAA
:1029FC0090ED452AB4EE401A80FE420AF1EE10FA30
:102A0C0031FE000A81ED020A10B590F8D042CCB329
:102A1C0000F52473042C28BF042400BF1A7B012A60
:102A2C002CD193F800C0BCF1050F27D893F801E026
:102A3C00BEF1050F22D801EB8C0C01EB8E0E9CED38
:102A4C00000A9EED001A93ED022A30EE410AB4EE14
:102A5C00420AF1EE10FAC4BF31EE021A8CED001AE4
:102A6C0093ED011AB4EE410AF1EE10FA06DA9EED7E
:102A7C00000A31EE000A8CED000A00BF013C03F1A4
:102A8C001003CBD190F83021012A0FD191ED040A1B
:102A9C0090ED4A1A90ED4B2AB4EE401A80FE420A91
:102AAC00F1EE10FA31FE000A81ED040A00F5807097
:102ABC0000224FF0010C00BFD3B2042B0CD80CFA3F
:102ACC0003F313F0160F07D001320C30062A01F174
:102ADC000401F1D114E000BF0378012BF4D191ED86
:102AEC00000A10ED021A10ED012AB4EE401A80FE15
:102AFC00420AF1EE10FA31FE000A81ED000AE3E71A
:102B0C00BDE81040704700002DE9F04146F2201856
:102B1C00C4F20008B8F80000B8F8201042F6BC2542
:102B2C0001EA0006B7B20024C2F2000527FA04F04D
:102B3C00C00704D055F8241009B120468847013449
:102B4C00102CF3D1A8F81060BDE8F08110B52DED74
:102B5C00048B0446007EB0EE609A0006B0EE408A0C
:102B6C0044BF204602F00EF904F17400FEF713FA8C
:102B7C0039EE481A94ED052AB0EEC17A84ED0C8A30
:102B8C009FED983AB4EE427A80FE035A84ED1C9A7B
:102B9C00F1EE10FA84ED1E5A84ED0E1A40F3C88043
:102BAC00D4ED110A94ED026A31EE600AD4ED011AEB
:102BBC0026EE000A21EE214A80EE052A94ED000A49
:102BCC00A06921EE000A25EE044A410784ED140A9F
:102BDC0084ED184A84ED162A0BD531EE204AF6EE18
:102BEC00000A24EE204A21EE844A25EE044A84EDA4
:102BFC00184A810631D5D4ED150A61EE200AF5EE9E
:102C0C00400AF1EE10FA28DDD4ED090AB4EE607A30
:102C1C00F1EE10FA21DDD4ED081A002171EEC72A6D
:102C2C00F0EEE13A70EEA22AF4EE433AC2EEA12A9B
:102C3C0070EEA10AF1EE10FAC8BF0121DFED6A1A9D
:102C4C00C907F4EE470A22EE844A01FE844AF1EEEB
:102C5C0010FA24FE214A84ED184A810709D594ED17
:102C6C000D2A32EE482A26EE022A82EE052A84ED3F
:102C7C00162A410613D594ED0B6AD4ED1B0A35EEDA
:102C8C00067A25EE022A26EE206A87FE037A82EE69
:102C9C00072A86EE076A32EE062A84ED162A94ED90
:102CAC00156AC10750D030EE067AD4ED040A37EE1F
:102CBC00027AB0EEC77AB4EE607A36EE047AF1EEB0
:102CCC0010FA0ADD61EE060AF5EE400AF1EE10FA92
:102CDC0003DD9FED454A00212166D4ED071ADFED97
:102CEC00422AB4EE617AF1EE610AF1EE10FAF4EEDA
:102CFC00470A31FE866AF1EE10FAB4EE617A30FEC4
:102D0C00866AF1EE10FAF4EE470A32FE844AF1EECE
:102D1C0010FAB4EE617A32FE844AF1EE10FA11DC4C
:102D2C00B4EE607AF1EE10FAB8BF84ED184A0BE0FD
:102D3C009FED2D4A94ED162AB0EE440A0020C4E90A
:102D4C00180041E084ED184A34EE066A94ED0D7AD1
:102D5C00D4ED030A38EE477A30EE060A27EE207AD5
:102D6C0030EE020AC00684ED156A37EE000A84EDD7
:102D7C00177A84ED190A13D594ED0A6AD4ED1A0A60
:102D8C0035EE067A25EE000A26EE205A87FE033A27
:102D9C0080EE030A85EE033A30EE030A84ED190A3D
:102DAC0094ED045AB4EE450A80FE453AB1EE455A0C
:102DBC00F1EE10FA04DCB4EE453AF1EE10FA03DA57
:102DCC0083FE050A84ED190A84ED0D8A84ED1A0A36
:102DDC0084ED1B2A84ED111A84ED134ABDEC048B8F
:102DEC0010BD00BFBD37863500000000B0B50D46E4
:102DFC0090210446FDF70DFAD5E900CED5E9022362
:102E0C00D5E90410C4E900CEC4E90223C4E90410D6
:102E1C00D5E906C0D5E90823D5E90A15C4F818C0C8
:102E2C00C4E90A1504F11C010DC104F17400BDE8DC
:102E3C00B040FEF7B0B800000F4B1968EFF30982F1
:102E4C001EF0100F08BF22ED108A22E9F04FEFF3AD
:102E5C000B8342F8043D0A604FF0100080F3118898
:102E6C00BFF34F8FBFF36F8F03F00EFD4FF00000D9
:102E7C0080F3118802F0E4BDC4340020F0B581B0B9
:102E8C00466AB6B104460D46002700BF307A294683
:102E9C00012804BFB7713772F079628C56F82000A4
:102EAC00FDF79EF9307AF77101303072F668002E1A
:102EBC00ECD1012001B0F0BDF0B581B00C46212160
:102ECC000546FDF7C8F91F2801D900BFFEE740F2FF
:102EDC001417C2F2000700BFBE6A66B1304629461D
:102EEC00FDF7A2F900283746F6D1708C84423046A3
:102EFC000BD000BFFEE701203021FDF7B7F92946C2
:102F0C00B8624484FDF79EF93E46012186F82C10E8
:102F1C0001B0F0BD80B50146FE2000F04CF99FEDEC
:102F2C00030ABDE88040FEF71BB800BFCDCCCC3DFA
:102F3C002DE9F04381B02DED088B42F64F79C2F2AA
:102F4C00000999F80000002800F0A18043F2B45861
:102F5C00B1EE068A9FED50AA0026B9EE069AC2F28F
:102F6C000008B2EE06BA002758F82750D5E90A0136
:102F7C0095ED800AD5F80842B1EE401A012901FE00
:102F8C00001A410718D5696A042915D1686B012804
:102F9C0005D1286C002808BF05F1080001E005F1F7
:102FAC00080090ED000AF0EE410A05F5B870FFF745
:102FBC00CDFDA86AB0EE401A800723D595F8240001
:102FCC0010F0060F1ED095F83C00800705D5A86CB4
:102FDC0018B190ED000A31EE001AA86B012805D14A
:102FEC00686C002808BF05F10C0001E005F10C002D
:102FFC0090ED000AF0EE410A05F1E000FFF7A6FDA6
:10300C00B0EE401A95F83C00F0EE410AC00707D02C
:10301C00E86CF0EE410A18B190ED000A71EE000A6E
:10302C0095F82800C00707D095ED040A05F150006B
:10303C00FFF78CFDB0EE401A81FE480AD5F8140259
:10304C0080FE090A224630EE080A002820EE0A0A01
:10305C0080EE0B0ABDEEC00A10EE103AC3F303204B
:10306C0008BF4FF0FF33A66242F8246F08BF072059
:10307C00E16984F82A0084F82B3020460823FDF7F8
:10308C00B5FA99F8000001378742FFF46DAFBDEC3B
:10309C00088B01B0BDE8F08300F07F4510B1012131
:1030AC00C0F81412704700002DE9F04184B00028DC
:1030BC004FF0000472D042F64F78C2F20008054679
:1030CC0098F80000032869D801204FF40E71FDF721
:1030DC00CDF8002861D00446D5E92E10D5E928CECC
:1030EC0005F1A807CCCFC4F8100204F12C00CCC019
:1030FC00E16304F1500005F11001C4E909CEFFF7BA
:10310C0075FE04F1E00005F14001FFF76FFE04F5D8
:10311C00B87005F17001FFF769FE95E80F0004F136
:10312C00400C8CE80F00D5F8CC1005F1C00000293C
:10313C0041F23D21C0F20001C5E9344103D1D5F87B
:10314C00C810C5F8CC10FDF74FFAC4F8080208B344
:10315C000A20019043F2B510C0F20000CDE9020440
:10316C0001A8FDF784FF0121C4E98510FC2021464C
:10317C0000F021F89FED0B0AFDF7F2FE98F8000025
:10318C00411C88F8001043F2B451C2F2000141F81E
:10319C00204003E0204604F0CFFA0024204604B07F
:1031AC00BDE8F081CDCCCC3D00281ABF0146FC20F7
:1031BC007047AFF3008099B1D1F8082282B14FF07B
:1031CC00FF33C2F827305362D1F80822082382F863
:1031DC002B00D1F80802C16900F12402FDF706BAF0
:1031EC00704708B180ED800A704710B10021C0F81B
:1031FC0014127047B0B543F22404C4F2080400253D
:10320C00C8200121257100F082F825702078002853
:10321C00FCD1207840F00200207000BF207880079D
:10322C00FCD4002004F8020C14F8020C0028FBD18A
:10323C00002004F11C0100BF11F8102002F07F02E5
:10324C0001F8102011F91020002AFBD401300328BA
:10325C00F2D1012000F00BF84EF2BB420021C4F277
:10326C00010201201170BDE8B04000F027B880B514
:10327C000122EFF3108182F3108842F68832C2F2F9
:10328C00000232F810308BB94EF2FE3C48F2341387
:10329C00C4F2010CC0F20003BCF800E033F81030AB
:1032AC0043EA0E0343F42543ACF8003032F81030F7
:1032BC00013322F8103081F3108880BD0122EFF326
:1032CC00108182F3108842F68832C2F2000232F882
:1032DC00103023B132F81030013B22F8103032F8A4
:1032EC0010208AB94EF2FE3CC4F2010C48F23412A2
:1032FC00BCF80030C0F2000232F8100043F4254252
:10330C0022EA0000ACF8000081F31088704742F20A
:10331C000462C2F20002126801FB00F041F20021CB
:10332C00C0F27A018A420FD340F6FF01C0F23D0190
:10333C0011444DF68362C4F21B32A1FB0212110D33
:10334C00A0FB0101E9B11FE04CF60021C3F69A3154
:10335C0048F63813C0F24103B1FBF2F1984207D2A0
:10336C004FF47A7200FB02F0B0FBF1F0800808E039
:10337C008900B0FBF1F0984206D24FF47A7100FB51
:10338C0001F028B101F0EFB94FF0FF3001F0EBB9CB
:10339C0070477047022818BF704742F6703048F2E9
:1033AC005401C2F20000C0F2000100F04FBB00005B
:1033BC002DE9F04F81B0834608688A460090D1E928
:1033CC0002010027DAF81090C4F20B070022CBF8A8
:1033DC001C100121CBE9007ACBE90502D9F81C803D
:1033EC00EFF3108081F3108844F20801C4F2080155
:1033FC000A684EF2034C22F000620A60096880F3FE
:10340C0010884EF20016D7F88C0046F2003542F6C2
:10341C00CC54CEF2000CCEF20006C007C4F200056C
:10342C00C2F2000455D06446D7F88C000007FBD4D8
:10343C005846812102F0AAF9D8F8040041F214315F
:10344C00C7F884004FF48030C7F89C000120C4F208
:10345C000B010860D8F82800C7F8AC00002000BFAA
:10346C0008EB800107EB8002896801300828C2F85C
:10347C00C010F5D198F82D00A4460001607042F6FA
:10348C00CC540020C2F2000446F200352061C4F294
:10349C00000529694EF2001621F480312961296951
:1034AC001021CEF20006BFF35F8FC6F88011316099
:1034BC00D8F80010C7F8881008F1300151F8202016
:1034CC0007EB8003013022F001020628C3F820210B
:1034DC00F4D198F82C00A04600018CF80000C4F838
:1034EC000CB0E86820F48030E860E8680820BFF38E
:1034FC005F8FC6F88001306042F6C450009CC2F267
:10350C00000040F824B04FF48070012CC7F89800EC
:10351C0021D0D9F80010C7F89800D1F800C04A683B
:10352C008B68C96841F60C00C4F20B00016041F6CF
:10353C00080041F60401C4F20B00C4F20B01036055
:10354C000A6041F60001C4F20B01C1F800C0016829
:10355C0064F3C71101600020C7F898005846012198
:10356C0002F014F9DAF804004EF2001690E80E009E
:10357C00C06801396FF39F2141EA42415A1EA1F5FF
:10358C00003141EA42614FF60042CFF6FF7202EB86
:10359C00802046F20035084321017850D9F81400F8
:1035AC00CEF2000690E80E00C0680139C9B241EABB
:1035BC0002210022CFF6FF7202EB0342A1F58071CB
:1035CC001143013841EA006041F21431C4F20B019D
:1035DC0001EB4411C4F20005C1F8EC00D9F8140059
:1035EC004068FF2828BFFF2099F81820000440EA03
:1035FC00422040F201421043C1F8F000D9E9021216
:10360C0007EBC400C0F8501FC0F8542FD9F81000B5
:10361C0007EB041140F003004860DAF818000028AA
:10362C001DD49AF814103218090182F8001348F8C6
:10363C0020B055F82010012321F4803145F82010DA
:10364C0055F8201000F01F01400906EB800203FA28
:10365C0001F1BFF35F8FC2F8801146F82010DAF841
:10366C00200000281DD49AF814103218090182F891
:10367C00001348F820B055F8201000F01F0221F478
:10368C00803145F8201055F820100123400903FA29
:10369C0002F206EB8003BFF35F8FC3F8802146F87C
:1036AC002020DAF81C0000281DD49AF814103218C7
:1036BC00090182F8001348F820B055F820100122B7
:1036CC0021F4803145F8201055F8201000F01F012E
:1036DC00400906EB800302FA01F1BFF35F8FC3F8D8
:1036EC00801146F820105846802102F04FF85846B9
:1036FC000021002502F04AF844F24460C5F2432050
:10370C00CBE902050020CBF8105001B0BDE8F08FDA
:10371C0010B59368D2E900E4D0F804C04EEA837384
:10372C00DCF800C043EAC47E272916D90CEB4C0305
:10373C0004680B44A3F1280C04EBCC134FF4C844DD
:10374C0043F804E0137B092B27D3182B22D803F55D
:10375C007E73082404EB93031FE041EA8C1C03687E
:10376C0003EB0C0494F8D047240744BF4EF66320B7
:10377C0010BD03EBCC134FF4803443F804E0137BFF
:10378C00092B28D3182B23D803F57E73082404EBBC
:10379C00930320E00B2404EB131304684FEA037E1D
:1037AC0004EBCC1446F2044344F803E004681369B8
:1037BC0004EBCC1403F0070E46F2084344F803E084
:1037CC00036846F20C4403EBCC1303EB040E1DE030
:1037DC000B2404EB131304681B0704EBCC1E04240A
:1037EC00C0F201044EF804300368146903EBCC1EDC
:1037FC00082304F00704C0F201034EF803400368E9
:10380C0003EBCC1303F5803303F10C0E137B3BB1AC
:10381C00143200BF12F8014B013B0EF8014BF9D1E9
:10382C000068272905D900EB8C00FF21C0F8401255
:10383C0003E06044012180F8D012002010BD062066
:10384C0070470146406846F20032C4F2000252F85A
:10385C00203023F0807342F8203040F20002C2F294
:10386C000002002342F8203000200B6070474168B2
:10387C0046F20032C4F2000252F8210020F08073AC
:10388C00002042F821307047416846F20032C4F201
:10389C00000252F8210040F08073002042F82130E1
:1038AC007047406840F20002C2F2000252F8200059
:1038BC000022C1E90022C278402A05D24FF480329E
:1038CC008A60C089C8600FE04FF480728A60C28938
:1038DC00D2B2CA60C27802F0C002802A04D14FF47E
:1038EC0080320A608089486000207047F0B581B052
:1038FC0043F24C52C2F20002137840F200060D461D
:10390C000446C2F20006D3B9012744F20001177035
:10391C00EFF3108087F31088C4F208010A6822F4D0
:10392C0080020A60096880F3108830465421FCF745
:10393C0070FC45F20C40C4F20000866007706868A9
:10394C000068002804D456F8201019B108200DE0A6
:10395C000B200BE02968606011B1204601F0ACFF30
:10396C0044F20030C4F254402060002001B0F0BD9D
:10397C00B0B50446406846F20035C4F2000555F86F
:10398C00202022F0807245F82020606845F20E421B
:10399C0040F40040C4F2000213889842FCD0204648
:1039AC0001F08AFF616855F8210040F08072002018
:1039BC0045F82120B0BD06207047000010B582B03C
:1039CC0001910092416840F2000246F2003CC2F2C2
:1039DC000002C4F2000C52F821E05CF8212022F025
:1039EC0080724CF82120426845F20E41C4F200016D
:1039FC0042F400420C88A242FCD008228A70019A40
:103A0C0012B1019ACEF80420009A12B1009ACEF8A5
:103A1C0008209EF8032002F0C004802C02D1AEF8DE
:103A2C000C3003E03F2A98BFAEF80E3018228A7093
:103A3C0041685CF8210040F0807200204CF8212095
:103A4C0002B010BD062070470620704780B545F2C5
:103A5C005422C5F24F020260084601F04FFF0020CD
:103A6C0080BD0000B0B50D468907044601D4062080
:103A7C001DE0206A817801F07B018170E069406B68
:103A8C0020B1816800680969884700E0002021782E
:103A9C0049B1216A8A8A42F004028A82216A00BFF3
:103AAC008A8A5207FCD400212161B0B90020E907B1
:103ABC0013D0E069016B0020A06119B18A68086815
:103ACC0011698847217841B1216A8A8A42F0020241
:103ADC008A82216A8A8A9207FCD4B0BD10B504464A
:103AEC00216A002060608870E069012240694EF212
:103AFC00801300F01F0102FA01F14009CEF200031D
:103B0C0043F82010BFF34F8FBFF36F8FE069C06A8B
:103B1C0000F01F0102FA01F1400943F82010BFF335
:103B2C004F8FBFF36F8FE069C06900F01F0102FA7D
:103B3C0001F1400943F82010BFF34F8FBFF36F8F93
:103B4C00E069406A00F01F0102FA01F1400943F8F4
:103B5C002010BFF34F8FBFF36F8FE069016B21B162
:103B6C008A680868116A8847E069406B18B18168F7
:103B7C000068096A88470120EFF3108180F31088F0
:103B8C0044F20403E069C4F2080300784FF00042E9
:103B9C001C6822FA00F020431860186881F3108822
:103BAC00002010BD2DE9F04381B00A780D460121AB
:103BBC00914011F0060F044605D0286CC0680078BF
:103BCC00000700F1C28048F20000C4F2110040EA84
:103BDC0002200022206240F2F930084018BF012078
:103BEC00E56100012070D5E90E01A2626062A07847
:103BFC00E16220F00300411CA170696811B940F02A
:103C0C000200A070EE6A4EF2001806F01F014FF091
:103C1C00010CCEF200080CFA01F308F180017709CF
:103C2C0095F8282041F82730BFF34F8F46F2003922
:103C3C00C4F20009BFF36F8F59F82630170123F433
:103C4C00803349F8263008F5407259F826309755DC
:103C5C006F6942F6CC5E07F01F00C2F2000E0CFA40
:103C6C0000F07B094EF826402E7C41F82300BFF370
:103C7C004F8FBFF36F8F59F82700330120F480303A
:103C8C0049F8270059F82700D355E8694EF8274022
:103C9C0000F01F060CFA06F647092B7E41F8276048
:103CAC00BFF34F8FBFF36F8F59F820601B0126F4C1
:103CBC00803649F8206059F8206013544EF82040A3
:103CCC00686A95F8203000F01F060CFA06F74609D2
:103CDC0041F82670BFF34F8FBFF36F8F59F8201048
:103CEC001B0121F4803149F8201059F8201013548D
:103CFC004EF82040286B78B1406802684FF40020E1
:103D0C0042F8040B206A296B431D204601F076FE15
:103D1C000646002840F01C81686BC0B14068026800
:103D2C004FF0006042F8080B206A696BC31C2046F8
:103D3C0001F064FE58B10646286B002800F008819B
:103D4C0081680068096A884702E1032600E10120C6
:103D5C00EFF3108180F3108844F204072A78C4F240
:103D6C0008074FF000433E6823FA02F226EA0202EB
:103D7C003A603A6881F310880022216A8A70216ABD
:103D8C000A71216A4A72216A8A72216ACA72216A8C
:103D9C004A832978884040F2F931084202D0206ADF
:103DAC004021C174206A062101772078C8B1E269EC
:103DBC00116B00294FF0010105D1126C431E1269E1
:103DCC001A4062F30B21013800F00F0041EA003079
:103DDC00216A40F006028A82216A00BF8A8A9042D8
:103DEC00FCD1D5E90112E8684FEAC00040EA0210A4
:103DFC0029B1032908BF40F04000F22100E0E22184
:103E0C00226A00271070206A02228171286C816955
:103E1C0002EA41020829216A08BF0A224A73236A6E
:103E2C00D0E901121F720368C90123F00103C9B262
:103E3C00022B62F345110AD1226AFF2353700068EA
:103E4C000228206A08BF41F01001C17117E0226AF4
:103E5C00D171C068216A82784A7042780B7802F07E
:103E6C00030203F0FC031A440A70C2788A74CA79FC
:103E7C00007802F0A30200F05C001044C871002628
:103E8C00E169C4E90366C4E90566286C4F690178E9
:103E9C0059F8272007F01F0322F4803249F8272015
:103EAC0059F82720012202FA03F508F5C0737F099F
:103EBC00BFF35F8F43F8275048F82750E769FF6A34
:103ECC0059F8275025F4803549F8275059F82750D0
:103EDC0007F01F0502FA05F57F09BFF35F8F43F862
:103EEC00275048F82750E769FF6959F8275025F4FF
:103EFC00803549F8275059F8275007F01F0502FA6A
:103F0C0005F57F09BFF35F8F43F8275048F827501A
:103F1C00E7697F6A59F8275025F4803549F827500E
:103F2C0059F8275007F01F05AA407F09BFF35F8F90
:103F3C0043F8272048F827201C22236A62F39F01AC
:103F4C009970406944F65511C5F24331C4E901102A
:103F5C00304601B0BDE8F08370B50446C069154623
:103F6C00006B0E4678B1A178826801F0030101392B
:103F7C0025FA01F10068D2F808C08BB20021324654
:103F8C00E04700B170BD0020C4E9056570BD70B597
:103F9C000446006A0E46837803F07B038370207816
:103FAC0008B1314604E0A07800F00300121A311871
:103FBC00E069C4E90312406B88B182B1A3784FF079
:103FCC00000C03F00303013BDA40836800689D6832
:103FDC0093B20022C4F810C0A84700B170BD206A8B
:103FEC00817841F080018170207868B9A07800F068
:103FFC000300022805D13088216A40F47E40C88134
:10400C0002E03078216AC870002070BD00F006F91B
:10401C0000F035FFFEE700001EF0040F0CBFEFF3BD
:10402C000880EFF30980014908470000C9640000CB
:10403C0070B54FF0000438B343F25376C2F2000669
:10404C000546307801281FD801204FF48471FCF705
:10405C000DF9C0B1044644F29900C0F20000E860CA
:10406C001120296928702846C4F8041100F0AEF913
:10407C0031782060481C307043F25870C2F2000056
:10408C0040F8214000E00024204670BD70B52DEDB5
:10409C00028B43F25374C2F200042078A8B39FED54
:1040AC001C8A43F258760025C2F2000656F82510F9
:1040BC0039B3086828B3D1F8042112B30178AA29BE
:1040CC0016D14178552913D1C17B0D2910D1017C12
:1040DC000A290DD1C11C0B68D1F804C089688078FD
:1040EC0000EE103A00EE90CA01EE101A002107E023
:1040FC000020B0EE480AF0EE480AB0EE481A012152
:10410C009047207801358542D0D3BDEC028B70BD31
:10411C000000000048B341B32DE9F04107680446A4
:10412C000FB31546122A28BF12254FEA8508261D03
:10413C0030464246FCF754F84FF0FF4046F8250055
:10414C0097F8100178B9012087F8100108F10401E3
:10415C00D7F80401CAB23146FFF719FF18B120682D
:10416C00002180F81011BDE8F0417047B0B505464C
:10417C00007A002460B1A879AA8855F82030084646
:10418C001946FCF72DF8287AAC71013801242872F5
:10419C002046B0BD70B50E46FEF78EFE05460120DA
:1041AC001021FCF763F804468680304603F05CFC73
:1041BC00206055F8240F28B10146C0680028FBD1B7
:1041CC0001F10C0520462C6070BD10B51020EFF3EA
:1041DC00118480F3118803F04FF830B14EF604507F
:1041EC00CEF200004FF08051016084F3118810BDB5
:1041FC004EF22000C4F201008179006842F2C052F4
:10420C00C2F20002C0F3026052F8211021FA00F051
:10421C0042F20461C2F200010860704710B54EF61C
:10422C000850CEF200004FF47001C0F8801040F23C
:10423C000001C0F20001016000200024FFF7AAF881
:10424C0000F06CF90120FFF7A5F842F2C010C2F2A1
:10425C00000080F30A88002000F032F8FFF7C8FF56
:10426C00FEF7C8FF0320FFF702F840F61050C4F227
:10427C0008004FF6FF7100BF20F8141001340C2C0D
:10428C00FAD10320FFF71AF80320FEF7F0FF042001
:10429C00C4F20E000021016041608160C160032006
:1042AC00FFF70CF80220FFF775F8012000F008F872
:1042BC0000F014FA0020BDE8104000F00DBA000028
:1042CC00F0B581B048F2C805C0F200052E6804466E
:1042DC0076B16868071D00BF7879844204D157E92C
:1042EC000101091AFBF795FF013E07F10C07F3D109
:1042FC00AE6886B1E86800F1080500BF68798442B1
:10430C0005D155E902022968121AFBF769FF013E33
:10431C0005F11005F2D101B0F0BD0000B0B542F6C8
:10432C004C71C2F20001097881B10446006844F274
:10433C00A072C2F2000200BF1568D5F808311B78D4
:10434C00984204D0013902F10402F5D1B0BD606885
:10435C000F2806DD102818BF402806D0202804D0CE
:10436C0014E0012806D0082810D12846BDE8B0403A
:10437C0000F06AB8D5F80C0100B18047D5F80401FB
:10438C0095F800212946FFF7E7FD6068022819D04F
:10439C000428DBD1A068B5F81213B5F81423013149
:1043AC006FF35F21914204D0B5F812232A4482F8AE
:1043BC001101A5F81213D5F80C010028C6D0BDE8E0
:1043CC00B0400047002085F81001B0BDF0B581B0B9
:1043DC004FF00004A8B342F64C76C2F200063778D0
:1043EC00032F2ED8054601204FF44671FBF73EFFF4
:1043FC0030B32A1D044607CAC4F80C217A1C2B784A
:10440C00327044F2A072C2F20002C4E9410184F895
:10441C00003142F82740FFF7C5FB58B9D4F8040126
:10442C0094F800212146FFF797FD50B1D4F8040110
:10443C00FFF754FB204603F07FF9307801383070D9
:10444C000024204601B0F0BDA0B110B504460020F8
:10445C00A4F81203A4F81403D4F804010121FFF703
:10446C0001FBD4F8040194F800212146BDE810406A
:10447C00FFF772BD7047000080B588B0CDE905012B
:10448C0041F62150C0F200001B22079004A88DF8C1
:10449C001020FFF79BFF0EA2D2E9012142F64873D0
:1044AC00DFF82CC0C2F20003186001A8CDE901C2EC
:1044BC000391FCF7DCFD42F62062014642F62C70BB
:1044CC00C2F20002C2F20000116008B080BD00BF51
:1044DC0032000000071D00000000000010B542F67D
:1044EC004874C2F2000423689BB10A46014693F853
:1044FC00100172B169B1C0070BD1012083F8100112
:10450C00D3F80401FFF743FD18B12068002180F8AF
:10451C00101110BD00BE00BFFEE700002DE9F041F8
:10452C004EF2FE34C4F201044AF203504CF200166F
:10453C002080C4F201060120B08000BFB0880028A2
:10454C00FCD147F200010120C4F2000130808860E8
:10455C00086042F2C05742F6005041F20022C2F20B
:10456C000007C0F23110C0F27A02C7E9000243F230
:10457C0000604FF40041C0F26E10C7E902104CF21B
:10458C000020396141F60041C0F6EB30C0F64E61B7
:10459C004EF220057861C4F20105B961A879296849
:1045AC0057F82000C1F3026142F20468C840C2F21D
:1045BC000008C8F8000000206075092085F882000A
:1045CC0094F8820020B994F88300800700F07F8073
:1045DC0094F8820050B9012084F88200C82001218F
:1045EC00FEF795FE94F882000128FBD1002084F898
:1045FC00830084F882000020A87400BF287F000785
:10460C00FCD542F201702885002043F2021185F896
:10461C002A002981A87200BF287F8006FCD50320C0
:10462C00307741F22120C2F2010028600520A871E8
:10463C00A879296857F82000C1F30261F022C8401C
:10464C00C8F8000042F20800C4F20000F121017128
:10465C00012101700271297485F8321095F854000B
:10466C0040F0400085F8540095F95400B0F1FF3F3C
:10467C00FADC0620462185F84C0085F8541085F8A4
:10468C00540000BF95F954000028FBD495F856004F
:10469C0040F0400085F8560095F95600B0F1FF3F08
:1046AC00FADC032085F84E00C62085F8560095F8F4
:1046BC00560000F0BF0085F8560000BF95F9560073
:1046CC000028FBD44FF425402080BDE8F0814FF446
:1046DC007A70FEF75EFE8EE77047000070B584B00E
:1046EC0048F248060320C4F20006FEF7C0FD6FF046
:1046FC00FF0048F2E00430604FF0FF300021C0F2C0
:10470C0000040122CDE9020054F8213002FA01F52F
:10471C00002B18BFA84301311529F5D14EF2803278
:10472C000190002001A9CEF2000200BF51F8203008
:10473C0006EB8005AB6242F8203001300328F5D13E
:10474C000320FEF7BBFD46F200310020C4F200014D
:10475C0054F820200AB141F820200130152804BF5C
:10476C0004B070BDF4E701380028FCD1704700009C
:10477C002DE9F04F81B00446008800285AD043F24E
:10478C0040084EF2BB4B0025C4F208080FF2AC0AED
:10479C00C4F2010B4FF00109002700BF60685AF802
:1047AC00272000EBC500416891423CD100689BF882
:1047BC00001000F0B85009FA07F6B0F1807F06EA55
:1047CC00010015D150B90120FEF751FD9BF80000F6
:1047DC0030438BF800000120FEF770FD18F917002C
:1047EC00002820D418F8170040F0800015E000BF16
:1047FC0050B10120FEF73BFD9BF80000B0438BF855
:10480C0000000120FEF75AFD18F91700B0F1FF3F28
:10481C0009DC18F8170000F07F0008F81700C82012
:10482C000121FEF774FD0137032FB7D12088013524
:10483C008542B1D301B0BDE8F08F00BF0204000087
:10484C0003040000040400002DE9F047044640680E
:10485C00B0F5806F2FD142F24C68C2F2000898F884
:10486C000070002F08BFBDE8F08742F2506A04F1D7
:10487C0028090025C2F2000A5AF82560C6B1B169B0
:10488C00606909B1814213D194F82020706106F15E
:10489C00080049463274082A28BF0822FBF7A0FCFE
:1048AC00D6F8801021B13046884798F8007000BFC8
:1048BC000135BD42E0D3BDE8F08700002DE9F04F93
:1048CC00B7B0EFF303806FF35F20A0F1100142F655
:1048DC00CC50C2F2000050F8217000917868396811
:1048EC000468006901F59855CDE90204F869079050
:1048FC00285D002878D024F0004808EB48000721F8
:10490C0001FA00F001904FEA841A0DF10C090DF137
:10491C00740B20462A5DD1074FEA400108D1386854
:10492C00120727D400F56B624FF4007305E000BF4B
:10493C0038684FF4006300F56162049352F821303B
:10494C0093FAA3F3B3FA83F3082B08D302EB810198
:10495C00496891FAA1F1B1FA81F101F1200303EB5D
:10496C000A01084490F8D01701F0F90180F8D0172B
:10497C001EE000BF029AD26902EB8101096BC904E7
:10498C004FF4006158BF4FF400510491D0F8B412A9
:10499C00019A114091FAA1F1B1FA81F100EB810079
:1049AC0001F12803D0F8E02122F01002C0F8E02138
:1049BC00BE69069356B1584631466822FBF710FC87
:1049CC00304649466822FBF70BFC00E04E467969FD
:1049DC0030468847B86918B159466822FBF700FC85
:1049EC00285D0028404695D146F20030009AC4F26A
:1049FC00000050F8221021F4803140F8221050F8B9
:104A0C00220037B0BDE8F08F2DE9F04FB7B0EFF3CF
:104A1C0003804FF480636FF35F20A0F1100142F626
:104A2C00CC50C2F2000050F821700191D7E900017E
:104A3C000968D0F8B022CDE9031302F03F0292FAD4
:104A4C00A2F2B2FA82F202F01F06032E88BF02F025
:104A5C00030242F0280106914FF48071D0F8A02295
:104A6C0001FA06F912EA090F029633D10DF10C087E
:104A7C0006F1280408F114060DF1740A2146324699
:104A8C0000F034FE039842F6C451C2F2000151F812
:104A9C0020B0DBE90650079055B1504629466822F4
:104AAC00FBF79EFB284641466822FBF799FB00E08A
:104ABC004546DBF8141028468847DBF8180018B177
:104ACC0051466822FBF78CFB3868D0F8A01211EA2B
:104ADC00090FD3D0029900EB8100D0F8E01121F03E
:104AEC000801C0F8E0113868D0F8B00260B946F29D
:104AFC000030019AC4F2000050F8221021F48031E9
:104B0C0040F8221050F8220037B0BDE8F08FF0B515
:104B1C00B5B0EFF303806FF35F20A0F11005032D08
:104B2C0033D142F6C450C2F20000066801A80C3022
:104B3C005C21FBF76EFB4FF48050029031684FF014
:104B4C007040D1F8902000EA023000EB024092074E
:104B5C0003904FF00000C1F890000FD53168D1F8E8
:104B6C00A82292FAA2F2B2FA82F201EB820104922A
:104B7C00D1F8E02022F00402C1F8E020D6E9064189
:104B8C000190059104BB01AC2AE042F6CC50C2F274
:104B9C00000001AF50F8256007F114005421FBF719
:104BAC0038FB4FF480700290D6E90001096800EBE5
:104BBC000110C26892B203920022C260D6E906408C
:104BCC0001910492059054B11BA821466822FBF771
:104BDC0007FB01A920466822FBF702FB00E03C46DC
:104BEC00716920468847B06918B11BA96822FBF788
:104BFC00F7FA46F20030C4F2000050F8251021F408
:104C0C00803140F8251050F8250035B0F0BD00007B
:104C1C002DE9F04FB5B040F2000BC4F20B0BDBF8F2
:104C2C00AC0290FAA0F0B0FA80F2072A53D84FF4F5
:104C3C00806042F02005029004950120DBF8A01260
:104C4C0000FA02F4214200923CD1009846F208018D
:104C5C000BEBC0100DF16C0900EB010A01A800F17F
:104C6C00140700BFDAF800002946C0F301203A46C9
:104C7C000190584600F03AFD019842F6C451C2F238
:104C8C00000151F82080D8E90660059056B14846DD
:104C9C0031466822FBF7A4FA304601A96822FBF7DB
:104CAC009FFA00E001AED8F8141030468847D8F8C7
:104CBC00180018B149466822FBF792FADBF8A002FB
:104CCC002042CFD000980BEB8000D0F8E01021F000
:104CDC000801C0F8E010DBF8AC0240B946F2103025
:104CEC00C4F20000016821F480310160006835B025
:104CFC00BDE8F08F80B584B042F65030C2F20000AF
:104D0C00016848F250030131016044F6B8510420A7
:104D1C00C2F20001CDE9000144F67D5042F2EC7C78
:104D2C00C0F200000CA1C0F200034FF48072C2F27A
:104D3C00000CCDF808C002F017FA42F2E871C2F28A
:104D4C000001086008B104B080BD0020002104B04F
:104D5C00BDE8804000F03DBF4461656D6F6E5461ED
:104D6C00736B0000FCF7B6F90A2001F095FCF9E72B
:104D7C0010B5044600F0FCFE2046BDE81040FFF7DD
:104D8C00F1BF000090ED040A9FED1E1A90ED192A58
:104D9C0020EE010AB0EEC21AB4EE401AF1EE10FA8F
:104DAC002EDB90ED1C0A9FED181AB0EEC02AB4EE63
:104DBC00412AF1EE10FAB8BF704790ED0C1A30EEA4
:104DCC00411A81EE000A9FED111AB0EEC00AB4EE42
:104DDC00410AF1EE10FADEBF0021C0E92011704744
:104DEC00D0E9201240F2F513013142F10002CB1A46
:104DFC0072F10003C0E9201224BF0121C0F8881011
:104E0C00704700BF6F12833A17B7D1383333733FF3
:104E1C007047FFF7FDBF4021C4F2090101F50121E4
:104E2C00002804BF4021C4F209014BF6FF70088032
:104E3C0070474021C4F2090101F50121002804BF8B
:104E4C004021C4F209014FF6F770088070474021E9
:104E5C00C4F2090101F50121002804BF4021C4F26C
:104E6C00090108887047012818BF704741F20210E9
:104E7C00C4F21100018841F480410180704780B573
:104E8C0042F65030C2F200000021016042F60030C0
:104E9C00C2F2000042F6083201704FF48070C2F288
:104EAC000002012101F05CFD42F60431C2F2000166
:104EBC00086018B90020002100F08BFE00F008F803
:104ECC00FFF718FF00F006FE01F078FC002080BD13
:104EDC0080B584B042F65030C2F20000016848F24E
:104EEC0028230131016045F2B8110120C2F2000102
:104EFC00CDE9000144F6617043F2603CC0F2000061
:104F0C000CA1C0F200034FF48062C2F2000CCDF889
:104F1C0008C002F029F943F25C31C2F200010860CA
:104F2C0008B104B080BD0020002104B0BDE8804071
:104F3C0000F04FBE4D6F746F724374726C5461739A
:104F4C006B000000FDF7F4FFFBF7D4FC012001F02F
:104F5C00A3FBF7E710B5044600F00AFE2046BDE8B7
:104F6C001040FFF7EFBF2DE9F04381B00E4644F639
:104F7C00A851C2F200010D6843F2CC41C2F200010B
:104F8C00D1F8008043F2D44143F2C444C2F2000190
:104F9C00C2F20004D1F8009021680746081D01F008
:104FAC003CF9781C16D1AEB144F68050C2F2000028
:104FBC00D0E90012236801319A6093682768FB607E
:104FCC00276804375F6023680433936022680160AC
:104FDC00506117E02068ED194560206800F104016C
:104FEC0005D3484601B0BDE8F04301F061B9404635
:104FFC0001F05EF944F60050C2F2000001688D42E7
:10500C0038BF056001B0BDE8F08300002DE9F04722
:10501C00044601F06AF944F2B470C2F2000001686F
:10502C0043F2C44701310160C2F20007396844F60B
:10503C00745A43F2DC46C2F2000AC2F2000651B1C5
:10504C00DAF8000000283DD13868E16AC06A88426D
:10505C0098BF3C6036E03C600068012832D10025E6
:10506C00701901F016F91435642DF9D144F6D048B5
:10507C00C2F20008404601F00CF944F6E449C2F2D1
:10508C000009484601F005F944F61050C2F2000040
:10509C0001F0FFF844F69450C2F2000001F0F9F868
:1050AC0044F68050C2F2000001F0F3F843F2CC4019
:1050BC00C2F20000C0F8008043F2D440C2F20000FB
:1050CC00C0F8009044F2C070C2F200000168231DC9
:1050DC000131016044F2C471C2F20001E06A0A6855
:1050EC00904288BF086000EB800006EB80014A68A4
:1050FC0061619568C4E90225936056F820206B60C5
:10510C00511C46F8201001F017F9DAF8000078B1BC
:10511C003868E16AC06A88420AD24EF60450CEF270
:10512C0000004FF080510160BFF34F8FBFF36F8FC2
:10513C00BDE8F08770B582B001F0D7F844F6AC56F4
:10514C00C2F20006306850BB44F6A844C2F2000418
:10515C00204601F09EF844F6BC45C2F200052846F4
:10516C0001F097F843F2C840C2F20000046043F229
:10517C00D840C2F2000043F2004243F2784305608B
:10518C0000250A20C2F200020C21C2F20003009595
:10519C0001F006FC306010B103A101F02BFA02B053
:1051AC00BDE8704001F0C8B8546D725100000000A9
:1051BC00F0B581B044F2B875C2F200052868E0B1D0
:1051CC0044F6945644F2B477C2F20006C2F20007D9
:1051DC0001F08BF8F068C468201D01F01EF83868E7
:1051EC000138386028680138286001F0A5F820469D
:1051FC0000F036F828680028EAD101B0F0BD70B58F
:10520C00866B036C044643B31546CAB1E0681A4674
:10521C00FAF7E6FFE168206C2268091A9142E16016
:10522C0003D2A16840420844E060A81EB0FA80F0A6
:10523C0040093146002E18BF01210840361A0CE0F7
:10524C0060681A46FAF7CCFFD4E90101226C1044CD
:10525C008842606001D320686060701CA06370BDE0
:10526C0010B5044690F85D00022808BF10BD012857
:10527C0003D038B9206B01F085F82046BDE810400A
:10528C0001F080B848F6C51103A0C0F2000141F648
:10529C002E12FFF73FF900BF70785443422D3E7534
:1052AC0063537461746963616C6C79416C6C6F638A
:1052BC0061746564203D3D202820282075696E743A
:1052CC00385F7420292032202900000043F2DC448E
:1052DC004EF60455C2F20004CEF200054FF0805693
:1052EC00FFF766FF2068022804D32E60BFF34F8FB0
:1052FC00BFF36F8F00F0C1FFF2E700002DE9F0471C
:10530C000A9F8246089C386B984669B107F13403B2
:10531C00002600BF8D5D9D551DB10F2E06F10106B7
:10532C00F8D1002187F84310052C21D200EB820024
:10533C00DDF82490043820F00706381DFC6200F0DC
:10534C00B3FF07F1180000F0AFFFC4F10500396B93
:10535C00B8613046524643463F617F6200F0B1F976
:10536C00B9F1000F386018BFC9F80070BDE8F087BC
:10537C0048F6C51103A0C0F2000140F26472FFF7B9
:10538C00C9F800BF75785072696F72697479203CE6
:10539C0020283529000000008C46014641F804CF36
:1053AC009445006108D943F2C8409A42C2F2000009
:1053BC000AD29C450ED207E08069D21A824209D2E9
:1053CC0043F2D840C2F2000080B5006800F070FFD4
:1053DC00002080BD0120704770B543F2C842C2F274
:1053EC00000212680646D2680D46D468201D00F0F3
:1053FC0014FF94F82400410704D400F0FA0084F858
:10540C00240004E0204631462A4600F005F8216AC3
:10541C002046BDE87040084770B5054680691446C3
:10542C000E460144284600BF3346FFF7B5FF48B18E
:10543C00A869296A064428468847A8692246811922
:10544C002846F1E770BD0000F0B581B0044601F0CC
:10545C000DFF43F2C046C2F2000631680546884291
:10546C000ED243F2C847C2F2000700BF3868016889
:10547C0041B1C0684FF0FF310068FFF7ADFFF5E7B1
:10548C00002007E043F2D841C2F200010A6808602C
:10549C0001203A6020602846356001B0F0BD000064
:1054AC0000BE00BFFEE7000084B043F2C84844F6DB
:1054BC00AC55C2F2000801ACC2F200054FF0000975
:1054CC00EB4600BFD8F80000D0F800A0BAF1000FEE
:1054DC001ABFC0680668002601F0CEF92046FFF717
:1054EC00B3FF019911B102F009F82DE00746BAF1AA
:1054FC00000F08D0BE4206D802F000F830463946FC
:10550C00FFF76AFF20E0BAF1000F01D0002208E09B
:10551C0043F2D840C2F2000000680068B0FA80F094
:10552C0042092868F11B01F094F801F0E7FF58B923
:10553C004EF604514FF08050CEF200010860BFF3DC
:10554C004F8FBFF36F8F00BF2868CDE90299CDF85C
:10555C00049000BF2146002201F030FC0028B1D09D
:10556C00019800284CD4039E706910B1301D00F0D6
:10557C0054FE5846FFF768FF0199013908293FD8B6
:10558C000746DFE801F005052C1C3F05052C1C0027
:10559C0096F82400029BB16940F0010086F82400C3
:1055AC00194430463A46FFF7F7FE48B396F8240004
:1055BC0041071BD400F0FA0086F824001DE096F891
:1055CC00240040F00101029886F82410B06108B361
:1055DC00C11930463A463B46FFF7DEFE10E096F81E
:1055EC00240000F0FE0086F8240009E00298B1695E
:1055FC003A4601443046FFF70FFF316A3046884780
:10560C002868A7E796F824008107EAD4304600F012
:10561C00B9FEF5E748F64E2103A0C0F200014FF4A5
:10562C008262FEF777FF00BF2820707854696D65A1
:10563C00722D3E7854696D6572506572696F64495C
:10564C006E5469636B73203E2030202900000000EB
:10565C00F0B581B0044600F048FE94F94560012E87
:10566C000EDB04F1240500BF286848B1284601F080
:10567C00CCFE08B101F048F870B2013E0128F3DC11
:10568C00FF2684F8456000F057FE00F02EFE94F9DA
:10569C004470012F0EDB04F1100500BF286848B1DF
:1056AC00284601F0B2FE08B101F02EF878B2013FA5
:1056BC000128F3DC84F8446001B0BDE8F04000F050
:1056CC003BBE283140F8481D45F2AD41C0F2000107
:1056DC004FF0807C22F00102C1636FF00201026482
:1056EC00C0F844C0C0E90913704700001F2904D852
:1056FC0000EBC11303F5005C04E000EBC113282997
:10570C0003F5A04C80B5DCF800E0CEF38073936019
:10571C00DCF8083003F0070313612EF060431360CC
:10572C004FEADE735360DCF804305FEA137E13A398
:10573C0013F80EE082F80CE009D00CF10C031432D3
:10574C0013F801CBBEF1010E02F801CBF8D11F29E1
:10575C00BDE8804006D8012202FA01F1C943C0F825
:10576C00B010704700EB810028294FF0FF012CBFCF
:10577C00C0F8A011C0F88010704700BF00010203F0
:10578C0004050607080C10141820304070B5D0E939
:10579C000042802901F00F03D2F800C043D204EB81
:1057AC000C14C90754F804EF02D11EF0040504D1FF
:1057BC00052B08BF1EF0010509D12568012666F3EB
:1057CC0002052560656805F00705012DFAD12568ED
:1057DC0025F007051D432560656805F007059D420A
:1057EC00FAD1002960D11EF003015DD011690CEBD8
:1057FC004C02C9694FF4907301EB820603EB8201F2
:10580C0006F13002002300BF066852F823500E4404
:10581C0056F8234005F00105254346F82350013383
:10582C00032BF1D140E0D4F888205FEAC17E02F06E
:10583C00010118D0B9B93024026852F8245025F06F
:10584C00010542F824500134382CF5D1482400BF0E
:10585C00026852F8245025F0010542F82450013416
:10586C004E2CF5D10468D4F8882022F007021A4394
:10587C00C4F88820D4F88C2002F007029A42F9D19F
:10588C00BEF1000F10D179B1416800220969C969D4
:10589C00083100BF036851F8225003EB8203013238
:1058AC00082AC3F8C050F5D1016801EB0C11496806
:1058BC0001F00701C16070BD01F10E0212F80B3C42
:1058CC00402B06D3B2F800C05FFA8CF343EA0C23EA
:1058DC00138012F80C3C10323F2BEFD845F21042DB
:1058EC00C4F2000208231370406840F20003C2F2B5
:1058FC00000343F8201018201070704770B5044650
:10590C00FEF736FF42F6943CEFF31080012181F351
:10591C001088C2F2000CDCF8001039B940F60351C3
:10592C00C4F2080100220A7040220A70DCF8001050
:10593C000131CCF8001080F31088208818B340F6A1
:10594C00000E0021C4F2080E606800EBC10250F892
:10595C0031305268DD034FEA1220D2B20BD50EEB78
:10596C00801555F8226026F4803645F8226023F421
:10597C00803645F822600EEB8010013140F8223061
:10598C0020888142E0D30120EFF3108180F310884E
:10599C00DCF8000020B1DCF800000138CCF8000085
:1059AC00DCF8000038B940F60350C4F208000022BD
:1059BC0002708022027081F3108870BDB0B584B083
:1059CC000446806A40B1D0E900CED0E90253CDE95B
:1059DC0000CECDE9025300E06846E369D4F824C058
:1059EC001B78E56AC0E90032C0E90215E047A06AFD
:1059FC0010B19DE82E002EC004B0B0BD10B5D1F88A
:105A0C0004C00478DCF800E0136014B103F10C045A
:105A1C001460C069406858B99EF8030000F0CF00CC
:105A2C0010308EF80300D1F804C003F10B001060A5
:105A3C008A68086812686146BDE81040104700008B
:105A4C00074801680A6802CA81F30B88B2E8F04F74
:105A5C001EF0100F08BFB2EC108A82F30988704751
:105A6C00C434002088B14EF20C00C4F20100B0F92D
:105A7C000010B1F1FF3F09DDBFF34F8F30BFBFF313
:105A8C006F8F62B6BFF36F8F72B6704780B54EF2F0
:105A9C00FE32C4F20102B2F800E04AF2025CCFF628
:105AAC00FF7C0023A2F800C003804EF42543138032
:105ABC00BFF34F8F30BFBFF36F8F62B6BFF36F8FE3
:105ACC0072B61388A2F800C0018043F42540108000
