:020000040000FA
:10000000E015002041680000814F0000E118000069
:10001000E1180000E1180000E1180000E1180000FC
:100020000000000000000000000000004D6800001B
:10003000E1180000000000006D530000AB690000F3
:1000400073730000217100006D7200007373000073
:1000500075740000D9840000F1850000A5850000BA
:1000600067840000D9840000F1850000A5850000A8
:1000700067840000D9840000F1850000A585000098
:1000800067840000458A0000798A0000018A000028
:10009000238A0000D9840000F1850000A5850000B6
:1000A0006784000000000000000000000000000065
:1000B000FFFFFFFF0000100800000000000000002C
:1000C0000000000000000800000000000000000028
:1000D000000000004000A100030B00000000000031
:1000E000037400000273000002730000027300003A
:1000F000027300000273000002730000027300002C
:1001000002070000050500000370E0000571C00053
:1001100000606000006060000060600000606000DF
:1001200000000000801B0020A81B0020981B00205E
:10013000281B0020AC1B00208C1B0020901B0020E3
:10014000841B0020881B0020B01B0020941B002073
:1001500000000000000096420000D24200000000B3
:1001600000000000000000004D6573736167655F6B
:100170004D616E61676572000000000000000000C4
:10018000000000000000000000000000000000006F
:100190000000000000000000010000001D00000041
:1001A0000A00000004000000010000000E00000032
:1001B000050000000100000078B900000000000008
:1001C0000100000000000000003E00006801002067
:1001D000010000009800002000000800000000005E
:1001E00000000000000000000000100800000000F7
:1001F00000000000000000004000350040003D000D
:1002000000000800000000000000000000000000E6
:020000040000FA
:1002100040EA01039B0703D009E008C9121F08C088
:10022000042AFAD203E011F8013B00F8013B521E08
:10023000F9D27047D2B201E000F8012B491EFBD27F
:1002400070470022F6E710B513460A4604461946E1
:10025000FFF7F0FF204610BD10B5002200E0521C51
:10026000835C8C5CA34201D1002BF8D1D8B2E1B2FF
:10027000401A10BD034611F8012B00F8012B002A8B
:10028000F9D1184670470246014400E0521C8A42E8
:1002900002D21378002BF9D1101A704710B54843D9
:1002A00004460AF09DFF002805D00021002C02D052
:1002B000641E0155FAE710BD2DE9FE4F804681EA24
:1002C0000300C00F0C46009021F0004123F00045D0
:1002D000B8EB0200A94105D24046214690461C4693
:1002E0000B46024623F00040104347D0270DC7F3CA
:1002F0000A00C3F30A510290401A019040286BDAB9
:10030000C3F3130040F4801B0098924620B10023F1
:10031000D2EB030A63EB0B0B01985946C0F1400284
:10032000504600F0F9F906460D4650465946019AE6
:1003300000F011FA10EB08006141002487EA115225
:1003400084EAE7731A4340D0009A62B3019A012A03
:100350004FEA075215DC001B61EB02014FF000422F
:1003600002EA0752CDE90042001C41F580113246F5
:100370002B4600F048FA03B0BDE8F08F4046214616
:10038000F9E7001B61EB0201001C41F58013001826
:100390005B412018A2F5001747EB030140EAD57036
:1003A000B6196D4111E06D084FEA360645EAC07591
:1003B0004FEA0752001B61EB0201001C41F580115E
:1003C00049084FEA30000019514132462B4603B02C
:1003D000BDE8F04F00F008BA009801224000002369
:1003E000D0EB020263EBE073009821464FEAE07421
:1003F000B8EB000061EB0401E9E783F000435BE741
:1004000081F0004158E72DE9FE4F81EA030404F032
:10041000004421F0004100944FF0000B23F0004312
:1004200050EA01045ED052EA03045BD0C3F30A54DD
:10043000C1F30A552C44A4F2F3340194A0FB0254F6
:10044000C1F3130141F48011C3F3130343F4801388
:1004500001FB024400FB034E840A970A44EA8154DC
:1004600047EA8357A4FB076802958D0A05FB0785B9
:100470004FEA932C04FB0C542705029D4FEA0658C3
:1004800047EA1637B5EB08056EEB070C870E920EA0
:1004900047EA811742EA8312A7FB0201B6EB0B0180
:1004A00064EB00042B0D43EA0C335E1844EB1C5044
:1004B000DA465146E7FB0201C5F313044FEA0B335A
:1004C00043EA14534FEA0432019C43EA0603A4F1C1
:1004D0000C040294009CCDE900B400F094F903B040
:1004E000BDE8F08F00200146F9E72DE9F04D81EAE3
:1004F000030404F0004B21F0004514464FF0000ABD
:1005000023F0004150EA050220D054EA01021DD038
:10051000C5F30A570246C5F31303C1F31300C1F331
:100520000A5640F4801543F48013A7EB0608101B0D
:10053000D64608F2FD3873EB050002D308F1010836
:1005400001E092185B41B8F1000F03DA0020014688
:10055000BDE8F08D00204FF48011064684460EE081
:10056000171B73EB050705D3121B63EB050306434B
:100570004CEA010C49084FEA300092185B4150EAFE
:100580000107EDD152EA030012D082EA040083EAA7
:100590000501084305D0101BAB4106D20122002300
:1005A00006E000224FF0004302E06FF0010253101A
:1005B0001AEB06004CEB085110EB0A0041EB0B0163
:1005C000BDE8F04D00F010B930B5041E71F1000423
:1005D00004DB4FF00044404264EB0101141E73F150
:1005E000000405DB1C464FF00043524263EB04035A
:1005F000801A994101D3012030BD002030BD30B5B3
:10060000041E71F1000404DB4FF00044404264EB2F
:100610000101141E73F1000405DB1C464FF000437A
:10062000524263EB0403101A8B4101D2012030BD0A
:10063000002030BD30B5041E71F1000404DB4FF022
:100640000044404264EB0101141E73F1000405DB19
:100650001C464FF00043524263EB0403101A8B41D7
:1006600001D3012030BD002030BD30B5041E71F132
:10067000000404DB4FF00044404264EB0101141E0F
:1006800073F1000405DB1C464FF00043524263EB5C
:100690000403801A994101D2012030BD002030BDF1
:1006A0000EB540F2334102910021CDE900110A4616
:1006B0000B4600F0A8F803B000BD00F0004230F097
:1006C00000400AD0C10D01F56071C0F3160042EA86
:1006D0000151C2084007114370470020014670478E
:1006E00001F0004330B421F0004150EA010206D08D
:1006F0000A0DA2F56072C1F31301002A02DC30BCBE
:1007000000207047440F44EAC104C100E01830BC27
:1007100000EBC25000F031B8202A04DB203A00FA86
:1007200002F1002070479140C2F1200320FA03F348
:10073000194390407047202A04DB203A21FA02F046
:100740000021704721FA02F3D040C2F1200291400B
:10075000084319467047202A06DBCB17203A41FA96
:1007600002F043EAE07306E041FA02F3D040C2F13E
:10077000200291400843194670470029A8BF7047DE
:10078000401C490008BF20F00100704710B4B0FAC7
:1007900080FC00FA0CF050EA010404BF10BC704762
:1007A00049B1CCF1200421FA04F411FA0CF118BF7C
:1007B000012121430843A3EB0C01CB1D4FEA00614B
:1007C0004FEA102042BF002010BC704700EBC3501E
:1007D00010440029A4BF10BC7047401C490008BF4A
:1007E00020F0010010BC704710B5141E73F1000416
:1007F00008DA401C41F1000192185B411A4301D113
:1008000020F0010010BD2DE9F04D92469B4611B13C
:10081000B1FA81F202E0B0FA80F220329046FFF79E
:100820007BFF04460F4640EA0A0041EA0B015346AB
:100830005A46084313D0114653EA010019D0C8F1B3
:1008400040025046FFF777FF05460E465046594690
:100850004246FFF761FF084305D0012004E020462F
:100860003946BDE8F08D0020054346EAE0762C438A
:1008700037430A986305E40AA0EB08000022FD0A4A
:1008800044EA47540A3002D500200146E9E7010551
:1008900010196941DDE9084500196941BDE8F04DCD
:1008A000A2E72DE9F04D00231A461B1A8A4103DB0B
:1008B00000200146BDE8F08DC1F30A52C1F31301D7
:1008C00041F480154FF0000BD10702D100186D41A3
:1008D000521E0027044640F2FF11384601EB620A1F
:1008E0003E468046024600204FF48011FFF723FF6A
:1008F000C2197141BB1846EB0100B4EB030C75EB58
:10090000000C04D3E41A65EB000517460E462419C3
:1009100008F101006D4180463428E3DDF91946EB0A
:100920000600091BA84103D24FF0FF32134601E035
:10093000002213461BEB070046EB0A51BDE8F04DC1
:10094000FFF752BF30B5041E71F1000404DB4FF015
:100950000044404264EB0101141E73F1000405DB06
:100960001C464FF00043524263EB04038B4208BF26
:10097000824230BD0EB5C10F80EAE0700844CA075C
:10098000002140F233438DE80E000A460B46FFF784
:100990003AFF03B000BD70B5C1F30A5201F0004543
:1009A0000024C1F3130140F2FF3341F480119A4255
:1009B00001DA002070BD40F233439A42A2F2334282
:1009C00003DC5242FFF7B7FE00E090402C43F1D029
:1009D000404270BD2DE9F041044600284FF0000070
:1009E0002DD041F2A865C2F2000529780F2926D83A
:1009F00041F2A468C2F20008D8F8000008B3012050
:100A00008421FFF74BFC10B394E8CE00C0E90663E5
:100A1000C0E900122978D8F800304A1C64692A70AD
:100A200041F2AC62C2F20002002B0762C0F88040C3
:100A300042F8210018BFBDE8F081C8F80000BDE809
:100A4000F081D4E9000105F0CDF80028D7D00020CE
:100A5000BDE8F08110B584B0CDE9010140F69520E4
:100A6000C0F200001C22039068468DF8002006F0BA
:100A70009DF841F2A06141F22464C2F20001C2F289
:100A80000004086020461C21FFF7DBFB204604B071
:100A900010BD000041F2A060C2F200000168002910
:100AA00065D02DE9F04F87B042F2286291F800310D
:100AB000C2F20002108863B142F22A65C2F2000558
:100AC00011F8017B86B20130013BC0B2AF55F7D1BE
:100AD000108042F22A71C2F200010A88801AC1B263
:100AE0001C2941D34FF6E47404F1170742F22A603F
:100AF0001FFA87FE41F224696B46C2F2000004F13E
:100B00001B08C2F2000900BF96B20027F419E4B234
:100B1000045DDC5501371C2FF8D19DF80060AA2E2A
:100B20004FF0010614D1BDF81A707745474610D131
:100B30009DE8D0000DF10C0C9CE8201C89E8D00049
:100B400009F10C041C264FF6E47784E8201C00E031
:100B5000474639448FB232441B2FD2B2D4D842F226
:100B60002A70C2F20000028007B0BDE8F04F704763
:100B7000B0B50A464FF00004B1B10146A0B141F250
:100B8000A065C2F20005286870B190F810315BB919
:100B9000012480F81041D0F8040105F012FE18B1CC
:100BA0002868002480F810412046B0BD80B541F28D
:100BB0005460C2F200005A21017041F62C21C2F2A9
:100BC00000018A6ACB6BC0F801208A6FD1F850C04F
:100BD000D1F864E0C0F80530D1F88C30C0F81120AD
:100BE0000022C0F809C0C0F80DE0C0F8153000BF01
:100BF0008B1893F8393023B11432782AF8D10121B7
:100C000000E000214FF6FB7241761C214283BDE8D3
:100C10008040FFF7ADBFFFF7DDBE70B5044644F876
:100C20002C1F06460020082B1D46C4E90100206148
:100C300028BF0825257332B12BB106F140001146BB
:100C40002A46FFF7E5FA30682921224605F07AF9AD
:100C5000B0FA80F0400970BD10B52DED108B91ED0C
:100C6000008A91ED019AB0EE480A91ED02AAD0ED0A
:100C70000A8AD0ED0BBA90ED0CEA90ED0DBA14464D
:100C800009F0B2FC2EEE000A30EE2B0A30EE68CAF4
:100C9000B0EE480A09F0B4FDB0EE408AB0EE490A61
:100CA00009F0A2FC2EEE000ABEEE00DA30EE2B0AAE
:100CB00030EE680A60EE0D9AB0EE490A09F094FC35
:100CC0002EEE000A9FED771A30EE2B0A30EE680AFE
:100CD00020EE01FAB0EE490A09F092FDB0EE409A1A
:100CE000B0EE4A0A09F080FC2EEE000A30EE2B0A24
:100CF00030EE680A60EE0DAAB0EE4A0A09F074FC04
:100D00002EEE000A9FED681A30EE2B0A30EE680ACC
:100D100060EE018AB0EE4A0A09F072FD39EECC3A73
:100D20003AEECC1A23EE284A21EE0F5A9FED5F6A65
:100D300034EE452A0020B0EEC27AB4EE467AF1EEE7
:100D400010FAC0F2AC8035EE444AB0EEC45AB4EEAC
:100D5000465AF1EE10FAC0F2A2802AEEAA5A2CEE00
:100D60004C6A2EEE007A35EE060A27EE075A69EE37
:100D7000A90A35EE005A2EEE080A6EEE091A30EE78
:100D8000866A61EEA10A60EE402A30EE866A32EE93
:100D9000855A68EEA80A32EE866A6FEE0F2A30EEA8
:100DA000855A71EEC00A30EE477A32EE866A6FEEEF
:100DB000072A68EEA03A23EE077A61EE200AF6EEE3
:100DC000001A26EE216A73EEA21A25EE0D5A30EEB5
:100DD000877A6FEE050A63EE052A87EE043A81EE04
:100DE000825A28EE867A21EE061A37EE206A31EE14
:100DF000227A86EE021A87EE042A23EE034A25EEB3
:100E0000056A73EE031A36EE044AB7EE006A34EE52
:100E1000064A3CEE416A22EE027A66EE060A61EE6E
:100E2000821A30EE877A70EE000A20EE000A71EE28
:100E3000A00A30EE070AB8EE007A25EE077A6BEECC
:100E40000B1A27EE066A31EEC07AB1EE000A64EEA4
:100E5000001A36EE200A21EE876A20EE007A37EE7D
:100E6000066AB5EE406AF1EE10FA18DBB1EEC66A1A
:100E700034EE044A012030EE060AB1EE400A80EE5C
:100E8000040A25EE004A23EE003A34EE011A33EE4E
:100E9000022A84ED001A84ED020A84ED012ABDECD9
:100EA000108B10BDD7B35D3FD7B35DBFBD3786355F
:100EB00010B542F2A451C2F200010968044651B1D2
:100EC000084694B104F004FD42F2A850C2F20000BA
:100ED000006838B913E042F2A850C2F2000000687E
:100EE00068B154B100F0F4F809E004F098FD42F262
:100EF000A850C2F20000006808B100F0BCF942F24C
:100F0000AC50C2F20000006820B124B1BDE810402E
:100F100000F0DEB810BDBDE8104000F0ACB9000034
:100F20002DE9F0472DED028B41F68A74C2F20004E0
:100F30002078002800F0AE8041F6A8099FED638A72
:100F400042F2E87A4FF00008C2F20009C2F2000A49
:100F5000002500BF59F82560D6E9080196ED7E0A04
:100F6000B1EE401A012941FE000A410716D5F16988
:100F7000042913D1F06A012805D1B06B002808BFFD
:100F800006F1140001E006F1140090ED000A06F5E8
:100F9000B47004F075F8306AF0EE400A800720D58E
:100FA000307F10F0060F1CD096F83400800705D56E
:100FB000306C18B190ED000A70EE800A306B012899
:100FC00005D1F06B002808BF06F10C0001E006F126
:100FD0000C0090ED000A06F1D80004F051F8F0EE94
:100FE000400A96F83400C00705D0706C18B190ED37
:100FF000000A70EE800A96F82000C0070BD0B6F900
:10100000100000EE100A06F14800B8EEC00A04F025
:1010100037F8F0EE400AD6F80002022808BFD6EDF5
:101020007E0A96ED160AB06AB1EE601AB5EE400A75
:10103000012801FE201AF1EE10FA96F8080230FE9F
:10104000080A00EB401180FE480A96F80902B4EE47
:10105000401AB1EE402A0AEB810181FE021AF1EE3C
:1010600010FA30FE010A01EB4003BDEEC00A10EE9B
:10107000102A170A83F8247083F82520D6F8102246
:101080001AB940000844A0F8248020780135854230
:10109000FFF460AF42F2E87442F674160025C2F223
:1010A0000004C2F2000600BF705D30B1E16904F1D6
:1010B000240220460823FFF7B0FD0135032D04F17B
:1010C0008404F1D1BDEC028BBDE8F08700FEFF4641
:1010D00010B10121C0F8101270472DE9F04184B021
:1010E00000284FF0000400F0B98041F68A78C2F27F
:1010F0000008054698F800000B2800F2AF80012098
:101100004FF40871FFF7CAF8002800F0A6800446E3
:10111000D5E92E10D5E928CE05F1A807CCCFC4F823
:101120000C0204F12400CCC0616304F1480005F115
:101130001001C4E907CE04F0F3F804F1D80005F17A
:10114000400104F0EDF804F5B47005F1700104F00D
:10115000E7F895E80F0004F1380C8CE80F00D4F89C
:101160000C32D5F8C810DA1E05F1C0004E1E022A56
:101170004FF0000207D2F3B2042B38BF012213460E
:1011800040F201220BE0022B10D1F2B20023032A1D
:1011900088BF0123042A4FEA430340F2052252FA92
:1011A00086F228BF4E1F1146324600E0002342F669
:1011B0007417C5F8CC1041F20D71C2F20007012678
:1011C000C0F20001FE5484F8092284F80832C5E90F
:1011D0003441FFF720FDC4F80402D8B3054698F85F
:1011E0000000E8B942F2E876C2F2000630464FF459
:1011F000C671FFF726F8D5E9000140F2FF12F2614F
:10120000C6E90001C6E921014FF40070C6F8A0004C
:10121000D5E90001C6E9420140F2FF20C6F82401E9
:101220000220019041F26520C0F20000CDE90204E5
:1012300001A800F010FA98F800200121C4E98410F8
:10124000501C88F8000041F6A800C2F2000040F8E7
:10125000224003E0204608F0CFFE0024204604B0E0
:10126000BDE8F08110B10021C0F81012704708B13C
:1012700080ED7E0A704710B10021C0F8101270474F
:1012800008B1C0F800127047B0B5056A002D00F033
:10129000EE800446686808B100F009FA207A013847
:1012A000032800F2E280DFE800F002B12D696089D6
:1012B000A18900EE100AE08903EE101AB8EE400A88
:1012C0009FED711AB8EE433A04EE100A20EE010ABF
:1012D0009FED682A23EE013AB8EE444A80EE020AF6
:1012E00083EE023A24EE011A142081EE021A9FEDD9
:1012F000672A30EE020A33EE023A85ED030A85EDE5
:10130000043AADE06089B42100FB01F09FED591A69
:1013100000EE100AA089B8EE400A4FF4B47180EED6
:10132000010A00FB01F0E28902EE100A02FB01F063
:10133000B8EE422A03EE100A82EE012AB8EE433AD2
:1013400095ED124A83EE011A9FED4B3A342030EEB0
:10135000030A95ED113A30EE430A95ED103A85ED0A
:101360000E0A9FED460A32EE002A31EE000A32EEF6
:10137000431A30EE440A85ED0F1A73E0E17AA07A41
:10138000227B090160F30D31637B41EA121C7C2151
:101390009B0001EA5000617A62F38D23A27B40EA50
:1013A000C11043EA9213E17B00EE100A4FEA4C00B1
:1013B00062F30D2102EE100A580003EE100A4800F5
:1013C000B8EE400A9FED2A1A04EE100A80EE010AD8
:1013D000B8EE422AB8EE433AB8EE444A82EE012A09
:1013E00083EE013A84EE011ABFEE004A302030EE5F
:1013F000040A85ED090A32EE042A33EE043A31EE8E
:10140000040A85ED0A2A85ED0B3A2BE06089A18953
:1014100000EE100AE08903EE101AB8EE400A9FEDC4
:10142000181AB8EE433A04EE100A20EE010A9FEDB6
:10143000112A23EE013AB8EE444A80EE020A83EE06
:10144000023A24EE011A202081EE021A9FED0D2AA5
:1014500030EE020A33EE023A85ED060A85ED073AD0
:1014600031EE020A284480ED000A00202870B0BD49
:1014700000FC7F4600FF7F470000B4C2000034C379
:101480001F858B421F850BC23333EB4233336BC254
:1014900070B584B04FF00004B0B341F68C76C2F260
:1014A00000060546307802282ED801205021FEF78C
:1014B000F5FE40B30446C820019042F2ED20C0F290
:1014C0000000CDE9020401A800F0C5F8606041F217
:1014D0008920C0F20000C5E904402846FFF79BFBC5
:1014E000A06068B101203178207000202064481C81
:1014F000307041F21460C2F2000040F8214003E075
:10150000204608F079FD0024204604B070BD41F269
:101510001060C2F20000017801B1704781B0012172
:10152000017041F20401CEF200010968009141F21C
:101530000861C2F20001009A0B689A4206D241F299
:101540000C62C2F20002136801331360009A0A6051
:101550000021017001B0704741F2040041F2FC52D9
:10156000CEF20000C2F200020168126872B101EE10
:10157000102AB8EE411A20EE010ABCEEC00A10EEA5
:10158000102A00BF03685B1A9342FBD3704780B5F3
:101590002DED028B82B041F20401CEF20001096808
:1015A000019101990268891A00EE101A41F2FC516A
:1015B000C2F2000191ED001AB8EE400AB8EE411AED
:1015C000019980EE018A0160FFF7A1FFB0EE480AA1
:1015D00002B0BDEC028B80BD4EF6FC51CEF2000194
:1015E0000A684FF0000C42F080720A6041F200017C
:1015F000CEF20001C1F804C00B6844F24022C0F2F0
:101600000F0200FB02F043F001020A6041F2FC51BC
:10161000C2F20001086044F6D351C1F26201A0FB9E
:101620000112910941F20062C2F2000211604DF60E
:101630008361C4F21B31A0FB0101880C41F20461FB
:10164000C2F20001086041F20C60C2F20000C0F872
:1016500000C0FFF75CBF70B5044600284FF00000E3
:1016600022D041F68976C2F2000635783F2D88BF38
:1016700070BD01201021FEF711FEB0B1D4E90112B6
:101680002388002BC26008BF642362884160691C04
:101690000380002A08BF6422317041F24471C2F213
:1016A0000001028141F8250070BD002070BD18B115
:1016B000018801810021817270470000F0B581B07E
:1016C00041F68974C2F200042078E0B141F2447618
:1016D0000025C2F20006012756F8251019B10A8923
:1016E00032B1013A0A8101358542F5D30BE000BFE2
:1016F0004A68002AF7D08B7A002BF4D1C8688F7221
:1017000090472078EFE701B0F0BD0000B0B5056A62
:10171000002D66D00446D5F8140208B1FFF7C7FFC4
:1017200005F50670FFF733FFA88885ED870A9FED62
:101730002D1A688021899FED2C3A09BA0A0C00EE17
:10174000102AAA80B8EE400A9FED284A20EE010A2E
:1017500095ED031A85ED020AC0EB1141628921EE75
:10176000041AD2BA02EE102AB5F91020B8EEC22A35
:101770009FED204A22EE032A9FED1D3A31EE021A18
:10178000B1F5805F85ED031A01EE102AA289B8EE4B
:10179000C11AD2BA02EE102A21EE041AB8EEC22AF9
:1017A00022EE032A31EE021ABDEEC11A11EE102A02
:1017B0002A82A07BA87402DDA869013804E0A86928
:1017C00011F5805F01DA0130A86101EE100A9FED8A
:1017D0000A2AB8EEC11A21EE021A31EE000A85ED8E
:1017E000050AB0BDACFF333D3433A3409899193E90
:1017F0006666663FD0CCCC3D0000B443B0B5056A08
:10180000002D5BD00446D5F8180208B1FFF74FFF52
:10181000A8689FED2B1A6860207A9FED2E2A287009
:10182000B4F8090000BA000C00EE100AB8EE400A45
:1018300020EE010A9FED231A80EE010A9FED221A85
:1018400030EE010A9FED211A85ED020AE07A217B34
:10185000000140EA111000EE100AB8EE400A20EE36
:10186000010A9FED1B1A80EE010A30EE020A9FED7D
:101870001A2A20EE020A85ED030A207B617B00F024
:101880000F0041EA00200B2100FB01F000EE100ADE
:10189000B8EE400A80EE010AB9EE061A30EE010AEF
:1018A0009FED0E1A85ED040AE08940BA00EE100A99
:1018B000B8EE400A20EE010A85ED050AB0BD00BF72
:1018C000B81EC9C100FF7F47B81E49410000C84289
:1018D00000F07F45000048C2E12E6542CDCCCC3DF2
:1018E00000BE704780B5C820FFF776FE41F27060F9
:1018F0004BF60811C2F20000C0F20001FFF7AAF88F
:1019000041F24061C2F20001086042F234404BF6FD
:101910005441C2F20000C0F2000105F09DF943F20B
:10192000A021C2F20001086042F2B0704BF6C8413B
:10193000C2F20000C0F2000103F052F842F294310A
:10194000C2F20001086009A04C2103F0CFFE41F66D
:101950002411C2F20001086007A0B42105F00AF8C2
:1019600041F62821C2F20001086080BD64756D6DEA
:10197000795F636D6400000064756D6D795F666505
:101980006564000080B541F62820C2F200000068BE
:1019900041F62C21C2F2000104F0D7FF03F086F9D2
:1019A00005F0A8F9FFF702F941F62410C2F2000091
:1019B000006841F62811C2F20001BDE8804003F042
:1019C00077BE00002DE9F047ADF5BF6D41F6D808B0
:1019D000C2F2000840464C21FEF733FC41F6741A6F
:1019E000C2F2000A5046B421FEF72BFC41F2047902
:1019F000C2F2000948464021FEF723FC42F6781067
:101A0000C2F200004021FEF71CFC6F4607F13000D7
:101A10004FF43271FEF715FC0020C3F6D070119020
:101A200044F2B310CBF6A67013904DF66F00C2F6D9
:101A3000B6000025129007F1500018211095FEF70E
:101A400000FC42F2FB1042F6185142F2FB12CBF6B8
:101A5000F970C5F24441C3F6F9721B901A91CDE9B1
:101A60001E10CDE92012CDE9221038461821FEF7CC
:101A7000E8FB44F26B30C3F6D770079041F21630A2
:101A8000C8F69B7006904BF65100C3F6AE700B90F3
:101A900041F6B860CEF685300A9041F26F20C3F669
:101AA000832024900020C4F27A4025900020002159
:101AB000C4F29620C4F2D22127907590CDE99F01FF
:101AC00001208DF80C018DF818018DF830018DF88A
:101AD000E8008DF8D0028DF89C028DF8F4024BF2EC
:101AE000A90028910021C4F2B720C4F20C31BF90A4
:101AF00047F2394042910021CCF2B1200022CCF2D1
:101B0000DC21C0900020C4F2343200234491002133
:101B1000C4F2D81076924FF07E52CBF68073C4F2A6
:101B20002021C1904CF6CD40509265926C927392F8
:101B30007A92CDE987238F9296929D9245910021CA
:101B40000022C4F2E610CCF20231C4F20232C2909A
:101B50004EF685304A91CDE938124FF48171C4F2C6
:101B60009710ADF890120021C39045F2B050CCF21E
:101B70000731C4F20E00A5910021C4900020C4F2E8
:101B8000E001C4F24830B5910021C59040F26D707B
:101B9000C4F2A001CCF23E30CDE9C60145F2EC1012
:101BA000C3F6B850C99045F62940C3F60F50C89007
:101BB0004CF28F20C3F6F550CA9043F67150C3F62D
:101BC0008A60CB9049F69A10CBF61960CC904DF212
:101BD0000A70CBF62340CD9043F23330CBF6B3609E
:101BE000CE904DF62330CBF6F950CDE9CF0542F635
:101BF0001B70C3F6DD505793CDE95D3381934FF0F1
:101C00008143D19049F69A10B8930023C3F6D97056
:101C10004B920022C4F24003D2904FF07F50CDE9A6
:101C20000855C4F2C002B9934FF08043BE95CDE988
:101C3000D300002041F69875B692CDE9BA32002261
:101C4000C4F27020C2F20005B791C4F2A012D59080
:101C500028463946BC9202F077F942F2583740F2F2
:101C60001011C2F20007C2F2000128463A4602F003
:101C70003DF92846394602F0ABF957480DF5A16504
:101C8000CDF8E00554A0071D8ECF4069CDF8E415CE
:101C90004BF25061CDF8E825CDF8F405C0F2000113
:101CA0002846D822CDF8EC35CDF8F075FEF7B0FA1D
:101CB0000DF586674BF22871C0F200013846D82234
:101CC000FEF7A6FAD6AE4BF60001C0F20001304690
:101CD000D822FEF79DFA284603F000FE42F2A455F2
:101CE000C2F2000528603846FFF7F7F942F2A8571C
:101CF000C2F2000738603046FFF7EFF9296842F278
:101D0000AC55C2F20005286011B1084603F01CFD75
:101D1000386810B10221FFF7B3FA286810B1022128
:101D2000FFF7AEFA0DF5BC60FFF7B2FB41F6907518
:101D3000C2F20005286028B1032100F004FB2868E6
:101D400000F0D8FA42F25832002040F20111C2F2FB
:101D50000002002352F8047B0AEB03061433782BAD
:101D60003187C6E90A7030637063F3D1D9E9044062
:101D70004FF48071D9E90076D9E9025EAAF8B01073
:101D800098E80E004FF0000CCAE90013CAE90840B9
:101D900017A0B421CAF8A0C0CAE9022CCAE9047687
:101DA000CAE9065E03F0A2FC41F6E021C2F200019E
:101DB000086012A04C2104F0DDFD41F6E421C2F2DE
:101DC0000001086041F69470C2F200000121017028
:101DD0000DF5BF6DBDE8F087A0230020ECBB00002F
:101DE00022000000220000000000000000000000AF
:101DF00064756D6D795F66656564000064756D6D11
:101E0000795F636D6400000041F69470C2F20000D7
:101E10000078012818BF70472DE9F04F87B041F6D0
:101E2000E420C2F2000041F6D8040068C2F20004C7
:101E3000214604F08AFD41F69078C2F20008D8F8F5
:101E4000000060B141F21161C2F200010A780A2A71
:101E500005D801320A2A0A7008BF00F06CFA20681F
:101E6000032800F29281DFE800F002A43C6F00201A
:101E70000025FFF71DF842F2583141F67410C2F206
:101E8000000140F20112C2F20000002351F8046B7D
:101E9000C7181433782B3A87C7E90A653D637D6319
:101EA000F4D141F204764FF48072C2F20006A0F839
:101EB000B020D4E9002EA768D6E9005406F108093D
:101EC00099E80A0276694FF0000CC0F8A0C080E8DB
:101ED0008440C0E903C5C0E90541C361C0E9089673
:101EE00053E100200025FEF7E3FFD4E906C2D4E960
:101EF0000837A66A42F25831E06AC2F20001C1E92D
:101F0000046041F67410C1E900C2C1E9023740F231
:101F10000112C2F20000002351F8047BC6181433EA
:101F2000782B3287C6E90A7535637563F4D1D4E935
:101F3000009E0021A368C0F8A0104FF480714FF0FC
:101F4000010CA0F8B0100CE10020FEF7B1FF04F185
:101F5000300042F6781490EC060AC2F200042046E3
:101F600001F096FAD4E9001241F20470C2F20000C6
:101F70000160A1684260E26881602169C2606269B3
:101F80000161A1694261E2698161216AC261626A9B
:101F90000162A16A4262E26A8162216BC262626B83
:101FA000C0E90C12D4E90E12C0E90E1204F05AFC7A
:101FB000EBE001200125FEF77BFF42F2A45BC2F2B9
:101FC000000BDBF80000002800F0AA8042F2A85ABB
:101FD000C2F2000ADAF80010002900F0A18042F2F3
:101FE000AC59C2F20009D9F80020002A00F098800C
:101FF000806891ED050A9FED6F1A92ED052A019018
:10200000D8F8000020EE010A22EE011A00218DED21
:10201000020A8DED031A04910591069128B1D0E9C9
:102020000D12C06B0690CDE9041242F6781641F607
:102030009870C2F2000641F2EC6341F2F867C2F216
:10204000000001A9C2F200033246C2F20007009765
:1020500001F0A8FA002863D0D6E9000241F2047129
:10206000C2F200010860B0684A60F26888603069B6
:10207000CA6072690861B0694A61F2698861306A50
:10208000CA61726A0862B06A4A62F26A8862306B38
:10209000CA62726B0863B06B41F2EC64C1E90D2057
:1020A000DBF80000F26BC2F20004CA6338B194EDB1
:1020B000000A9FED411A20EE010A03F0ACFCDAF8A9
:1020C000000098B194ED010A9FED3C1A20EE010A40
:1020D0009FED3B1A20EE010A9FED3A1A20EE010A0D
:1020E0009FED391A80EE010AFFF7C1F8D9F8000018
:1020F00000283FF45BAF94ED020A9FED341A20EE06
:10210000010A9FED2F1A20EE010A9FED311A20EEF1
:10211000010A9FED2D1A80EE010AFFF7A8F845E7A6
:1021200042F2583241F674100021C2F20002C2F2AB
:102130000000002352F8047BC6181433782B35872F
:10214000C6E90A7131637163F4D10021C0F8A010AF
:102150004FF48071D4E9009EA368A0F8B0104FF04E
:10216000030C41F20476C2F20006D6E90054D6E927
:102170000272D6E90416C0E90093C0E902ECC0E996
:102180000454C0E90672C0E90816D8F8000008B186
:1021900000F0B0F841F6E020C2F20000006841F61D
:1021A0007411C2F2000103F083FA07B0BDE8F04FEA
:1021B000704700BF35FA8E3CCDCCCC3EAAAAAAC54A
:1021C00000007A44713D8A3F00403944AAAAAA45DA
:1021D000CDCC8C3F41F68470C2F20000006841F61D
:1021E00064620021C2F20002117004F01DBD000003
:1021F00041F68470C2F200000168002975D02DE913
:10220000F04F87B041F6606291F80031C2F20002EF
:10221000108863B141F66567C2F2000711F8016BDF
:1022200085B20130013BC0B27E55F7D1108041F636
:102230006269C2F20009B9F80010401A5FFA80FA28
:10224000BAF11B0F4ED341F6656741F6687B6E46C7
:10225000C2F200074FF6FB78C2F2000B88B20022F0
:102260008318DBB2FB5CB35401321B2AF8D19DF812
:102270000000AA282CD1BDF81900404528D19DE8BE
:102280003D10AAF11B0A8BE81D00BDF8180041F6AD
:102290006462ABF818009DF81A00C2F200028BF8D5
:1022A0001A0001F11B00C1B241F65C60C2F20000ED
:1022B00000680123CBF81050CBF814C0A9F8001027
:1022C000137058B1FFF7F3F9B9F8001006E000BF3A
:1022D000481CC1B2AAF1010AA9F800101FFA8AF03D
:1022E0001A28BBD807B0BDE8F04F704708B10121EC
:1022F00001707047F0B18168E1B180B5C36CD1F86D
:102300001CE05A1E4FEA1E2C042A28BF0323CC22AD
:1023100081F824E081F825C081F8263081F8272053
:10232000806840F2FF6100F124020423BDE8804090
:10233000FEF773BC704728B1D0E90D13C26B8164FE
:10234000C0E91023704700B1C1647047000000006D
:102350002DE9F04F81B02DED108BD4B00C4600214B
:10236000002C2B90C0F8801100F08187002A00F02B
:102370007E871D46002B00F07A8792ED000B9FEDC3
:102380001A1B8DED260B92ED060B51EC110B8DED0A
:102390001C0B92ED0C0B92ED04EB8DED240BCDE9B3
:1023A000291095ED060B92ED0AAB8DED220B95ED04
:1023B000100B92ED10DBCA0F51EC100B9FED0C0BC4
:1023C00095ED122B1F9162F3DF718DED202B53ECF5
:1023D000102B95ED028B1E90FEF711F9002840F0AE
:1023E00046870DE000BF00BF0000000000000000B5
:1023F00095D626E80B2E113E95D626E80B2E11BE5B
:1024000095ED0A0B53EC1E2B58EC109B41464846A9
:10241000CDE91832FDF7F7FF94ED000B02460B46AD
:1024200051EC100B94ED02CB94ED04BBFDF7E5FFEE
:1024300053EC1A2B07460C4641EC190B4846414613
:10244000CDE93E32FDF7DFFF02460B4651EC1C0B97
:10245000FDF7D3FF53EC1D2B05460E4641EC1A0B3E
:1024600048464146CDE93A32FDF7CDFF02460B46DC
:1024700051EC1B0BFDF7C1FFCDE91A102846314680
:102480002A4633463D953C96FDF7BDFF06460D4670
:10249000384621463A46234641974094FDF7B3FF1C
:1024A00032462B46FDF708FF8DED528B82469DF894
:1024B0004F2159EC188B82F080008DF84F019DED73
:1024C00052FB8B464046494642464B46FDF79BFF32
:1024D00002460B4650465946FDF78FFF1FED3A0B5B
:1024E000054653EC102B0F46CDE90932FEF787F86D
:1024F000002840F0BC862A9C299E28463946224660
:102500003346FEF77CF800281CBF3746254647ECCB
:10251000105B08F03DFAB0EE40BAB0EE4A0AB0EEF9
:10252000491AF0EE60BAF0EE6A0AF0EE691A07F0A6
:10253000F7FEB0EE40CAB0EE480AB0EE4B1AF0EE2D
:1025400060CAF0EE680AF0EE6B1A07F0E9FE53EC91
:10255000102B51EC1C0BFDF750FFB0EE4A0AB0EE09
:10256000491AF0EE6A0AF0EE691ACDE9071007F091
:10257000D7FE8DED50BB9DF84701B0EE409A80F03C
:1025800080008DF84701B0EE480A9DED501BF0EE3B
:10259000609AF0EE680A07F0C3FE51EC190B53EC99
:1025A000102BFDF72AFFCDE90510DDE91A100B46C7
:1025B0000246FDF728FF52465B46FDF77DFEDDF83B
:1025C00078A0DDF87CB005460F4650465946524685
:1025D0005B46FDF718FF02460B4628463946FDF7D5
:1025E0000CFF9DED200B07460D4651EC100B0B46E2
:1025F000024639903891FDF706FF024637900B46A8
:10260000349138462946FDF7F8FE05460F4651EC51
:102610001F0B42464B46FDF7F6FE2A463B46FDF7AA
:102620004BFE9DED220B05468DED460B0F469DF8AA
:102630001F2182F080008DF81F0151EC100B9DEDE1
:10264000461B02460B468DED161BFDF7DCFE0446CD
:102650000E462846394622463346FDF7CEFE05464D
:102660000F465046594652465B46FDF725FE024648
:102670000B4628463946FDF738FF05460F4641EC24
:10268000100B379834998DED140B22463346FDF725
:1026900013FE04460E46284639462A463B46FDF7B9
:1026A000B2FE02460B4620463146FDF7A6FE2A9EA4
:1026B000299F32463B4604460D46FDF7A0FF8DEDAF
:1026C00048EB00289DF8271181F080018DF8271133
:1026D0009DED480B8DED120B8DED4ADB9DF82F0122
:1026E00080F080008DF82F019DED4A0B03958DED54
:1026F000100B08BF2F469DED260B8DED4C0B9DF862
:10270000370180F080008DF837019DED4C0B04946B
:102710008DED0E0B08BF26469DED240B8DED4E0B67
:102720009DF83F0147EC106B80F080008DED000BB1
:102730008DF83F019DED4E0B01208DED0C0B00BF80
:102740000B9010F00100079C059808BF0446089DF7
:10275000069808BF0546DDE90310DDE90932FDF7FB
:102760004EFF002840F07D859DED000B44EC1C5B86
:1027700008F00EF98DED2E0B8DED440B9DF8170131
:10278000012480F080008DF817019DED440B8DED44
:102790002C0B00BF9DED200B9DED221B07F0C0FD13
:1027A0009DED2C1B14F0010051EC110B9DED2E1B27
:1027B000B0EE408A52EC113B379404BF0A46034600
:1027C00042EC113BF0EE608A9DED140B07F0A8FD82
:1027D00053EC102B51EC180BFDF70FFE41EC1E0BC8
:1027E000CDE93301B0EE4E0AF0EE6E0A07F098FE26
:1027F000DDF878B0DDF87C8053EC102B584641466C
:10280000FDF701FEDDE93832FDF756FDB0EE4C0A6A
:10281000F0EE6C0ACDE9311007F082FEB0EE408A8E
:10282000B0EE4C0AF0EE608AF0EE6C0A07F084FF1E
:10283000DDE93C1053EC102BFDF7E5FDDDE94032FE
:1028400004460E4651EC180BFDF7DDFD22463346DB
:10285000FDF732FDB0EE4E0AF0EE6E0A81468A4672
:1028600007F06AFF53EC102B58464146FDF7CBFDAD
:102870009DED160B54EC106B23463246FDF71CFD04
:1028800002460B4648465146FDF7BDFD05460F463C
:10289000DDE93110DDF86C90DDF868A04A4653465A
:1028A000FDF7B1FD02460B4628463946FDF7A5FD6A
:1028B000B0EE4E0AF0EE6E0A41EC180B07F03CFF4A
:1028C00053EC102B58464146FDF79DFD32462346FA
:1028D000FDF7F2FCB0EE4C0AF0EE6C0A05460F462E
:1028E00007F01EFEB0EE409AB0EE4C0AF0EE609A91
:1028F000F0EE6C0A07F020FFDDE93C1053EC102BE2
:10290000FDF781FDDDE9403204460E4651EC190B1E
:10291000FDF779FD22463346FDF7CEFCB0EE4E0AB8
:10292000F0EE6E0A04460E4607F0FAFD53EC102B4B
:1029300058464146DDF8CC80FDF765FDDDE93832CB
:10294000FDF7BAFC02460B4620463146FDF75BFD1B
:1029500004460E46284639464A46349D5346FDF7FE
:1029600052FD22463346FDF7A7FCB0EE480A41EC83
:10297000110BF0EE680A07F0D3FC51EC100BB0EE2F
:1029800040BA42462B46F0EE60BAFDF736FD2A9E6D
:10299000299F0446894641EC180B40462946324699
:1029A0003B46FDF747FE58B99FED010B11E000BF14
:1029B000182D4454FB21F93FD221337F7CD912C01A
:1029C0004046294632463B46FDF7FEFD48B91FED1D
:1029D000060B53EC102B20464946FDF76DFC41ECED
:1029E000180BB0EE4C0AF0EE6C0A8DED348B07F04C
:1029F000A3FEB0EE408AB0EE4C0AF0EE608AF0EE34
:102A00006C0A07F08DFDDDF8FCA0DDF8F8B053ECA2
:102A1000102B50465946FDF7F6FC9DED120B53EC7A
:102A2000182B54EC105B06460F4628462146FDF74E
:102A3000EAFC32463B46FDF73FFCB0EE4C0AF0EEB6
:102A40006C0A41EC180B07F06BFD51EC100B2A4699
:102A50002346FDF7D8FCB0EE4B0AF0EE6B0A0446B5
:102A60000D4607F05DFDB0EE409AB0EE4C0AF0EE78
:102A7000609AF0EE6C0A07F05FFE53EC102B5046A4
:102A80005946FDF7C0FCB0EE4B0AF0EE6B0A064665
:102A90000F4607F045FD53EC102B30463946FDF745
:102AA000B2FC53EC192B06460F4620462946FDF78B
:102AB000AAFC32463B46FDF7A0FCB0EE4B0AF0EE16
:102AC0006B0A04460D4607F037FEDDE93A1053EC79
:102AD000102BFDF798FC22462B46FDF7EDFBB0EEE0
:102AE000480A41EC110BF0EE680A07F019FCB0EE51
:102AF000409AB0EE4C0AF0EE609AF0EE6C0A07F0E5
:102B00000FFDB0EE408AB0EE4B0AF0EE608AF0EEB8
:102B10006B0A07F005FD51EC180B53EC102BFDF779
:102B200072FCB0EE490AF0EE690A04460D4607F061
:102B3000F7FCB0EE408AB0EE4C0AF0EE608AF0EEA0
:102B40006C0A07F0F9FDB0EE40AAB0EE490AF0EECB
:102B500060AAF0EE690A07F0EFFD53EC102B51EC80
:102B60001A0BFDF750FC53EC182B06460F46204677
:102B70002946FDF748FC32463B46FDF79DFBB0EE8B
:102B80004C0AF0EE6C0A8046894607F0D5FDB0EE9F
:102B9000408AB0EE4B0AF0EE608AF0EE6B0A07F066
:102BA000BFFC51EC180B53EC102BFDF72CFCB0EED6
:102BB000490AF0EE690A06460F4607F0B1FCB0EE8E
:102BC000408AB0EE4C0AF0EE608AF0EE6C0A07F034
:102BD000A7FCB0EE40AAB0EE490AF0EE60AAF0EE13
:102BE000690A07F0A9FD53EC102B51EC1A0BFDF705
:102BF0000AFC53EC182B04460D4630463946FDF7C7
:102C000002FC02460B4620462946FDF7F6FB02462B
:102C10000B4650465946FDF7F6FBDDF864A0DDF89B
:102C200060B004460D465046594642464B46FDF7B5
:102C3000EAFB02460B4620462946FDF7DEFBB0EED6
:102C40004B0AF0EE6B0A04460D4607F075FDB0EE38
:102C5000408AB0EE490AF0EE608AF0EE690A07F0A9
:102C60005FFC53EC102B51EC180BFDF7CCFB9DEDEA
:102C7000100B02460B4651EC100BFDF7C4FB02464D
:102C80000B4620462946FDF7B8FBB0EE4C0AF0EEA5
:102C90006C0A41EC180B07F043FCB0EE40AAB0EE12
:102CA0004B0AF0EE60AAF0EE6B0A07F045FD51EC1E
:102CB000100B53EC1A2BFDF7A6FBB0EE4C0AF0EE0E
:102CC0006C0A04460D4607F037FD8DED420B9DF86A
:102CD0000F01B0EE4B0A80F080008DF80F01F0EE8E
:102CE0006B0ADDE9426707F027FD51EC100B324615
:102CF0003B46FDF788FB02460B46DDE93E10FDF73B
:102D000082FB06460F465046594622462B46FDF7A3
:102D10007AFB02460B4630463946FDF76EFBB0EEB5
:102D20004B0AF0EE6B0A04460D4607F0F9FBDDE9AD
:102D30003A1053EC102BFDF766FB02460B4620467B
:102D40002946FDF75AFBB0EE480A41EC110BF0EEB4
:102D5000680A07F0E5FAB0EE408AB0EE4C0AF0EEF1
:102D6000608AF0EE6C0A07F0DBFBB0EE40AAB0EE32
:102D70004B0AF0EE60AAF0EE6B0A07F0D1FB51ECC3
:102D80001A0B53EC102BFDF73EFBB0EE490AF0EEA8
:102D9000690A04460D4607F0CFFCB0EE40AAB0EE3B
:102DA0004C0AF0EE60AAF0EE6C0A07F0C5FCB0EE3B
:102DB00040DAB0EE490AF0EE60DAF0EE690A07F0A8
:102DC000AFFB53EC102B51EC1D0BFDF71CFB53EC30
:102DD0001A2B06460F4620462946FDF714FB3246BD
:102DE0003B46FDF70AFBB0EE4C0AF0EE6C0A824659
:102DF000894607F0A1FCB0EE40AAB0EE4B0AF0EE17
:102E000060AAF0EE6B0A07F08BFB51EC1A0B53EC47
:102E1000102BFDF7F8FAB0EE490AF0EE690A044605
:102E20000F4607F089FCB0EE40AAB0EE4C0AF0EE77
:102E300060AAF0EE6C0A07F073FBB0EE40DAB0EE79
:102E4000490AF0EE60DAF0EE690A07F069FB53EC2C
:102E5000102B51EC1D0BFDF7D6FA53EC1A2B05463F
:102E60000E4620463946FDF7CEFA2A463346FDF790
:102E700023FA9DED1C0B0B4651EC108B024640468D
:102E80003391FDF7C0FA9DED0E0B05460E4651EC51
:102E9000100B52464B46FDF7B6FA2A463346FDF76D
:102EA000ACFAB0EE4B0AF0EE6B0A05460E4607F0A0
:102EB00043FCB0EE40AAB0EE490AF0EE60AAF0EE94
:102EC000690A07F039FC53EC102B51EC1A0BFDF793
:102ED0009AFA9DED240B02460B4651EC100BFDF7C0
:102EE00092FA2A463346FDF7E7F9B0EE4C0AF0EEC7
:102EF0006C0A41EC1A0B07F013FBB0EE40DAB0EEAF
:102F00004B0AF0EE60DAF0EE6B0A07F009FB51ECC9
:102F10001D0B53EC102BFDF776FAB0EE490AF0EEDC
:102F2000690A05460E4607F0FBFAB0EE40DAB0EE4D
:102F30004C0AF0EE60DAF0EE6C0A07F0FDFBB0EE42
:102F400040FAB0EE490AF0EE60FAF0EE690A07F0D6
:102F5000F3FB53EC102B51EC1F0BFDF754FA53EC21
:102F60001D2B07460C4628463146FDF74CFA3A46DB
:102F70002346FDF7A1F9B0EE480AF0EE680A0546CF
:102F80000E4607F0CDFAB0EE40DAB0EE4C0AF0EEA5
:102F900060DAF0EE6C0A07F0C3FAB0EE40FAB0EE79
:102FA0004B0AF0EE60FAF0EE6B0A07F0C5FB51EC4D
:102FB0001F0B53EC102BFDF726FAB0EE480AF0EE8B
:102FC000680A04460F4607F0B7FB53EC102B204667
:102FD0003946FDF718FA53EC1D2B04460F462846D8
:102FE0003146FDF710FA22463B46FDF706FAB0EEF1
:102FF0004C0AF0EE6C0A81468B4607F09DFBB0EE62
:1030000040DAB0EE4B0AF0EE60DAF0EE6B0A07F051
:1030100087FA51EC1D0B53EC102BFDF7F4F9B0EED1
:10302000490AF0EE690A05460F4607F079FAB0EE54
:1030300040DAB0EE4C0AF0EE60DAF0EE6C0A07F01F
:103040006FFAB0EE40FAB0EE490AF0EE60FAF0EE38
:10305000690A07F071FB53EC102B51EC1F0BFDF7C5
:10306000D2F953EC1D2B04460E4628463946FDF78F
:10307000CAF922463346FDF7C0F9B0EE480AF0EE31
:10308000680A05460F4607F04BFAB0EE40DAB0EE9C
:103090004C0AF0EE60DAF0EE6C0A07F04DFBB0EE91
:1030A00040FAB0EE4B0AF0EE60FAF0EE6B0A07F071
:1030B00043FB51EC1F0B53EC102BFDF7A4F9B0EEC2
:1030C000480AF0EE680A04460E4607F035FB53EC5A
:1030D000102B20463146FDF796F953EC1D2B044684
:1030E0000E4628463946FDF78EF922463346FDF74F
:1030F00084F90B46339902464046FDF784F99DED6D
:10310000260B04460D4651EC100B4A465B46FDF774
:103110007AF922462B46FDF7CFF8B0EE4B0AF0EED7
:103120006B0A8046894607F007FBB0EE40DAB0EE46
:10313000490AF0EE60DAF0EE690A07F0F1F953ECB3
:10314000102B51EC1D0BFDF75EF9B0EE480AF0EEC6
:10315000680A05460F4607F0E3F9B0EE40DAB0EE34
:103160004B0AF0EE60DAF0EE6B0A07F0D9F9B0EE38
:1031700040BAB0EE480AF0EE60BAF0EE680A07F026
:10318000DBFA53EC102B51EC1B0BFDF73CF953EC25
:103190001D2B04460E4628463946FDF734F92246D3
:1031A0003346FDF789F89DED0C0B02460B4651ECBA
:1031B000100BFDF728F942464B46FDF77DF8B0EEBF
:1031C0004A0A41EC110BF0EE6A0A07F0A9F8B0EEDA
:1031D00040AA9DED34BBF0EE60AA2B9CB0EE4C0AE9
:1031E000B0EE4B1AB0EE4E2AB0EE493AB0EE484A75
:1031F000B0EE4A5A6E9E6F9DF0EE6C0AF0EE6B1ABE
:10320000F0EE6E2AF0EE693AF0EE684AF0EE6A5A95
:10321000204631462A46002300F032F8B0EE4C0A30
:10322000B0EE4B1AB0EE4E2AB0EE493AB0EE484A34
:10323000B0EE4A5AF0EE6C0AF0EE6B1AF0EE6E2A1F
:10324000F0EE693AF0EE684AF0EE6A5A20463146EE
:103250002A46012300F014F837980024C0077FF4B1
:1032600099AA0B98C0074FF000007FF469AA54B0E8
:10327000BDEC108B01B0BDE8F08F00000000000035
:10328000002800F0EF802DE9F04F81B02DED0C8B80
:1032900084B0D0F880618246072E00F3DD80B0EE66
:1032A00040CAB0EE420AF0EE60CAF0EE620AB0EE3A
:1032B000458AB0EE449AB0EE43AAB0EE41BA9946C0
:1032C00017460D46F0EE658AF0EE649AF0EE63AABA
:1032D000F0EE61BA01F078FEB0EE40DAF0EE60DABE
:1032E000002F5FD0002D5DD09FED5F0B51EC1D0BCB
:1032F00053EC102B06460191FDF785F89FED5C0B12
:1033000053EC102BFDF7F1F89FED5B0B834657EC68
:10331000108B3B4642460C46FDF756F918B94FF064
:103320000108019F12E05846214642463B46FDF700
:1033300081F9019F68B99FED520B304653EC102B79
:103340003946FDF792F920B14FF00008C5F800802A
:1033500006E0D5F80080B8F1000F18BF4FF0010863
:103360009FED470B584653EC102B2146FDF747F9CC
:103370009FED450B002818BF012053EC102B00F0E7
:10338000010430463946FCF797FF002C04BF39464C
:103390003046B8F1000F04BF3946304641EC1D0BF2
:1033A000DAF88061B0EE4C0A06EB4600F0EE6C0AEB
:1033B0000AEB001701F008FE87ED000BB0EE4B0A98
:1033C000F0EE6B0A01F000FE87ED020B87ED04DBE7
:1033D0009FED270B54EC1A5B58EC10BB2846214696
:1033E0005A464346FCF768FFB9F1000F04BF214677
:1033F000284641EC100B01F0E7FD87ED060B8DED43
:10340000029B9DF80F0053EC192B80F080008DF883
:103410000F00DDE90210B9F1000F1CBF0A46034698
:1034200043EC102B01F0D0FD55EC184B294687EDED
:10343000080B20465A464346FCF73EFFB9F1000F01
:1034400004BF2946204641EC100B01F0BDFD701C65
:1034500087ED0A0BCAF8800104B0BDEC0C8B01B0FB
:10346000BDE8F04F704700BF0000000000806640DC
:10347000182D4454FB210940000000000000644066
:103480000000000000000000182D4454FB211940EA
:10349000B0B10146012081ED000AB0EE620AC1ED33
:1034A000010A81ED021AF0EE420AB0EE611A81F8CB
:1034B0003C0001F118000C31C1EC031A00F002B815
:1034C00070470000002869D010B52DED0C8B9FEDE2
:1034D000342A044620EE028A20EE829AB0EE480A90
:1034E00021EE02AA07F080F8B0EE40BAB0EE480A2A
:1034F00007F086F9B0EE408AB0EE490A07F074F89A
:10350000B0EE40CAB0EE490A07F07AF9B0EE409A40
:10351000B0EE4A0A07F068F8B0EE40DAB0EE4A0AB8
:1035200007F06EF92BEE091A28EE0D2A21EE003A6B
:1035300021EE0D1A33EE422A28EE003A2BEE0C4A09
:1035400031EE031A28EE0C3A84ED021A84ED012ABA
:1035500028EE091A84ED033A84ED004A2BEE0D2A79
:1035600021EE003A2BEE004A21EE0D1A33EE022A2C
:1035700031EE441A2CEE000A2CEE0D3A84ED042AAA
:10358000B1EE492A84ED051A84ED062A84ED070A76
:1035900084ED083ABDEC0C8BBDE81040704700BFCD
:1035A00035FA8E3C2DE9F0412DED088B8AB00028CC
:1035B0004FF0000500F009810F46002900F0058159
:1035C0001646002A00F00181044690F8BC03012849
:1035D00040F0FB8094EDC12A9FED7F8A94EDBF0AF5
:1035E00094EDC01A94EDC23A22EE482A97ED004AB3
:1035F00097ED015A97ED026A20EE080A32EE44BABE
:1036000023EE082A21EE081A94EDC33A35EE400A5B
:1036100031EE461A23EE083A30EE42AA31EE439AD2
:1036200098468DED07BA07A98DED08AA04AA8DED7D
:10363000099A01AB20460695CDE9045503950295FC
:10364000019500F0D9F80546002800F0BE8094ED01
:10365000C10A9FED621A94EDC42A20EE010A32EEEF
:10366000000AB4EE40BAF1EE10FAC4BFD4F81C035D
:10367000049094EDBF0A94EDC51A94EDC22A31EE80
:10368000400A30EE420A20EE080AB4EE40AAF1EEFB
:1036900010FA07DD9DED050A9FED511A20EE010A93
:1036A0008DED050A94EDC00A94EDC61A94EDC32A77
:1036B00030EE410A30EE420A20EE080AB4EE409A9B
:1036C000F1EE10FA07DD9DED060A9FED451A20EE9A
:1036D000010A8DED060A9DED032A94EDCE5ADFED29
:1036E000421A35EE422A94EDD55A9DED021A94ED18
:1036F000CD4AB4EE615A34EE411A9FED3C4AF1EEE8
:1037000010FA4FF0010035FE044A97ED045AF1EE2D
:10371000441A86F83C00F4EE451A85FE445A06F138
:103720001800F1EE10FA31FE855A9DED010A85EE82
:10373000044A94EDCC3A94EDD07A94EDCF6AD4ED6E
:10374000D10AD4EDD31A30EE430A31EE471AD4ED44
:10375000D22A32EE062A30EE200A94EDD43A21EE37
:10376000215A97ED031A9FED1F6A9FED217A22EEF1
:10377000222A20EE033A31EE061A24EE074A9FED84
:103780001D6A97ED050A77EE440A22EE062A25EE19
:10379000064A23EE063A189C86ED002A86ED014A79
:1037A00086ED023A86ED031AC6ED040A86ED050A97
:1037B000FFF788FEB8F1000F03D004AA07CA88E813
:1037C000070014B101AA07CA07C428460AB0BDEC15
:1037D000088BBDE8F08100BF35FA8E3C35FA8EBC0F
:1037E0009A99993E00003443BD37863500007042F7
:1037F0000000B44200007A442DE9F04F81B02DED75
:10380000108BADF5287D00284FF0000A00F0628390
:103810000F46002900F05E839346002A00F05A8389
:103820001C46002B00F05683064600F53E704FF014
:103830000008A5AA3946CDF89C82CDE9A588FDF7F8
:103840000BFA8246002800F045839DEDA5CA9DED48
:10385000A6DA9DEDA7BA95A884ED00CA402184EDB3
:1038600001DA84ED02BAFCF7ECFC85A8142100F122
:103870001404FCF7E6FC4FF000404FF07E59CDE910
:103880008B0875A81421CDF82892CDE98D88CDE953
:103890008F98CDE99188CDE99389FCF7D2FC4BF262
:1038A000D731CBF65D710120CDE97B184BF2D731D2
:1038B000CBF60070C3F65D717A90CDE97E1065A8F5
:1038C0001421CDF8F481CDE98088CDE98288CDF846
:1038D0001092FCF7B6FC4BF2D83197ED008AC3F694
:1038E0005D714FF6FD70CDE96B184BF2D831B0EE3B
:1038F000480ACBF6FF60CBF65D7196EDCAFA6A9086
:10390000CDF8B481CDE96E10CDE97088CDE972882B
:10391000CDF8D091CDF8848106F066FED6EDC98A47
:103920002FEE000AD6EDC89A30EE280ACDF88C8129
:10393000B1EE4FEA30EE690A8DED620AB0EE480A48
:1039400006F05EFF2FEE400A97ED019A8DED640AB6
:10395000CDF87481B0EE490A06F046FE2FEE000A5B
:10396000CDF87C8130EE280A30EE690A8DED5E0AD2
:10397000B0EE490A06F044FF2FEE400A97ED02AA86
:103980008DED600ACDF86481B0EE4A0A06F02CFE97
:103990002FEE000ACDF86C8130EE280A30EE690A6D
:1039A0008DED5A0AB0EE4A0A06F02AFF2FEE401AB1
:1039B0009FED0A0A01208DED5C1A55A961AA2346E4
:1039C000CDF86081CDE95688CDF85081CDE9528897
:1039D000CDF84081CDE94E8802E000BF0000000034
:1039E00001EB8007B0EE401A002600BF9D1995ED4F
:1039F000002A951995ED013A043622EE032A0C2E81
:103A000032EE011AF2D1013087ED001A042803F1D9
:103A10001003E5D175A800F114061FED100A01206E
:103A20000DF5A27C5DAA33460DF515790CEB8007E8
:103A3000B0EE401A002500BF591991ED002A511926
:103A400091ED013A043522EE032A0C2D32EE011AD3
:103A5000F2D1013087ED001A042803F11003E5D1FB
:103A600065A800F114071FED230A01200DF59A7CCB
:103A700059AA3B460CEB800EB0EE401A002100BF65
:103A80005D1895ED002A551895ED013A043122EEA6
:103A9000032A0C2932EE011AF2D101308EED001A00
:103AA000042803F11003E5D1B0EE480ADDED568A93
:103AB000DDED57CADDED58AADDED52DADDED539AA2
:103AC000DDED54EADDED4EBADDED4FFA9DED50FA35
:103AD00006F096FE20EE0E0A00258DED4A0A4B9563
:103AE000B0EE480A06F080FD20EE0E0A8DED4C0A7D
:103AF000B0EE490A06F084FE20EE0E0A47958DEDE1
:103B0000460AB0EE490A06F06FFD20EE0E0A8DED72
:103B1000480AB0EE4A0A06F073FE20EE0E0A4395FC
:103B20008DED420AB0EE4A0A06F05EFD20EE0E1A56
:103B30009FEDEC0A01208DED441A0DF1F40C49AA19
:103B40004095CDE93E553C95CDE93A553895CDE9BE
:103B5000365500BF0CEB8003B0EE401A002500BFC5
:103B6000611991ED002A511991ED013A043522EEC7
:103B7000032A0C2D32EE011AF2D1013083ED001A26
:103B8000042804F11004E5D13DEE6C8A3CEE6D9AF8
:103B90003BEE6EEA3DEE6FAA9FEDD20A012039A9F5
:103BA00045AA00BF01EB8003B0EE401A002500BF1C
:103BB000741994ED002A541994ED013A043522EE5B
:103BC000032A0C2D32EE011AF2D1013083ED001AD6
:103BD000042806F11006E5D17BEE6AAA7CEE6BBAEA
:103BE0009FEDC00A012035A941AA00BF01EB800367
:103BF000B0EE401A002600BFBD1995ED002A9519B8
:103C000095ED013A043622EE032A0C2E32EE011A0B
:103C1000F2D1013083ED001A042807F11007E5D135
:103C20003CEE68CA9DED3F0A9DED3E1A28EE000A63
:103C30002CEE011A9DED402A31EE000A2AEE821A7E
:103C40003DEE69DA3BEE4FBA31EE00FA9DED3B0AEC
:103C50009DED3A1A9DED372A9DED363A2DEE000A7C
:103C600029EE011A2AEE022A2BEE833A31EE000ADF
:103C700033EE021A9DED3C2A9DED383A2EEE022AD3
:103C80002BEE033A25AE30463C2172EE008A73EEED
:103C9000019AFCF7D6FA15AF8DED2AFA3846CDED2C
:103CA0002F8A3421CDED349AFCF7CBFA2EEE0A0A96
:103CB0002EEE2B1A29EE0B2A2DEE0B3A32EE412A6C
:103CC00033EE403A2DEE2B1A29EE0A4A28EE020A6C
:103CD0002CEE035A34EE411A35EE400A2AEE814AA0
:103CE00034EE000A9FED804AB0EEC05AB4EE445A5A
:103CF000F1EE10FAC0F29D80B1EE4A4AB1EE422ACE
:103D00002AEE844A28EE0B5A2AEE8D6A28EE0E7AA5
:103D100035EE044A37EE465AB1EE6B6AB1EE444ACC
:103D20002CEE0B7A6AEE860A6AEE891A6CEE0E2A7F
:103D300037EE207A71EEE20A28EE066A6CEE0A1A75
:103D40006CEE0D2A31EE866A68EE091AB1EE466A0B
:103D50000DF1140872EEE11A83EE003A84EE004A87
:103D600085EE005A82EE002A87EE007AC0EE800AC5
:103D700081EE001A86EE006A81EE800A40464021FC
:103D800007F114048DED1A3A8DED1B4A8DED1C5A86
:103D90008DED1E2A8DED1F7ACDED200A8DED221AB4
:103DA0008DED236A8DED240AFCF74BFA06F1140C15
:103DB0004FF0010E08EB0E130122664603EB82055D
:103DC000002795ED000A3046E11991ED001A90EDBB
:103DD000002A043721EE021A0C2F31EE000A00F1FE
:103DE0001000F1D1013285ED000A042A06F1040623
:103DF000E4D10EF1010EBEF1040F04F11004D9D18B
:103E000009F1140008F11401012200BF002300BFD2
:103E1000CF1897ED000AC7180433B1EE400A0C2BF7
:103E200087ED000AF4D101321030042A01F11001AB
:103E3000ECD105AC20464021FCF703FA00200490A9
:103E4000CDE9020004F1140009F114060122034631
:103E50000027314651F8105BDD5104370C2FF9D1A2
:103E600001321033042A06F10406F1D19FED1D0A38
:103E70004BF60823012101AAC0F2000302EB8107DF
:103E8000B0EE401A002600BF851995ED002A9D1955
:103E900095ED013A043622EE032A0C2E32EE011A79
:103EA000F2D1013187ED001A042900F11000E5D1AB
:103EB0009DED020A9DED031A9DED042AB1EE400A24
:103EC000B1EE411AB1EE422A8BED000A8BED011AD8
:103ED0008BED022A50460DF5287DBDEC108B01B00C
:103EE000BDE8F08F000000006F12833A40B339B391
:103EF00032B310B500F5A07300F5E87C4FF0000E6A
:103F00000CEB8E0090ED000A002000BF1C1894ED11
:103F1000001A0C1894ED002A043021EE021A182819
:103F200031EE000AF2D102EB8E000EF1010EBEF16D
:103F3000060F80ED000A03F11803E1D1BDE810403F
:103F40007047000000000000B8B32DE9F04F81B0C9
:103F50000C4679B34FF470718046FCF772F9404615
:103F600021464FF45672FCF753F99FED150B9FED68
:103F7000161B04F198095BEC10AB54EC117B08F5AF
:103F80006275002659F80600FCF797FB52465B461F
:103F9000FCF739FA3A462346FCF7A7FA41EC100B36
:103FA000043605ED0C0B182EA5EC020BEAD101200E
:103FB00088F8BC0301B0BDE8F04F704700BF00BFF8
:103FC000182D4454FB210940000000000080664089
:103FD000002800F0A980002900F0A68090F80C21AC
:103FE000012A0FD191ED010A90ED411A90ED422A7C
:103FF000B4EE401A80FE420AF1EE10FA31FE000AD9
:1040000081ED010A90F81821012A0FD191ED020AE1
:1040100090ED441A90ED452AB4EE401A80FE420A13
:10402000F1EE10FA31FE000A81ED020A10B590F8A7
:10403000D042CCB300F52473042C28BF042400BF65
:104040001A7B012A2CD193F800C0BCF1050F27D8A8
:1040500093F801E0BEF1050F22D801EB8C0C01EBC7
:104060008E0E9CED000A9EED001A93ED022A30EEB2
:10407000410AB4EE420AF1EE10FAC4BF31EE021A60
:104080008CED001A93ED011AB4EE410AF1EE10FA2C
:1040900006DA9EED000A31EE000A8CED000A00BF40
:1040A000013C03F11003CBD190F83021012A0FD14C
:1040B00091ED040A90ED4A1A90ED4B2AB4EE401AA5
:1040C00080FE420AF1EE10FA31FE000A81ED040A88
:1040D00000F5807000224FF0010C00BFD3B2042B1A
:1040E0000CD80CFA03F313F0160F07D001320C3082
:1040F000062A01F10401F1D114E000BF0378012B7D
:10410000F4D191ED000A10ED021A10ED012AB4EE7F
:10411000401A80FE420AF1EE10FA31FE000A81EDEB
:10412000000AE3E7BDE8104070470000000000000F
:104130002DE9F04F81B02DED108BADF5167D0F46BA
:1041400000284FF0FF3100F05882002F00F0558218
:104150009246002A00F051829FEDDD0B059007F199
:10416000C000199051EC100B9FEDDB8BCDE91501D0
:10417000DDE915890025002606EB46001999085C43
:10418000D0B105EB450028A9AB4601EB0015002492
:104190003859FCF792FA42464B46FCF734F953EC97
:1041A000182BFCF7A2F941EC100B0434182CA5ECE9
:1041B000020BEDD10BF101050136082E07F11807AE
:1041C000DAD1DDE9159657EC18BB00240DF1700823
:1041D0005AF8040BFCF771FA4A463346FCF713F918
:1041E0005A463B46FCF781F941EC100B08EB040002
:1041F000083480ED000B302CEAD1DDF81480002D5E
:1042000000F0E98198EDBB8A98EDBC9A18EE100A8F
:10421000FCF753FA9FEDB20BB5EE408A044652EC20
:10422000100B0E46F1EE10FADCBF1646044619EEEE
:10423000100AFCF742FAB5EE409A9FEDAB0BF1EE97
:1042400010FA52EC103BDCBF11461846012D0290CB
:104250000191C0F2C38146EC104B08F5A0700A90A2
:1042600008F5E8701997CDE9126409908DED1A0BE5
:104270009DF86F0008F5357180F0800004918DF88D
:104280006F0008F1B8009DED1A0B0C9008F58070D6
:104290008DED0E0B089008F5277003904FF0FF305E
:1042A0000B909FEDDB8B00209FEDE7AA9FEDE7BA17
:1042B0009FEDDBDB9FEDDCEB9FEDDDFB9FEDDECBD0
:1042C000DDF858A0119028A890AE0D95CDF850B00B
:1042D0000C9F00240546179095ED000B199B51EC9F
:1042E000100B5A46FCF78FF84A465346FCF7FDF888
:1042F000FCF7F6F939783051012915D117ED021A7A
:1043000000EE100A31EE0A1AB4EE401AF1EE10FA7D
:1043100000F3568117ED011A31EE0B1AB4EE401A74
:10432000F1EE10FAC0F24C8104340C37182C05F170
:104330000805D1D1DDE9097100208AAD07EB8002C3
:1043400092ED000A002200BF8B1893ED001AB318FB
:1043500093ED002A043221EE021A182A31EE000AE7
:10436000F2D105EB80020130062882ED000A01F14E
:104370001801E3D1089900200A78012A17D18AAAE6
:1043800011ED021A024492ED000A31EE0A1AB4EE5F
:10439000410AF1EE10FAC0F2138111ED011A31EE6B
:1043A0000B1AB4EE410AF1EE10FA00F30981043061
:1043B000182801F10C01DFD198F8D002A0B3013820
:1043C000C0B2032828BF0320039901300A78012ACC
:1043D00026D111F80C2C052A22D811F80B3C052BFC
:1043E0001ED88AAF07EB820207EB830392ED000A27
:1043F00093ED001A11ED022A30EE410A32EE0A1A4C
:10440000B4EE410AF1EE10FAC0F2DA8011ED011AB1
:1044100031EE0B1AB4EE410AF1EE10FA00F3D0803F
:10442000013801F11001D1D1DDF810808DED068B3E
:104430009FED799B17984FF0000A0025504490EDAE
:10444000000B53EC1D2B54EC107B21463846FCF737
:104450000CF9002840F090801CA8504490ED000B0F
:10446000384653EC102B21461895FBF7C6FF53EC4A
:104470001E2B04460D46FBF71FFF169B83460F4677
:10448000204629464A46FCF7F0F853EC1F2B00283B
:1044900004BF2F46A34658463946FBF70DFF53ECA1
:1044A0001C2B81460C4658463946FCF7A8F898ED77
:1044B000000A002804BF3C46D946B5EE400AF1EE9A
:1044C00010FA15DD10EE100AFCF7F7F8189D1BE046
:1044D000182D4454FB210940000000000080664074
:1044E0000000000000001840000000000000344000
:1044F000189D2846FCF7D4F89FED510B02460B4659
:1045000051EC100BFBF779FF41EC180BDDE912328F
:1045100048462146FCF78EF8F0B99FED3F0B234645
:1045200051EC100BC80F60F3DF7351EC180B4A46C7
:10453000FBF769FF53EC192BFBF7BEFE9DED0E0B4D
:10454000834653EC102B0F4648462146FCF78DF866
:1045500010B147EC19BB01E09FED2D9BDDF850B089
:1045600017980135DDF8549008F10408062D0AF17A
:10457000080A7FF463AF01E09FED259B9DED060BDC
:1045800054EC195B57EC108B2846214642463B46BB
:10459000FCF735F800280B98119918BF08460B90C6
:1045A0002846214642463B46FCF729F8002804BF2E
:1045B0003C46454644EC185BDDF81480DDF858A015
:1045C00011980D9D01301190A842179800F130000C
:1045D0007FF47EAE07E04FF0FF310EE09FED0C8BD5
:1045E0004FF0FF300B90DDE9013251EC180BFCF776
:1045F0003CF80B99002818BFFF2108460DF5167DE1
:10460000BDEC108B01B0BDE8F08F00BF00BF00BF54
:10461000FFFFFFFFFFFFEF7F000000000000000032
:104620003FD038C6A6F11440182D4454FB2119C0C0
:10463000182D4454FB211940182D4454FB2109C066
:104640000000000000001C4017B7D1B817B7D138E0
:104650002DE9F04F81B02DED048BADF5747D8146D1
:1046600000284FF0000018BF002906D10DF5747D19
:10467000BDEC048B01B0BDE8F08F002AF6D0002B12
:10468000F4D099F8BC03012840F0E780059202932A
:1046900099E88D00D9E90465D9E906C40DF5507E85
:1046A0008EE88D0009F1200E9EE88D40CDE9D4659D
:1046B000D8AD8DC5CDE9D6C4D9E91374D9E9156350
:1046C00009F1400C09F1340B9CE80510D9F85C5055
:1046D0009BE8000DCDE9E563CDE9E374E0AB09F1BA
:1046E0006007E79583E805108DCFD9E91C65D9E906
:1046F0001EC4CDE9DCE80DF5687E8EE88D00D9F8A2
:104700008C3009F1800785CFCDE9EC65F393F0ABF0
:10471000CDE9EEC4CAACB8AD85C3484622462B46A7
:10472000CDE9DEAB00F044FE99F8F47209F56E763F
:1047300056A8D0AB21462A46CDE90067FDF708FE12
:1047400020AF3846D821FBF77CFDB69901290791A7
:1047500033DB07989FED988B9FED999B07F1C00580
:10476000461E4FF0000856AC072E28BF072600BF94
:104770004FF0000BA24600BFBAEC020B53EC182B13
:1047800051EC100BFBF73FFE53EC192BFBF7ADFE82
:10479000FBF7A6FF47F80B000BF1040BBBF1180F5A
:1047A000EAD108EB48000121B04508F1010807F102
:1047B000180704F130042954DAD1059A20A9484693
:1047C000FFF7B6FCDDF8081401B10860411C18BF02
:1047D000FF2844D109F556778FCFD9E9DB650DF174
:1047E000500C8CE88F00D9F8842309F55E73D9F852
:1047F00074430BCB1F921CAA19960BC2CDE91A5415
:1048000000209FED6D0B9FED6E1B5BEC10AB55EC2C
:10481000117BDDF81480002414AE0790B6EC020B77
:1048200052465B4651EC100BFBF7EDFD3A462B462A
:10483000FBF75BFEFBF754FF48F804000434182C28
:10484000ECD1029C484641462246FFF74FFB4846C2
:104850002146FFF7BDFB079808E7002006E7079908
:104860008842B7DA00EB400056AA010102EB0010C3
:104870005158071D14918ECF0DF1540ED0E9056CDF
:10488000D0E907458EE88E00C26AD0E9091009F523
:104890005677CDE91C51CDE91AC4CDE91E028FCF60
:1048A0000DF1200C8CE88F00D9F8842309F55E7394
:1048B0000BCB9FED430B1996D9E9DB65139210AA38
:1048C0000BC251EC100B9FED440BD9F874439FEDD4
:1048D0003E8BCDE906109FED3E9B51EC100B09F588
:1048E000567BCDE90E5418240D96CDE9031000BF78
:1048F00014A8071908A897ED000B204490ED001BA1
:1049000055EC106B53EC112B30462946FBF775FD27
:10491000DDE9063280468A46FBF7A7FEB0EE480A7C
:10492000F0EE680A50B9DDE9033240465146FBF724
:1049300081FEB0EE490AF0EE690A48B953EC102B3B
:1049400030462946FBF7B8FC41EC100B87ED000B15
:104950000834302CCCD1DDE914CEDDE9168ADDE94E
:104960001876DDE91A541CABCBE900CEDDE914CE94
:104970000FCBCBE9028ACBE90476CBE90654DDE91B
:10498000168ADDE918761AADCBF82000CBF8241092
:10499000CBF82820CBF82C303FCDC9E9E2CE09F581
:1049A000687C8CE83F000120C9E9E48AC9E9E67621
:1049B00027E700BF00BF00BF000000000080664086
:1049C000182D4454FB210940182D4454FB2119C0D3
:1049D000182D4454FB211940182D4454FB2109C0C3
:1049E00080B588B044F66D2205ABC0F2000207C363
:1049F00019208DF8100004A802F0D8F810A2D2E90E
:104A0000012142F29C33DFF838C0C2F20003186083
:104A100001A8CDE901C20391FCF71DFE42F29031DD
:104A2000C2F2000142F298320860012142F2703075
:104A3000C2F20002C2F20000117008B080BD00BFD7
:104A4000C80000004D4A00000000000042F29C3007
:104A5000C2F2000042F270310068C2F2000100228E
:104A6000C1E90022C1E9022202F0DEB82DE9F04FCF
:104A700087B042F29C3042F22C76C2F20000C2F2C1
:104A800000060068318842F22E750022C2F200054D
:104A9000835C8FB201310132192A01F07F01EB559D
:104AA000F6D142F2AE78C2F20008B8F8002001F167
:104AB0008000801A00EB5063318023F07F03C01A1E
:104AC0001928C0F2F08042F270370DF10304C2F2EF
:104AD000000700BFA85C0F2805D102F1180000F004
:104AE0007F00285C78B1501C00F07F02A8F80020FD
:104AF00088B2801A803000EB506323F07F03C01A25
:104B00001828E7DCCFE0002093B20132EB5C02F022
:104B10007F02235401301928F6D19DF80300A8F82C
:104B200000200F28E4D19DF81B000028E0D19DF85B
:104B300004C09DF805009DF807E060F30A2C9DF87D
:104B40000630ACF57A763E804FEAD0094FEA8E0601
:104B50009DF8080063F34A1946EA931300F0010632
:104B600043EA8623A9F57A78A3F57A7E9DF8093081
:104B7000A7F802804FEA500863F3CA18A8F57A70C4
:104B80009DF80B60F8809DF80A004FEA131B760031
:104B900060F30A1B46EAD01A9DF80C009DF80D60E0
:104BA00060F34A2A800866F38A10B8819DF80E00E7
:104BB000A8F2EE33C0009BB240EA56104FF6F576ED
:104BC000A7F804E0A7F808B0A7F80AA0B342F88154
:104BD00024BF0020F880B7F914604FF6F573BEEBE0
:104BE000060048BF40421D289CBFB0B2B88042F2C8
:104BF000AE78ACF2EE3080B2C2F20008984224BF28
:104C000000203880A9F2EE3080B24FF0000C9842BC
:104C100028BFA7F802C0BBF1C80F09D0BBF5E16FF0
:104C200004D0BBF57A7F05D1032302E0022300E024
:104C300001233B81BAF1C80F09D0BAF5E16F04D066
:104C4000BAF57A7F05D1032002E0022000E00120BE
:104C50007881002037F810301EB283EAE633A3EBE8
:104C6000E6339BB2B3F5E16F88BF27F810C001307F
:104C70000428EFD197E84910BE61C7E9040342F266
:104C80009030C2F200000068C7F81CC000283FF452
:104C90002FAFFCF70CFD42F22C70C2F2000001882D
:104CA000B8F8002024E707B0BDE8F08FB0B52DEDCF
:104CB000028B42F29435C2F200052868418901292D
:104CC00013D0022939D0032940F0C8800189028B12
:104CD00041F628140123C2F200049142236035D02A
:104CE000022931D10120A060B8E041F24060C2F257
:104CF00000000068014611F8012BAA2A1DD1428B41
:104D00004FF6FB739A4218D141F62812C2F2000204
:104D1000022313600B684D688C68D1F80CC0C2E99F
:104D200006350B694969407E1462C2E909C3D16244
:104D3000002818BF0120906090E041F62810C2F2D0
:104D400000000021016090E00022A260012944D00F
:104D5000032940F08380B0F90400DFED7C0A00EE07
:104D6000100A9FED7B1AB8EEC00ADFED7A1A9FEDAC
:104D70007A2A0121616002F0DDFC286884ED080ACE
:104D80009FED762AB0F90610B0F9002001EE101A56
:104D9000B0F90200B8EEC11A94ED093A21EE021AF8
:104DA00005EE102A31EE031A03EE100AB8EEC55ACA
:104DB000B8EEC33A94ED0A4A23EE023A25EE022AEF
:104DC00094ED0B5A33EE043A32EE052A84ED091ABB
:104DD00084ED0A3A84ED0B2A40E0B0F900109FED13
:104DE0005F8A00EE101A94ED061AB8EEC00AB0F908
:104DF000021020EE080A94ED072A30EE011A00EEA8
:104E0000101AB0F9040084ED061AB8EEC00ADFEDFE
:104E10004F0A20EE080A9FED4E1A30EE022A00EEED
:104E2000100A84ED072A0022B8EEC00ADFED491A05
:104E30009FED492A626002F07DFC286884ED080A33
:104E400094ED092AB0F9060001EE100AB8EEC11A75
:104E500021EE081A31EE021A84ED091A41F62810E3
:104E6000C2F20000006803286CD041F62810BBEEA7
:104E70000E0AC2F2000090ED071AB4EE401AF1EEED
:104E800010FA02DA80ED070A08E09FED350AB4EE69
:104E9000401AF1EE10FAC8BF80ED070A90ED081A2B
:104EA0009FED300AB4EE401AF1EE10FA02DA80ED0E
:104EB000080A08E09FED2C0AB4EE401AF1EE10FA51
:104EC000C8BF80ED080A90ED091A9FED280AB4EEDC
:104ED000401AF1EE10FA02DA80ED090A08E09FEDBF
:104EE000220AB4EE401AF1EE10FAC8BF80ED090AAA
:104EF00090ED0A1A9FED1E0AB4EE401AF1EE10FA78
:104F000002DA80ED0A0A08E09FED1A0AB4EE401AB0
:104F1000F1EE10FAC8BF80ED0A0A90ED0B1A9FED72
:104F2000160AB4EE401AF1EE10FA02DA80ED0B0A1E
:104F300008E09FED120AB4EE401AF1EE10FAC8BF75
:104F400080ED0B0ABDEC028BB0BD00BF000048C471
:104F500000004844000000000000524352499D39BF
:104F60000000164300000CC200003443000034C3AC
:104F70000000F0C20000F0420000B4C30000B443DF
:104F80002DE9F04146F22018C4F20008B8F80000FC
:104F9000B8F8201041F6E82501EA0006B7B200246F
:104FA000C2F2000527FA04F0C00704D055F8241017
:104FB00009B1204688470134102CF3D1A8F81060BD
:104FC000BDE8F08100000000F0B581B02DED028B4E
:104FD000B0EE408AF0EE608A9FED210B51EC180B89
:104FE00055EC104B2B462246FBF7EEFA90B99FED9D
:104FF0001E0B57EC106B00BF51EC180B32463B46B2
:10500000FBF75AF922462B4641EC180BFBF72DFB18
:105010000028F1D19FED160B51EC180B55EC104BFD
:105020002B462246FBF706FB90B99FED130B57EC7E
:10503000106B00BF51EC180B32463B46FBF73CF9B6
:1050400022462B4641EC180BFBF7D9FA0028F1D188
:10505000B0EE480AF0EE680ABDEC028B01B0F0BD7C
:10506000182D4454FB210940182D4454FB2119C02C
:10507000182D4454FB2109C0182D4454FB2119401C
:1050800010B52DED048B0446007EB0EE609A00064C
:10509000B0EE408A44BF204602F0A6FA04F1740044
:1050A000FCF775FA39EE481A94ED052AB0EEC17A8C
:1050B00084ED0C8A9FED983AB4EE427A80FE035A52
:1050C00084ED1C9AF1EE10FA84ED1E5A84ED0E1A4E
:1050D00040F3C880D4ED110A94ED026A31EE600A03
:1050E000D4ED011A26EE000A21EE214A80EE052AAF
:1050F00094ED000AA06921EE000A25EE044A41075A
:1051000084ED140A84ED184A84ED162A0BD531EE8D
:10511000204AF6EE000A24EE204A21EE844A25EECB
:10512000044A84ED184A810631D5D4ED150A61EEA2
:10513000200AF5EE400AF1EE10FA28DDD4ED090A56
:10514000B4EE607AF1EE10FA21DDD4ED081A0021F8
:1051500071EEC72AF0EEE13A70EEA22AF4EE433A7D
:10516000C2EEA12A70EEA10AF1EE10FAC8BF012129
:10517000DFED6A1AC907F4EE470A22EE844A01FEFF
:10518000844AF1EE10FA24FE214A84ED184A810780
:1051900009D594ED0D2A32EE482A26EE022A82EE37
:1051A000052A84ED162A410613D594ED0B6AD4ED39
:1051B0001B0A35EE067A25EE022A26EE206A87FEC5
:1051C000037A82EE072A86EE076A32EE062A84ED1B
:1051D000162A94ED156AC10750D030EE067AD4ED48
:1051E000040A37EE027AB0EEC77AB4EE607A36EE91
:1051F000047AF1EE10FA0ADD61EE060AF5EE400AD5
:10520000F1EE10FA03DD9FED454A00212166D4ED51
:10521000071ADFED422AB4EE617AF1EE610AF1EE8F
:1052200010FAF4EE470A31FE866AF1EE10FAB4EE97
:10523000617A30FE866AF1EE10FAF4EE470A32FE29
:10524000844AF1EE10FAB4EE617A32FE844AF1EE4D
:1052500010FA11DCB4EE607AF1EE10FAB8BF84ED0A
:10526000184A0BE09FED2D4A94ED162AB0EE440A41
:105270000020C4E9180041E084ED184A34EE066AC3
:1052800094ED0D7AD4ED030A38EE477A30EE060A33
:1052900027EE207A30EE020AC00684ED156A37EE5A
:1052A000000A84ED177A84ED190A13D594ED0A6A81
:1052B000D4ED1A0A35EE067A25EE000A26EE205ABB
:1052C00087FE033A80EE030A85EE033A30EE030AC6
:1052D00084ED190A94ED045AB4EE450A80FE453A6D
:1052E000B1EE455AF1EE10FA04DCB4EE453AF1EEB7
:1052F00010FA03DA83FE050A84ED190A84ED0D8A9B
:1053000084ED1A0A84ED1B2A84ED111A84ED134AE8
:10531000BDEC048B10BD00BFBD378635000000001A
:10532000B0B50D4690210446FAF78BFFD5E900CEC3
:10533000D5E90223D5E90410C4E900CEC4E902236B
:10534000C4E90410D5E906C0D5E90823D5E90A1552
:10535000C4F818C0C4E90A1504F11C010DC104F118
:105360007400BDE8B040FCF712B900000F4B19689B
:10537000EFF309821EF0100F08BF22ED108A22E918
:10538000F04FEFF30B8342F8043D0A604FF010003A
:1053900080F31188BFF34F8FBFF36F8F03F0BCFE14
:1053A0004FF0000080F3118802F092BF2825002002
:1053B0002DE9F04F81B02DED108B8EB090ED248A49
:1053C00091ED000A91ED019A20EE080A91ED02AAF2
:1053D00010EE100A9B460D461646FBF76EF928EEB6
:1053E000090A41EC110B10EE100A86ED001BFBF7C9
:1053F00064F928EE0A0A41EC110B10EE100A86ED52
:10540000021BFBF75AF995F83C2041EC100B012ADE
:1054100086ED040B15D11835002600BF00275C4629
:10542000E859FBF74AF941EC100B04370C2FA4ECB8
:10543000020BF5D101360C35032E0BF1180BEDD113
:1054400028E1D5E9030AD5F81480FBF736F99FED7A
:10545000940B59EC106B4B463246FAF7D4FF9FED94
:10546000920B57EC105B3B462A46FBF73EF841ECAB
:10547000180B5046FBF721F932464B46FAF7C3FFAB
:105480002A463B46FBF731F841EC1B0B4046FBF745
:1054900014F932464B46FAF7B6FF2A463B46FBF76D
:1054A00024F8B0EE480AF0EE680A41EC1C0B05F057
:1054B00037F8B0EE40AAB0EE480AF0EE60AAF0EE7F
:1054C000680A05F039F9B0EE409AB0EE4B0AF0EEFA
:1054D000609AF0EE6B0A05F023F8B0EE40DAB0EE19
:1054E0004B0AF0EE60DAF0EE6B0A05F025F9B0EE4B
:1054F000408AB0EE4C0AF0EE608AF0EE6C0A05F0DD
:105500000FF8B0EE40BAB0EE4C0AF0EE60BAF0EE32
:105510006C0A05F011F954EC1B5B51EC1D0BB0EE5D
:1055200040BA2A462346CDE90754F0EE60BACDE9E9
:105530000A01FAF768FF41EC1C0B51EC180B2A46E4
:105540002346CDE90501FAF75EFF59EC1BAB53EC9E
:105550001A2B80460C460191504649460293099207
:10556000FAF751FF57EC192B05460E4640462146E7
:105570003B46144603920497FAF745FF2A46334602
:10558000FAF73BFF41EC190B2046394652464B4691
:10559000FAF739FF05464046099FDDF808800E46B8
:1055A00001993A464346FAF72EFF2A463346FAF760
:1055B00083FE41EC1A0BDDE90A0152464B46FAF72D
:1055C00022FF41EC1B0BDDE9050152464B46FAF781
:1055D0001AFF054605900C46069138464746414657
:1055E000DDF81C80089E42463346FAF70CFFDDF8D2
:1055F0000C90DDF810A0CDE90010284621464A465F
:105600005346FAF700FFDDE90032FAF755FE41ECA8
:105610001D0B404631464A465346FAF7F4FE05460E
:105620000C46DDE90501099E3B463246FAF7EBFEE2
:105630002A462346FAF7E1FE8DED0C8B9DF83720C4
:1056400041EC180B82F080008DF837000A9D0B9C0E
:105650009DED0CEB484651462A462346FAF7D3FE09
:1056600041EC1F0B304639462A462346FAF7CBFE5B
:1056700041EC100B0BF108008BED00CB80EC069B8E
:105680008BED08DB8BED0A8B8BED0CEB8BED0EFBC2
:105690008BED100B0EB0BDEC108B01B0BDE8F08FA0
:1056A000182D4454FB210940000000000080664092
:1056B000F0B581B0466AB6B104460D46002700BF7A
:1056C000307A2946012804BFB7713772F079628CAD
:1056D00056F82000FAF79CFD307AF77101303072ED
:1056E000F668002EECD1012001B0F0BDF0B581B01C
:1056F0000C4621210546FAF7C6FD1F2801D900BF37
:10570000FEE740F22817C2F2000700BFBE6A66B18A
:1057100030462946FAF7A0FD00283746F6D1708CAE
:10572000844230460BD000BFFEE701203021FAF75B
:10573000B5FD2946B8624484FAF79CFD3E46012136
:1057400086F82C1001B0F0BD80B50146FE2000F0B7
:105750004CF99FED030ABDE88040FBF7FDBE00BF9A
:10576000CDCCCC3D2DE9F04381B02DED088B41F639
:105770008B79C2F2000999F80000002800F0A1809E
:1057800042F21868B1EE068A9FED50AA0026B9EEE3
:10579000069AC2F20008B2EE06BA002758F827505F
:1057A000D5E90A0195ED800AD5F80842B1EE401A14
:1057B000012901FE001A410718D5696A042915D18B
:1057C000686B012805D1286C002808BF05F1080086
:1057D00001E005F1080090ED000AF0EE410A05F540
:1057E000B870FFF74DFCA86AB0EE401A800723D5C9
:1057F00095F8240010F0060F1ED095F83C008007A5
:1058000005D5A86C18B190ED000A31EE001AA86B0E
:10581000012805D1686C002808BF05F10C0001E0E3
:1058200005F10C0090ED000AF0EE410A05F1E000F0
:10583000FFF726FCB0EE401A95F83C00F0EE410A66
:10584000C00707D0E86CF0EE410A18B190ED000AED
:1058500071EE000A95F82800C00707D095ED040AFC
:1058600005F15000FFF70CFCB0EE401A81FE480A2B
:10587000D5F8140280FE090A224630EE080A0028F4
:1058800020EE0A0A80EE0B0ABDEEC00A10EE103AB6
:10589000C3F3032008BF4FF0FF33A66242F8246F22
:1058A00008BF0720E16984F82A0084F82B302046DD
:1058B0000823FBF7B2F999F8000001378742FFF49B
:1058C0006DAFBDEC088B01B0BDE8F08300F07F4503
:1058D00010B10121C0F81412704700002DE9F04109
:1058E00084B000284FF0000472D041F68B78C2F2E9
:1058F0000008054698F80000032869D801204FF4F5
:105900000E71FAF7CBFC002861D00446D5E92E10C1
:10591000D5E928CE05F1A807CCCFC4F8100204F1D0
:105920002C00CCC0E16304F1500005F11001C4E982
:1059300009CEFFF7F5FC04F1E00005F14001FFF7A7
:10594000EFFC04F5B87005F17001FFF7E9FC95E88C
:105950000F0004F1400C8CE80F00D5F8CC1005F1D5
:10596000C000002941F2FD71C0F20001C5E93441D7
:1059700003D1D5F8C810C5F8CC10FBF74CF9C4F822
:10598000080208B30A20019045F6DD10C0F20000BD
:10599000CDE9020401A8FBF75EFE0121C4E98510F0
:1059A000FC20214600F021F89FED0B0AFBF7D4FD07
:1059B00098F80000411C88F8001042F21861C2F209
:1059C000000141F8204003E0204604F015FB0024CC
:1059D000204604B0BDE8F081CDCCCC3D00281ABFF4
:1059E0000146FC207047AFF3008099B1D1F808223E
:1059F00082B14FF0FF33C2F827305362D1F808224A
:105A0000082382F82B00D1F80802C16900F12402B2
:105A1000FBF703B9704708B180ED800A704710B1F9
:105A20000021C0F814127047B0B543F22404C4F248
:105A300008040025C8200121257100F082F8257096
:105A400020780028FCD1207840F00200207000BFB0
:105A500020788007FCD4002004F8020C14F8020C13
:105A60000028FBD1002004F11C0100BF11F8102018
:105A700002F07F0201F8102011F91020002AFBD457
:105A800001300328F2D1012000F00BF84EF2BB42A6
:105A90000021C4F2010201201170BDE8B04000F005
:105AA00027B880B50122EFF3108182F3108841F608
:105AB000B432C2F2000232F810308BB94EF2FE3C22
:105AC0004BF61C33C4F2010CC0F20003BCF800E03A
