:020000040000FA
:1000000020150020D52C0000E11E00005B0600003A
:100010005B0600005B0600005B0600005B0600005C
:10002000000000000000000000000000E12C0000C3
:100030005B06000000000000251F00007F2D00006F
:10004000BF3500006D330000B9340000BF3500003B
:10005000C1360000B5430000CD44000081440000DB
:1000600043430000B5430000CD440000814400003C
:1000700043430000B5430000CD440000814400002C
:1000800043430000000000000000000000000000EA
:10009000030B000000000000037400000273000066
:1000A000027300000273000002730000027300007C
:1000B0000273000002730000020700000505000043
:1000C0000370E0000571C000006060000060600027
:1000D00000606000006060004D6573736167655F7C
:1000E0004D616E6167657200000000000000000055
:1000F0000000000000000000000000000000000000
:100100000000000000000000010000001D000000D1
:100110000A00000004000000010000000E000000C2
:1001200005000000010000005C6500000000000008
:100130000100000000000000003E0000D800002088
:10014000010000005000002040003D0000000800B9
:0C015000000000000000000000000000A3
:020000040000FA
:10015C002DE9F05F0546002092469B4688460646F0
:10016C00814640241BE0284641464746224600F083
:10017C0091F853465A46C01A914110D3114618466D
:10018C00224600F078F82D1A67EB01084F462246FC
:10019C000120002100F06FF817EB00094E41201EE2
:1001AC00A4F10104DFDC484631462A464346BDE84B
:1001BC00F09F40EA01039B0703D009E008C9121F16
:1001CC0008C0042AFAD203E011F8013B00F8013B05
:1001DC00521EF9D27047D2B201E000F8012B491E31
:1001EC00FBD270470022F6E710B513460A460446C8
:1001FC001946FFF7F0FF204610BD10B5002200E0B5
:10020C00521C835C8C5CA34201D1002BF8D1D8B278
:10021C00E1B2401A10BD034611F8012B00F8012B76
:10022C00002AF9D1184670470246014400E0521CDE
:10023C008A4202D21378002BF9D1101A704710B5EC
:10024C004843044606F00AF8002805D00021002C8B
:10025C0002D0641E0155FAE710BD30B40446962353
:10026C000800214604D0B62330BC002200F02BB885
:10027C0020460021F8E7202A04DB203A00FA02F19C
:10028C00002070479140C2F1200320FA03F3194378
:10029C0090407047202A04DB203A21FA02F000211A
:1002AC00704721FA02F3D040C2F12002914008437A
:1002BC00194670470029A8BF7047401C490008BF69
:1002CC0020F00100704710B4B0FA80FC00FA0CF07A
:1002DC0050EA010404BF10BC704749B1CCF12004B2
:1002EC0021FA04F411FA0CF118BF0121214308433F
:1002FC00A3EB0C01CB1D4FEA00614FEA102042BF6B
:10030C00002010BC704700EBC35010440029A4BF60
:10031C0010BC7047401C490008BF20F0010010BC05
:10032C007047F0B400F0004221F0004120F0004092
:10033C00CE0DC30DC1F3160141F40001C0F316003C
:10034C004C42154640F40000761E09E010EB4400C8
:10035C0002D582F0004240428842F7D840005B1E32
:10036C00B342F9DA18B1F0BC0021FFF7ACBF284654
:10037C00F0BC704770B541F27856C2F20006346892
:10038C000CB1204670BD054601207821FFF757FFC0
:10039C0080B1044695E807006267C4E90001346047
:1003AC0001F006FF0028ECD0204605F0D5FA002419
:1003BC003460E6E70024E4E770B5044644F8201FF7
:1003CC0006460020082B1D46C4E90100206128BF09
:1003DC000825257332B12BB106F1340011462A469B
:1003EC00FFF7E7FE30682921224602F091F8B0FAB7
:1003FC0080F0400970BD41F25050C2F2000001780B
:10040C0001B1704781B00121017041F20401CEF2BB
:10041C0000010968009141F24851C2F20001009AB2
:10042C000B689A4206D241F24C52C2F20002136897
:10043C0001331360009A0A600021017001B070470B
:10044C0080B52DED028B00F070F841F25850C2F2DD
:10045C000000D0E90001FFF700FF08EE100A41F29E
:10046C006050C2F20000D0E90001FFF7F6FE01EE89
:10047C00100A41F26850C2F200009FED0A0AD0E95E
:10048C00000128EE000A30EE018AFFF7E6FE00EECE
:10049C00100A9FED051A20EE010A30EE080ABDEC99
:1004AC00028B80BD00007A446F12833A4EF6FC51E9
:1004BC00CEF200010A684FF0000C42F080720A6024
:1004CC0041F20001CEF20001C1F804C00B6844F205
:1004DC004022C0F20F0200FB02F043F001020A605E
:1004EC0041F23C51C2F20001086044F6D351C1F212
:1004FC006201A0FB0112910941F24052C2F20002CA
:10050C0011604DF68361C4F21B31A0FB0101880C14
:10051C0041F24451C2F20001086041F24C50C2F267
:10052C000000C0F800C0FFF766BF70B582B041F2A2
:10053C000400CEF2000000680190FFF75CFF41F26E
:10054C004C50C2F200000068019C00254FF0FF31B6
:10055C00E0FB014541F23C50C2F200000668204627
:10056C00294632460023FFF7F3FDA0FB062301FBCF
:10057C000633A41A41F24052C2F200029D4141F2EC
:10058C0058531668C2F20003C3E9000120462946FD
:10059C0032460023FFF7DCFD41F26052C2F200024A
:1005AC00C2E90001A0FB060201FB062141F2445204
:1005BC00C2F20002201A126865EB01010023FFF75A
:1005CC00C7FD41F26852C2F20002C2E9000102B05A
:1005DC0070BD10B5044601201021FFF730FED4E9A0
:1005EC0001122388002BC26041F67D52038108BFA3
:1005FC006423C2F20002038013784160591C11700D
:10060C0041F2D451C2F2000141F8230010BD01881F
:10061C000181704770B541F67D54C2F20004207818
:10062C00A0B141F2D4560025C2F2000656F82510AE
:10063C000A891AB1013A0A8105E000BF4A6812B171
:10064C00C8689047207801358542EFD370BD00BE55
:10065C007047000080B5C820FFF728FF42F29020B9
:10066C0046F2DC71C2F20000C0F2000101F094FA13
:10067C0041F6D871C2F2000108600AA0502101F0C5
:10068C008BFC41F28871C2F20001086008A04FF4A3
:10069C00BA7102F053FB41F65011C2F2000108602E
:1006AC0080BD00BF64756D6D795F636D6400000083
:1006BC0064756D6D795F666565640000B0B541F673
:1006CC005411C2F2000101F10C0E41F28C749EE83F
:1006DC000D50C2F2000404F1100787E80D5041F6EA
:1006EC005010C2F200000D6A006841F65A62C2F264
:1006FC00000201236562137002F00CFB01F0AAFBEF
:10070C0041F28870C2F2000000682146BDE8B0409A
:10071C0001F024BCF0B581B000F0B4F941F2945072
:10072C00C2F2000090E88E00066941F2DC74406968
:10073C00C2F2000404F10C0CC4E9076041F27C56CF
:10074C008CE88E0004F13C05C2F20006012700BFC4
:10075C00F8B200F04AFA56F8040B013745F8300BA2
:10076C00082FF5D141F23870C2F20000D0E9000137
:10077C00C4E9000101B0F0BDB0B5A8B016AC46F2AA
:10078C001451C0F2000120464822FFF712FD01ADC2
:10079C0046F2C041C0F2000128465422FFF709FD81
:1007AC00284600F0C9F941F6C865C2F20005284692
:1007BC00214600F079FA41F27C54C2F20004204642
:1007CC0000F094F942F2E0222846C2F200022146DF
:1007DC0000F034FB0DA04FF4BA7101F0DDFB41F6D3
:1007EC007841C2F2000108600BA0502102F0A6FA79
:1007FC0041F67C41C2F20001086041F65960C2F238
:10080C0000000121017028B0B0BD00BF64756D6D92
:10081C00795F66656564000064756D6D795F636D05
:10082C006400000041F65960C2F200000078012813
:10083C0018BF704770B52DED028B41F67C40C2F2AB
:10084C00000041F238740068C2F20004214602F044
:10085C0061FAB8B394ED041A9FED5A0AB0EEC11ABE
:10086C00B4EE401AF1EE10FA08DC94ED061AB0EE74
:10087C00C11AB4EE401AF1EE10FA23DDD4E90412D9
:10088C0042F2E020C2F200000160A1694260E2691C
:10089C008160216AC260626A0161A16A4261E26A96
:1008AC008161216BC261626B0162A16B4262E26B7E
:1008BC008162216CC262626C0163A16C4263E26C66
:1008CC00C0E90E1241F27C55C2F20005284600F038
:1008DC000DF941F6C866C2F2000641F29452304658
:1008EC00C2F20002294600F0A9FA42F2E02141F6D8
:1008FC008053C2F200013046C2F200032A4600F0D7
:10090C0013FD50B341F6805541F6C860C2F20005A4
:10091C0041F27C52C2F20000C2F20002294600F001
:10092C002FFA41F27451C2F20001421C086038D017
:10093C0000EB400005EBC00155F830C00E1D4CCE4D
:10094C000D6942F2C8204969C2F20000C0E900C238
:10095C00C0E90236C0E9045106E041F27450C2F21B
:10096C000000006801301CD042F2C825B3EE0E8A9C
:10097C000020C2F2000500BF2168461C51B105EBF6
:10098C008000F0EE480A90ED000AF0B200F040F959
:10099C0004E000BFF0B2002100F0A4F83046062EAF
:1009AC00EAD1FFF7B7FE41F67840C2F200000068CA
:1009BC0041F2DC71C2F20001BDEC028BBDE870406B
:1009CC0001F0CCBA6F12833A4269C2F3C311A1F1A0
:1009DC00090313F1080F00D2704702F07F02213A8D
:1009EC00042AF9D801EB410141F6C82CC2F2000CE3
:1009FC000CEB0111DFE802F0033018291200027C25
:100A0C00042AE9D382680A62027C052AE4D3007BBB
:100A1C00002818BF012081F82C007047027C042AA2
:100A2C0024BF806848627047027C032A1AD9826806
:100A3C004A61037C00EE102A052B15D3007B00289D
:100A4C0018BF012081F82C000EE0027C042A38BF6C
:100A5C007047806888627047027C042ABCD3806827
:100A6C00C861704791ED050A9FED051A20EE010A49
:100A7C0091ED001A80EE010A81ED060A704700BF65
:100A8C000000B44370B52DED048B0024FFF7D8FCA7
:100A9C00B0EE408A9FED129A41F6C825C2F20005CD
:100AAC00002600BFA91991F83D00012810D191ED45
:100ABC00100A38EE400AB4EE490AF1EE10FA07DDDE
:100ACC0091F83C0081F83D400121012202F00EF921
:100ADC003036B6F5C07FE5D1BDEC048B70BD00BFE0
:100AEC0000007A440A46012102F000B960B1B0B5A9
:100AFC0004460125E8B200F009F80135A4EC010A1E
:100B0C00072DF7D1BDE8B04070470000A0F10901F6
:100B1C0011F1080F3CBF9FED070A704700EB400036
:100B2C0041F6C821C2F2000101EB001090ED060A5B
:100B3C00704700BF0000000070B584B041F65866E5
:100B4C00C2F20006317800294DD1054641F6E47019
:100B5C00C2F20000009046F2A070C0F200000190BA
:100B6C0040F6D510C0F2000002906846FFF702FC78
:100B7C00044641F25450C2F2000004604DB141F6FB
:100B8C005C60C2F200000C3029466022FFF711FBBA
:100B9C000EE041F65C6200204FF07E51C2F2000282
:100BAC00002300BFD5180C33602BE9602874F9D1F1
:100BBC0041F6C825C2F2000528464FF4D871FFF75C
:100BCC0011FB05F13C00012100F8301B0131092912
:100BDC00FAD10120307003902CB103AA20460121D8
:100BEC000423FFF7E9FB04B070BD082888BF7047E9
:100BFC0041F25451C2F200010A683AB1C00100F14D
:100C0C002301104600220023FFF7D6BB70470000DB
:100C1C00A0F1090111F1080F38BF704780B582B0FF
:100C2C009FED201A00EB400180EE010A41F65C6258
:100C3C00C2F2000280EE811A02EB81019FED183A9C
:100C4C0091ED002AB4EE423AB7EE003AF1EE10FA0A
:100C5C0033FE022A91ED023A097920EE020A0029AC
:100C6C0030EE030A41F25451C2F2000121EE021A95
:100C7C00B1EE402A0B6800FE020AB0EEC11A8DEDEF
:100C8C00000A8DED011A33B1C001C11D6A46184628
:100C9C000823FFF791FB02B0BDE88040704700BF0E
:100CAC006F12833A0000B44310B548220446FFF794
:100CBC0080FA94ED0C0A94ED104A94ED0D1A94ED13
:100CCC000F3A84ED130AB1EE400A84ED2B0AB1EE13
:100CDC00440A94ED0E2A84ED141A84ED2A1A84ED3C
:100CEC00300A40F6DB7124EE040A23EE031A94ED6D
:100CFC00115A40F6DB7284ED1F3A84ED323A002033
:100D0C0022EE023A31EE000ACBF6C97184ED182AB4
:100D1C00C3F6C97284ED1B4AA06484ED275AC4E95A
:100D2C00151184ED2D2AE06584ED355AC4E91902BC
:100D3C0084ED363AC4E91C0284ED372AA06784EDB1
:100D4C00380AC4E92001C4F88800C4F88C00C4F83F
:100D5C009000C4F89420C4F89800C4E92800C4F8A2
:100D6C00B000C4F8B800C4F8BC00C4F8C400C4F89F
:100D7C00CC00C4F8D000C4F8E400C4F8E80010BDFE
:100D8C0070B59FED2C0A9FED2C1A01F1C00EB0EE40
:100D9C00002A0023B7EE003A4FF0FF3C03EB43046C
:100DAC001EF80440FF2C3CD0002400BF0D1995ED1B
:100DBC00004A051995ED005AB4EE454AF1EE10FAC9
:100DCC002FDB95ED065AB4EE454AF1EE10FA28DC0D
:100DDC000434182CEAD1B0EE414A0024002500BF9F
:100DEC000E1996ED005A161996ED006A032D35EE84
:100DFC00465AB0EE436AB0EEC55A38BFB0EE426AFE
:100E0C0025EE065A013535EE044A062D04F104048C
:100E1C00E6D1B4EE404A84FE400AF1EE10FAB8BFB7
:100E2C009C460133082B01F1180104BF604670BDCC
:100E3C00B4E700BF0050C347000000002DE9F047A5
:100E4C002DED088BFCB09FED030A914680460020E7
:100E5C0076AA03E034FA8E3C000000000B1893EDE8
:100E6C00001A131821EE001A0430182883ED001A0A
:100E7C00F4D108F15407002576AC0DF1C40A002614
:100E8C00B4EC010A17ED031A30EE018AB0EE480AF1
:100E9C0005F01CF8B0EE409AB0EE480A05F016F9D1
:100EAC0097ED008AB0EE40AAB0EE480A05F00EF8B5
:100EBC00B0EE40BAB0EE480A05F008F90AEB0600AD
:100ECC002BEE4A1A2AEE002A29EE0B3A20EE494A5A
:100EDC00243680ED009A103780ED011AD82E80ED63
:100EEC00022A80ED03AA856180ED043A80ED054A63
:100EFC0080ED070A80ED08BAC2D11FED290A0AF16C
:100F0C00240E00210DF1A00C534600BF01EB410053
:100F1C0000260CEB80077546B0EE401A00242846DC
:100F2C001A1992ED002A90ED003A043422EE032AAD
:100F3C000C2C32EE011A00F10C00F1D107EB8600FB
:100F4C000136032E80ED001A05F10405E4D10131C0
:100F5C00032903F10C03D9D19FEDED0A0AF1480ED8
:100F6C00002128AA0DF17C0C01EB410000260CEBB2
:100F7C0080077546B0EE401A00242846131993EDED
:100F8C00002A90ED003A043422EE032A0C2C32EEA7
:100F9C00011A00F10C00F1D107EB86000136032E8B
:100FAC0080ED001A05F10405E4D10131032902F1A9
:100FBC000C02D9D19FEDD60A0AF16C0E00211FAAA2
:100FCC000DF1580C01EB410000260CEB8007754627
:100FDC00B0EE401A00242846131993ED002A90ED28
:100FEC00003A043422EE032A0C2C32EE011A00F1E2
:100FFC000C00F1D107EB86000136032E80ED001AB0
:10100C0005F10405E4D10131032902F10C02D9D117
:10101C009FEDBF0A0AF1900E002116AA0DF1340CB7
:10102C0001EB410000260CEB80077546B0EE401A30
:10103C0000242846131993ED002A90ED003A04344D
:10104C0022EE032A0C2C32EE011A00F10C00F1D125
:10105C0007EB86000136032E80ED001A05F104051E
:10106C00E4D10131032902F10C02D9D19FEDA80A78
:10107C000AF1B40E00210DAA0DF5CE7C01EB410056
:10108C0000260CEB80077546B0EE401A002428466B
:10109C00131993ED002A90ED003A043422EE032A42
:1010AC000C2C32EE011A00F10C00F1D107EB86008A
:1010BC000136032E80ED001A05F10405E4D101314F
:1010CC00032902F10C02D9D19FED910A08F1A80174
:1010DC00002231AB0DF1280C0CEB8207B0EE401A5C
:1010EC00002600BF981990ED002A881990ED003A5F
:1010FC00043622EE032A0C2E32EE011AF2D1013202
:10110C0087ED001A032A03F10C03E5D19FED800A49
:10111C0008F1B402002328AF0DF11C0E0EEB830670
:10112C00B0EE401A002500BF781990ED002A501936
:10113C0090ED003A043522EE032A0C2D32EE011A02
:10114C00F2D1013386ED001A032B07F10C07E5D120
:10115C009FED6F0A08F1C00300271FAE04AA00BF61
:10116C0002EB8705B0EE401A002400BF301990ED59
:10117C00002A181990ED003A043422EE032A0C2CA4
:10118C0032EE011AF2D1013785ED001A032F06F168
:10119C000C06E5D19FED5E0A08F1CC07002667AD81
:1011AC0001AB00BF03EB8604B0EE401A002000BF79
:1011BC00291891ED002A391891ED003A043022EEED
:1011CC00032A0C2832EE011AF2D1013684ED001AF2
:1011DC00032E05F10C05E5D1002770AE0CEB0700D2
:1011EC0090ED000A0EEB070090ED001AD01930EECE
:1011FC00010A90ED001AD81930EE010A90ED001A90
:10120C00F01930EE010A04370C2F80ED000AE5D1FD
:10121C009DED6D8A9FED3F0AB0EEC81AB4EE401AF0
:10122C00F1EE10FA38DA9DED6A9A9DED67AA29EE77
:10123C00090A2AEE0A1A31EE000AF1EEC00AB1EEE2
:10124C00480A04F03DFCB0EE408A04F03FFE9FEDEE
:10125C00341AB0EEC02AB4EE421AF1EE10FA31FE96
:10126C0000BA89EE0B0ACAEE0B0A04F029FC9DEDBC
:10127C006E1A9DED6F2A81EE0B1AC2EE0B0AB0EEC0
:10128C00409AB0EE410A04F01BFC9FED261A28EEA2
:10129C00012A29EE011A13E09DED680ADDED6B0AB7
:1012AC0004F00EFCB5EE408A9FED191AF1EE10FA1F
:1012BC0002DA9FED192A03E09FED182AB1EE400ADD
:1012CC0070AA89ED042A07CA89ED051A9FED153A13
:1012DC0067AFDDE96C65DDE96E4CC9E90001C9F861
:1012EC0008208FCF20EE030A09F1180E8EE88F002C
:1012FC0089ED030A0120C9E90B65C9F8344089F866
:10130C003C00C9F838C07CB0BDEC088BBDE8F08758
:10131C000000000072F97F3F0000B4420000B4C22C
:10132C0017B7D138E12E65422DE9F04F81B02DED84
:10133C00108BD6B090ED390A9FEDE51AB0EEC00ACD
:10134C008846B4EE410A4CACF1EE10FA52AD05935E
:10135C000890039210DA089E96ED0F0A96ED381A53
:10136C0096ED102AB1EEC11A82EE000A86ED391AFA
:10137C0004F0FCFC86ED3A0A04F10C000A9005F12D
:10138C000800049098E807004791469098F83C00B4
:10139C00489288B108F118078FCFD8E90B650DF189
:1013AC00F40CD8F834408CE88F00D8F83800CDE92C
:1013BC004265CDE9444067E098ED030A9FEDC52AEC
:1013CC0098ED041A20EE028A98ED053AB0EE480A20
:1013DC0021EE029A23EE02AA04F078FDB0EE40BA98
:1013EC00B0EE490A04F072FDB0EE40CAB0EE4A0A03
:1013FC0004F06CFDB0EE40DAB0EE480A04F066FE84
:10140C00B0EE408AB0EE490A04F060FEB0EE409AAD
:10141C00B0EE4A0A04F05AFE2DEE091A20EE0B2A01
:10142C0021EE083A21EE0B1A33EE422A28EE003A4E
:10143C008DED3E2A31EE031A2CEE003A29EE000A0D
:10144C008DED3F1A8DED403A2BEE0D1A20EE082A49
:10145C002DEE083A20EE0B0A32EE011A2CEE0D4A54
:10146C0030EE430A2CEE082A2BEE0C3A8DED411A85
:10147C00B1EE491A8DED3D4A8DED420A8DED431AC0
:10148C008DED442A8DED453A08989FED930A00F1B5
:10149C00CC0100223DAB34A800EB8207B0EE401A21
:1014AC00002600BF9D1995ED002A8D1995ED003A87
:1014BC00043622EE032A0C2E32EE011AF2D101323E
:1014CC0087ED001A032A03F10C03E5D1002146AA8B
:1014DC003AAD00BF531893ED000A431893ED001A70
:1014EC006B1830EE410A04310C2983ED000AF1D15E
:1014FC009DED3BAA9DED3A9A2AEE0A0A29EE091AAD
:10150C00059C31EE000A9FED751AB1EEC00AB4EEDF
:10151C00410AF1EE10FA1CDDB0EE4A0AF0EE490A6F
:10152C0004F0CEFAB0EE408AB1EE4A0AF1EE490A66
:10153C0004F0C6FA00208DED020A012100EB4002F6
:10154C0001302244042882F8C01082F8CC10F5D166
:10155C0014E003989FED5F1A90ED000A002020EE36
:10156C00018AFF2100EB400201302244042882F85A
:10157C00C01082F8CC10F5D18DED028A0898F7EEE8
:10158C0000DA9FED55FA00F1A80B04F1C1000090B0
:10159C000120DFED538ADFED539A9FED53AADFED67
:1015AC0053EADFED53FA9FED539ADFED53CA04F182
:1015BC00C0094FF0000A07900DF1A00837AC31AE0E
:1015CC0000200B90CDF804B0089890ED120A38EE7C
:1015DC0000BAB0EE4B0A04F079FCB0EE40CAB0EEA3
:1015EC004B0A04F073FD00208DED290ACBF68070B8
:1015FC00B1EE400A2D908DED28CA40468DED2E0A95
:10160C0000218DED2FCACDE92AAACDF8B0A0CDF8D6
:10161C00C0A000BF04EB8102B0EE4F0A002300BF54
:10162C00C71897ED001AEF1897ED002A043321EE36
:10163C00021A0C2B31EE000AF2D1013182ED000AB4
:10164C00032900F10C00E5D1002000BF211891ED19
:10165C00000A0BEB000191ED001A311830EE410A33
:10166C0004300C2881ED000AF0D19DED320ADDED3D
:10167C00310A20EE001A20EEA02A089832EE01CA98
:10168C0090ED37DAB1EECCBA90ED39EA3DEE0E1AA8
:10169C00B4EE41BAF1EE10FA08DC3DEE4E1AB0EEA3
:1016AC00C11AB4EE41BAF1EE10FA27DA0B99009A8E
:1016BC0001EB4101002011445590CDE953005290AB
:1016CC0000EB40020130042801F802A0F8D19AE0A6
:1016DC0017B7D13834FA8E3C00000000BD37863580
:1016EC0072F97F3F72F97FBFDB0FC940DB0FC9C0B6
:1016FC00DB0F4940DB0F49C0E12E654204F0E0F9F5
:10170C000898B6EE002AD0ED36AAD0ED38BA3CEEE9
:10171C002A1A31EE6B1A21EE021A2DEE0B2AB0EEBC
:10172C0040BA81EE021AB0EE6D0AB4EE6D1AF1EE0B
:10173C0010FA0ADCBFEE000AB4EE401AB0EE410A11
:10174C00F1EE10FAB8BFBFEE000A04F02DF93AEE34
:10175C00AB1AB6EE002A31EE4C1AB0EE40CA21EEAE
:10176C00021A2DEE0E2AB0EE6D0A81EE021AB4EEBC
:10177C006D1AF1EE10FA0ADCBFEE000AB4EE401A54
:10178C00B0EE410AF1EE10FAB8BFBFEE000A04F059
:10179C000BF907983BEE4C1AC00719D008989FED2F
:1017AC00AC4A90ED3A2A31EE041A32EE403A8DED05
:1017BC00521A33EE2F1A3BEE0C3A30EE020A33EE8D
:1017CC00042A30EE090A8DED531A8DED542A18E0D7
:1017DC0008983BEE0C2A90ED3A3A9FEDED5A30EE1C
:1017EC00034A32EE052A33EE400A8DED522A34EECE
:1017FC00092A31EE051A30EE2F0A8DED532A8DEDA4
:10180C00541A8DED550A4FF0000B012052AC0021FB
:10181C000C9100BF089DD4ED00BA95ED160A099005
:10182C003BEE80BAB0EE4B0A04F050FBB0EE40CA6F
:10183C00B0EE4B0A04F04AFCD4ED01AA95ED1A1A4D
:10184C00B0EE40DA3AEE81BAB0EE4B0A04F03EFB51
:10185C00B0EE40EAB0EE4B0A04F038FC2DEE001A64
:10186C002CEE0E2A2DEE0E3A2CEE000A32EE414AE8
:10187C0030EE030A4FF07E508DED1F4A31EE421AC6
:10188C0000218DED200A24908DED250A1FA88DEDE9
:10189C00261A0DF1580CCDE921112391279100BF87
:1018AC0001EB410200230CEB82024446B0EE4F0ADE
:1018BC0000262746851995ED001A97ED002A043667
:1018CC0021EE021A0C2E31EE000A07F10C07F1D1B1
:1018DC0002EB83070133032B87ED000A04F10404A8
:1018EC00E4D10131032900F10C00D9D1002061466B
:1018FC000DF1340C0DF1F40E00EB400200230CEB57
:10190C0082027446B0EE4F0A002627468D1995EDDB
:10191C00001A97ED002A043621EE021A0C2E31EE35
:10192C00000A07F10C07F1D102EB83070133032BFB
:10193C0087ED000A04F10404E4D10130032801F11D
:10194C000C01D9D19DED15CA0024BFEE000AB4EEEE
:10195C0068CA0025F1EE10FAA8BF0124B4EE69CADA
:10196C00F1EE10FAD8BF0125F4EE4C9AF1EE10FA14
:10197C00B4EE68CA20FE0C0AF1EE10FA2DFE80BA05
:10198C00B0EE4B0A04F010F89FED822AB0EECC1AA0
:10199C000021B4EE421A44EA0500F1EE10FAC8BF79
:1019AC000121079A40EA0104D207069232D08DED4C
:1019BC004D0AB0EE4B0A03F0F7FF059DB1EE400A5D
:1019CC00E0078DED500A32D19DED0FBA9DED12CA94
:1019DC00F0EE4B0AB0EE4C0A04F072F88DED4C0AA6
:1019EC00B1EE4C0AF1EE4B0A04F06AF89DED14CA04
:1019FC009DED13BA8DED4F0AB0EE4C0AF1EE4B0A89
:101A0C0004F05EF88DED4E0AB1EE4C0AF0EE4B0A86
:101A1C0044E000BFB1EE400A8DED4D0AB0EE4B0A2A
:101A2C0003F0C2FF059D8DED500AE00712D003981C
:101A3C009FED561A90ED030ACDF838B120EE010A4D
:101A4C008DED4C0A8DED4F0AB0EE4F0A28E000BF29
:101A5C00DB0FC93F9DED0FBA9DED12CAF1EE4B0A9B
:101A6C00B1EE4C0A04F02CF88DED4C0AB0EE4C0A99
:101A7C00F0EE4B0A04F024F89DED13CA9DED14BA58
:101A8C00F0EE4C0A8DED4F0AB1EE4B0A04F018F84B
:101A9C008DED4E0AF1EE4C0AB0EE4B0A04F010F844
:101AAC0000208DED510A4FF001084CA90C9A4FF013
:101ABC00000A10430B9A104300EB4004D1E90002DA
:101ACC0005EBC4078968F86087ED008A3A61C7EDB9
:101ADC0001BA7961C7ED02AA07EB0A0696ED000A76
:101AEC0010EE100A20F00040B0F1FF4F18D8F0EEC5
:101AFC004A0A04F093FAB4EE6F0A30EE2E1AF1EEA5
:101B0C0010FA31FE000AB4EE409A30EE0A1AF1EEE9
:101B1C0010FA31FE000A20EE2C0A86ED000A04E0D1
:101B2C00FF20C6F800B009F804000AF1040ABAF163
:101B3C00180FD1D15FEAC8710A994FF001004FF02C
:101B4C000008B3D102200C900998049CC0074FF0F8
:101B5C0000000DF1A0087FF45DAE04200B90002076
:101B6C00079006989DED028ADDF804B000283AAD86
:101B7C004FF0000A37AC31AE7FF426AD012056B0E1
:101B8C00BDEC108B01B0BDE8F08F00BF34FA8E3C79
:101B9C00DB0FC93F77BE7F3F80B588B041F6354239
:101BAC0005ABC0F2000207C319208DF8100004A881
:101BBC0001F0E9F910A2D2E9012141F6E073DFF856
:101BCC0038C0C2F20003186001A8CDE901C203912C
:101BDC00FEF7FFFC41F6D471C2F2000141F6DC7253
:101BEC000860012141F6B470C2F20002C2F200009A
:101BFC00117008B080BD00BF14000000111C000063
:101C0C000000000080B541F6B470C2F20000202143
:101C1C00FEF7E8FA41F6E070C2F200000068BDE899
:101C2C00804001F0E6B900002DE9F04F87B041F695
:101C3C00E07042F20C26C2F20000C2F2000600680C
:101C4C00318842F20E250022C2F20005835C8FB26D
:101C5C0001310132192A01F07F01EB55F6D142F224
:101C6C008E28C2F20008B8F8002001F18000801A1A
:101C7C0000EB5063318023F07F03C01A1928C0F2A7
:101C8C00E68041F6B4770DF10304C2F2000700BF01
:101C9C00A85C0F2805D102F1180000F07F00285C29
:101CAC0078B1501C00F07F02A8F8002088B2801A8E
:101CBC00803000EB506323F07F03C01A1828E7DC58
:101CCC00C5E0002093B20132EB5C02F07F0223549A
:101CDC0001301928F6D19DF80300A8F800200F2830
:101CEC00E4D19DF81B000028E0D19DF804C09DF8BC
:101CFC0005009DF807E09DF8063060F30A2C4FEACA
:101D0C00D0094FEA8E0040EA931A9DF80800ACF512
:101D1C007A7663F34A193E80A9F57A7660F38A2ABB
:101D2C00BE80AAF57A767E809DF809604FEA50084D
:101D3C0066F3CA18A8F57A709DF80B30F8809DF8F8
:101D4C000A0036095B0060F30A1643EAD01E9DF8C0
:101D5C000C009DF80D3060F34A2E800863F38A1056
:101D6C00B8819DF80E003E814FEAC00BA8F2EE3010
:101D7C0080B24BEA53134FF6F57BA7F80AE05845AF
:101D8C00FB8124BF0020F880A9F2EE3080B24FF026
:101D9C000009584528BFA7F80490ACF2EE3080B289
:101DAC0042F28E28584528BFA7F80090AAF2EE30D0
:101DBC0080B2C2F20008584528BFA7F80290C82E7E
:101DCC0009D0B6F5E16F04D0B6F57A7F05D10320C2
:101DDC0002E0022000E001203881BEF1C80F09D0DA
:101DEC00BEF5E16F04D0BEF57A7F05D1032002E089
:101DFC00022000E001207881002000BF37F810306D
:101E0C001EB283EAE633A3EBE6339BB2B3F5E16F84
:101E1C0088BF27F8109001300428EFD197E84910BB
:101E2C00BE61C7E9040341F6D470C2F20000006839
:101E3C00C7F81CC000283FF439AFFEF7E8FB42F2AC
:101E4C000C20C2F200000188B8F800202EE707B081
:101E5C00BDE8F08F41F6D870C2F2000000684189ED
:101E6C0001290CD0032908D002290ED141F28C7023
:101E7C00C2F20000002101607047022100E0012144
:101E8C0041F28C72C2F200021160028941F28C7133
:101E9C00C2F20001032A03D1086801224A6004E05F
:101EAC000868012A08BF012810D0012818BF704704
:101EBC0041F28C7043F23331C2F20000C3F6B361CD
:101ECC004FF07C52C0E90412826170470320086015
:101EDC00704700002DE9F04146F22018C4F20008CA
:101EEC00B8F80000B8F8201041F6804501EA000669
:101EFC00B7B20024C2F2000527FA04F0C00704D0E0
:101F0C0055F8241009B1204688470134102CF3D120
:101F1C00A8F81060BDE8F0810F4B1968EFF3098247
:101F2C001EF0100F08BF22ED108A22E9F04FEFF3DC
:101F3C000B8342F8043D0A604FF0100080F31188C7
:101F4C00BFF34F8FBFF36F8F02F06EFD4FF00000A9
:101F5C0080F3118802F028B92C210020F0B581B053
:101F6C00466AB6B104460D46002700BF307A2946B2
:101F7C00012804BFB7713772F079628C56F82000D3
:101F8C00FEF717F9307AF77101303072F668002ECF
:101F9C00ECD1012001B0F0BDF0B581B00C4621218F
:101FAC000546FEF741F91F2801D900BFFEE740F2B4
:101FBC009807C2F2000700BFBE6A66B130462946D8
:101FCC00FEF71BF900283746F6D1708C8442304658
:101FDC000BD000BFFEE701203021FEF730F9294677
:101FEC00B8624484FEF717F93E46012186F82C109E
:101FFC0001B0F0BDB0B543F22404C4F208040025CE
:10200C00C8200121257100F082F825702078002865
:10201C00FCD1207840F00200207000BF20788007AF
:10202C00FCD4002004F8020C14F8020C0028FBD19C
:10203C00002004F11C0100BF11F8102002F07F02F7
:10204C0001F8102011F91020002AFBD401300328CC
:10205C00F2D1012000F00BF84EF2BB420021C4F289
:10206C00010201201170BDE8B04000F027B880B526
:10207C000122EFF3108182F3108841F62052C2F254
:10208C00000232F810308BB94EF2FE3C46F2D063AF
:10209C00C4F2010CC0F20003BCF800E033F81030BD
:1020AC0043EA0E0343F42543ACF8003032F8103009
:1020BC00013322F8103081F3108880BD0122EFF338
:1020CC00108182F3108841F62052C2F2000232F8DD
:1020DC00103023B132F81030013B22F8103032F8B6
:1020EC0010208AB94EF2FE3CC4F2010C46F2D062CA
:1020FC00BCF80030C0F2000232F8100043F4254264
:10210C0022EA0000ACF8000081F31088704741F21D
:10211C007052C2F20002126801FB00F041F2002181
:10212C00C0F27A018A420FD340F6FF01C0F23D01A2
:10213C0011444DF68362C4F21B32A1FB0212110D45
:10214C00A0FB0101E9B11FE04CF60021C3F69A3166
:10215C0048F63813C0F24103B1FBF2F1984207D2B2
:10216C004FF47A7200FB02F0B0FBF1F0800808E04B
:10217C008900B0FBF1F0984206D24FF47A7100FB63
:10218C0001F028B101F059B84FF0FF3001F055B80B
:10219C0070477047022818BF704741F6145046F23A
:1021AC00F051C2F20000C0F2000100F04FBB000081
:1021BC002DE9F04F81B0834608688A460090D1E93A
:1021CC0002010027DAF81090C4F20B070022CBF8BA
:1021DC001C100121CBE9007ACBE90502D9F81C804F
:1021EC00EFF3108081F3108844F20801C4F2080167
:1021FC000A684EF2034C22F000620A60096880F310
:10220C0010884EF20016D7F88C0046F2003541F6D5
:10221C003854CEF2000CCEF20006C007C4F2000512
:10222C00C2F2000455D06446D7F88C000007FBD4EA
:10223C005846812101F05EFED8F8040041F21431B9
:10224C00C7F884004FF48030C7F89C000120C4F21A
:10225C000B010860D8F82800C7F8AC00002000BFBC
:10226C0008EB800107EB8002896801300828C2F86E
:10227C00C010F5D198F82D00A4460001607041F60D
:10228C0038540020C2F2000446F200352061C4F23A
:10229C00000529694EF2001621F480312961296963
:1022AC001021CEF20006BFF35F8FC6F880113160AB
:1022BC00D8F80010C7F8881008F1300151F8202028
:1022CC0007EB8003013022F001020628C3F820211D
:1022DC00F4D198F82C00A04600018CF80000C4F84A
:1022EC000CB0E86820F48030E860E8680820BFF3A0
:1022FC005F8FC6F88001306041F63050009CC2F20E
:10230C00000040F824B04FF48070012CC7F89800FE
:10231C0021D0D9F80010C7F89800D1F800C04A684D
:10232C008B68C96841F60C00C4F20B00016041F6E1
:10233C00080041F60401C4F20B00C4F20B01036067
:10234C000A6041F60001C4F20B01C1F800C001683B
:10235C0064F3C71101600020C7F8980058460121AA
:10236C0001F0C8FDDAF804004EF2001690E80E00F9
:10237C00C06801396FF39F2141EA42415A1EA1F511
:10238C00003141EA42614FF60042CFF6FF7202EB98
:10239C00802046F20035084321017850D9F814000A
:1023AC00CEF2000690E80E00C0680139C9B241EACD
:1023BC0002210022CFF6FF7202EB0342A1F58071DD
:1023CC001143013841EA006041F21431C4F20B01AF
:1023DC0001EB4411C4F20005C1F8EC00D9F814006B
:1023EC004068FF2828BFFF2099F81820000440EA15
:1023FC00422040F201421043C1F8F000D9E9021228
:10240C0007EBC400C0F8501FC0F8542FD9F81000C7
:10241C0007EB041140F003004860DAF818000028BC
:10242C001DD49AF814103218090182F8001348F8D8
:10243C0020B055F82010012321F4803145F82010EC
:10244C0055F8201000F01F01400906EB800203FA3A
:10245C0001F1BFF35F8FC2F8801146F82010DAF853
:10246C00200000281DD49AF814103218090182F8A3
:10247C00001348F820B055F8201000F01F0221F48A
:10248C00803145F8201055F820100123400903FA3B
:10249C0002F206EB8003BFF35F8FC3F8802146F88E
:1024AC002020DAF81C0000281DD49AF814103218D9
:1024BC00090182F8001348F820B055F820100122C9
:1024CC0021F4803145F8201055F8201000F01F0140
:1024DC00400906EB800302FA01F1BFF35F8FC3F8EA
:1024EC00801146F820105846802101F003FD584613
:1024FC000021002501F0FEFC44F24460C5F24320AB
:10250C00CBE902050020CBF8105001B0BDE8F08FEC
:10251C0010B59368D2E900E4D0F804C04EEA837396
:10252C00DCF800C043EAC47E272916D90CEB4C0317
:10253C0004680B44A3F1280C04EBCC134FF4C844EF
:10254C0043F804E0137B092B27D3182B22D803F56F
:10255C007E73082404EB93031FE041EA8C1C036890
:10256C0003EB0C0494F8D047240744BF4EF66320C9
:10257C0010BD03EBCC134FF4803443F804E0137B11
:10258C00092B28D3182B23D803F57E73082404EBCE
:10259C00930320E00B2404EB131304684FEA037E2F
:1025AC0004EBCC1446F2044344F803E004681369CA
:1025BC0004EBCC1403F0070E46F2084344F803E096
:1025CC00036846F20C4403EBCC1303EB040E1DE042
:1025DC000B2404EB131304681B0704EBCC1E04241C
:1025EC00C0F201044EF804300368146903EBCC1EEE
:1025FC00082304F00704C0F201034EF803400368FB
:10260C0003EBCC1303F5803303F10C0E137B3BB1BE
:10261C00143200BF12F8014B013B0EF8014BF9D1FB
:10262C000068272905D900EB8C00FF21C0F8401267
:10263C0003E06044012180F8D012002010BD062078
:10264C0070470146406846F20032C4F2000252F86C
:10265C00203023F0807342F8203040F20002C2F2A6
:10266C000002002342F8203000200B6070474168C4
:10267C0046F20032C4F2000252F8210020F08073BE
:10268C00002042F821307047416846F20032C4F213
:10269C00000252F8210040F08073002042F82130F3
:1026AC007047406840F20002C2F2000252F820006B
:1026BC000022C1E90022C278402A05D24FF48032B0
:1026CC008A60C089C8600FE04FF480728A60C2894A
:1026DC00D2B2CA60C27802F0C002802A04D14FF490
:1026EC0080320A608089486000207047F0B581B064
:1026FC0042F2A412C2F20002137840F200060D4618
:10270C000446C2F20006D3B9012744F20001177047
:10271C00EFF3108087F31088C4F208010A6822F4E2
:10272C0080020A60096880F3108830464421FDF766
:10273C0059FD45F20C40C4F20000866007706868D1
:10274C000068002804D456F8201019B108200DE0B8
:10275C000B200BE02968606011B1204601F060FC91
:10276C0044F20030C4F254402060002001B0F0BDAF
:10277C00B0B50446406846F20035C4F2000555F881
:10278C00202022F0807245F82020606845F20E422D
:10279C0040F40040C4F2000213889842FCD020465A
:1027AC0001F03EFC616855F8210040F08072002079
:1027BC0045F82120B0BD06207047000010B582B04E
:1027CC0001910092416840F2000246F2003CC2F2D4
:1027DC000002C4F2000C52F821E05CF8212022F037
:1027EC0080724CF82120426845F20E41C4F200017F
:1027FC0042F400420C88A242FCD008228A70019A52
:10280C0012B1019ACEF80420009A12B1009ACEF8B7
:10281C0008209EF8032002F0C004802C02D1AEF8F0
:10282C000C3003E03F2A98BFAEF80E3018228A70A5
:10283C0041685CF8210040F0807200204CF82120A7
:10284C0002B010BD062070470620704780B545F2D7
:10285C005422C5F24F020260084601F003FC00202E
:10286C0080BD0000B0B50D468907044601D4062092
:10287C001DE0206A817801F07B018170E069406B7A
:10288C0020B1816800680969884700E00020217840
:10289C0049B1216A8A8A42F004028A82216A00BF05
:1028AC008A8A5207FCD400212161B0B90020E907C3
:1028BC0013D0E069016B0020A06119B18A68086827
:1028CC0011698847217841B1216A8A8A42F0020253
:1028DC008A82216A8A8A9207FCD4B0BD2DE9F04322
:1028EC0081B00A780D460121914011F0060F044683
:1028FC0005D0286CC0680078000700F1C28048F24F
:10290C000000C4F2110040EA02200022206240F2D2
:10291C00F930084018BF0120E56100012070D5E9AD
:10292C000E01A2626062A078E16220F00300411CFB
:10293C00A170696811B940F00200A070EE6A4EF205
:10294C00001806F01F014FF0010CCEF200080CFA33
:10295C0001F308F18001770995F8282041F8273018
:10296C00BFF34F8F46F20039C4F20009BFF36F8FEB
:10297C0059F82630170123F4803349F8263008F52E
:10298C00407259F8263097556F6941F6385E07F05A
:10299C001F00C2F2000E0CFA00F07B094EF8264024
:1029AC002E7C41F82300BFF34F8FBFF36F8F59F884
:1029BC002700330120F4803049F8270059F827000C
:1029CC00D355E8694EF8274000F01F060CFA06F6BE
:1029DC0047092B7E41F82760BFF34F8FBFF36F8FF2
:1029EC0059F820601B0126F4803649F8206059F80C
:1029FC00206013544EF82040686A95F8203000F09F
:102A0C001F060CFA06F7460941F82670BFF34F8FE4
:102A1C00BFF36F8F59F820101B0121F4803149F856
:102A2C00201059F8201013544EF82040286B78B120
:102A3C00406802684FF4002042F8040B206A296BAE
:102A4C00431D204601F08EFB0646002840F01C81F9
:102A5C00686BC0B1406802684FF0006042F8080B28
:102A6C00206A696BC31C204601F07CFB58B10646FA
:102A7C00286B002800F0088181680068096A884783
:102A8C0002E1032600E10120EFF3108180F31088AE
:102A9C0044F204072A78C4F208074FF000433E685A
:102AAC0023FA02F226EA02023A603A6881F31088AD
:102ABC000022216A8A70216A0A71216A4A72216A8B
:102ACC008A72216ACA72216A4A832978884040F244
:102ADC00F931084202D0206A4021C174206A0621D3
:102AEC0001772078C8B1E269116B00294FF0010120
:102AFC0005D1126C431E12691A4062F30B21013886
:102B0C0000F00F0041EA0030216A40F006028A8290
:102B1C00216A00BF8A8A9042FCD1D5E90112E8688B
:102B2C004FEAC00040EA021029B1032908BF40F067
:102B3C004000F22100E0E221226A00271070206A96
:102B4C0002228171286C816902EA41020829216AFA
:102B5C0008BF0A224A73236AD0E901121F72036864
:102B6C00C90123F00103C9B2022B62F345110AD14A
:102B7C00226AFF23537000680228206A08BF41F0C4
:102B8C001001C17117E0226AD171C068216A827884
:102B9C004A7042780B7802F0030203F0FC031A44EB
:102BAC000A70C2788A74CA79007802F0A30200F025
:102BBC005C001044C8710026E169C4E90366C4E9ED
:102BCC000566286C4F69017859F8272007F01F0318
:102BDC0022F4803249F8272059F82720012202FAE2
:102BEC0003F508F5C0737F09BFF35F8F43F82750D7
:102BFC0048F82750E769FF6A59F8275025F48035C3
:102C0C0049F8275059F8275007F01F0502FA05F527
:102C1C007F09BFF35F8F43F8275048F82750E769C7
:102C2C00FF6959F8275025F4803549F8275059F891
:102C3C00275007F01F0502FA05F57F09BFF35F8FD8
:102C4C0043F8275048F82750E7697F6A59F827500E
:102C5C0025F4803549F8275059F8275007F01F05FF
:102C6C00AA407F09BFF35F8F43F8272048F827203D
:102C7C001C22236A62F39F019970406944F6551136
:102C8C00C5F24331C4E90110304601B0BDE8F08310
:102C9C0070B50446C0691546006B0E4678B1A17834
:102CAC00826801F00301013925FA01F10068D2F8BC
:102CBC0008C08BB200213246E04700B170BD002045
:102CCC00C4E9056570BD000000F07CF800F0AEFDB5
:102CDC00FEE700001EF0040F0CBFEFF30880EFF3CB
:102CEC0009800149084700002147000080B582B0E7
:102CFC00082801920CD841F25452C2F20002136817
:102D0C0033B141EAC01101AA18460423FDF754FB64
:102D1C0002B080BDB0B50546007A002460B1A87938
:102D2C00AA8855F8203008461946FDF742FA287A49
:102D3C00AC710138012428722046B0BD70B50E4626
:102D4C00FFF72AF9054601201021FDF778FA044611
:102D5C008680304603F082FA206055F8240F28B1A3
:102D6C000146C0680028FBD101F10C0520462C60FF
:102D7C0070BD10B51020EFF3118480F3118802F0B0
:102D8C008BFB30B14EF60450CEF200004FF0805168
:102D9C00016084F3118810BD4EF22000C4F20100D2
:102DAC008179006841F22052C2F20002C0F3026045
:102DBC0052F8211021FA00F041F27051C2F20001D8
:102DCC000860704710B54EF60850CEF200004FF474
:102DDC007001C0F8801040F20001C0F200010160E7
:102DEC0000200024FFF7D6F900F01AF90120FFF7B4
:102DFC00D1F941F22010C2F2000080F30A880020C1
:102E0C0000F032F8FFF7C8FFFFF7F4F80320FFF7E4
:102E1C002EF940F61050C4F208004FF6FF7100BFB7
:102E2C0020F8141001340C2CFAD10320FFF746F9CA
:102E3C000320FFF71CF90420C4F20E0000210160EE
:102E4C0041608160C1600320FFF738F90220FFF771
:102E5C00A1F9012000F008F800F0AAF90020BDE863
:102E6C00104000F0A3B90000F0B581B046F27465D3
:102E7C00C0F200052E68044676B16868071D00BFD5
:102E8C007879844204D157E90101091AFDF7AAF9AE
:102E9C00013E07F10C07F3D1AE6886B1E86800F18A
:102EAC00080500BF6879844205D155E902022968FA
:102EBC00121AFDF77EF9013E05F11005F2D101B0B1
:102ECC00F0BD0000B0B541F67C51C2F200010978AA
:102EDC0081B10546006842F22032C2F2000200BF06
:102EEC001468D4F808311B78984204D0013902F1E7
:102EFC000402F5D1B0BD68680F2806DD102818BF94
:102F0C00402806D0202804D01DE001280FD0082826
:102F1C0019D1D4F804010121FFF7A4FCD4F8040161
:102F2C0094F800212146BDE8B040FFF7B1BED4F8BB
:102F3C000C0100B18047D4F8040194F8002121461B
:102F4C00FFF7A6FE6868022819D00428D2D1A86819
:102F5C00B4F81213B4F8142301316FF35F219142CA
:102F6C0004D0B4F81223224482F81101A4F81213ED
:102F7C00D4F80C010028BDD0BDE8B04000470020BB
:102F8C0084F81001B0BDF0B581B041F67C56C2F2A8
:102F9C0000063778032F20D8054601204FF44671E0
:102FAC00FDF74DF92A1D044607CAC4F80C217A1CFA
:102FBC002B78327042F22032C2F20002C4E9410195
:102FCC0084F8003142F82740FFF788FC48B12046CE
:102FDC0002F0C2FC3078013830700024204601B079
:102FEC00F0BDD4F8040194F800212146FFF750FEFF
:102FFC00F4E778B110B50446D0F804010121FFF7CD
:10300C0031FCD4F8040194F800212146BDE81040AD
:10301C00FFF73EBE7047000000BE00BFFEE7000099
:10302C002DE9F0414EF2FE34C4F201044AF2035091
:10303C004CF200162080C4F201060120B08000BFC3
:10304C00B0880028FCD147F200010120C4F2000135
:10305C0030808860086041F2205742F6005041F2FF
:10306C000022C2F20007C0F23110C0F27A02C7E9A6
:10307C00000243F200604FF40041C0F26E10C7E949
:10308C0002104CF20020396141F60041C0F6EB30E1
:10309C00C0F64E614EF220057861C4F20105B961AB
:1030AC00A879296857F82000C1F3026141F27058E1
:1030BC00C840C2F20008C8F8000000206075092062
:1030CC0085F8820094F8820018B994F88300800780
:1030DC0067D094F8820058B9012084F88200C82087
:1030EC000121FFF714F800BF94F882000128FBD1EE
:1030FC00002084F8830084F882000020A87400BFAC
:10310C00287F0007FCD542F201702885002043F28D
:10311C00021185F82A002981A87200BF287F800639
:10312C00FCD50320307741F22120C2F20100286047
:10313C000520A871A879296857F82000C1F302610D
:10314C00F022C840C8F8000042F20800C4F20000A7
:10315C00F1210171012101700271297485F832107D
:10316C0095F8560040F0400085F8560095F9560049
:10317C00B0F1FF3FFADC032085F84E00C62085F83D
:10318C00560095F8560000F0BF0085F8560000BFB9
:10319C0095F956000028FBD44FF425402080BDE85B
:1031AC00F0814FF47A70FEF7F4FFA6E77047000049
:1031BC0070B584B048F248060320C4F20006FEF74E
:1031CC0056FF6FF0FF0046F28C6430604FF0FF301A
:1031DC000021C0F200040122CDE9020054F8213094
:1031EC0002FA01F5002B18BFA84301311129F5D1C2
:1031FC004EF280320190002001A9CEF2000200BFF5
:10320C0051F8203006EB8005AB6242F820300130DB
:10321C000328F5D10320FEF751FF46F200310020C0
:10322C00C4F2000154F820200AB141F820200130EA
:10323C00112804BF04B070BDF4E701380028FCD19C
:10324C00704700002DE9F04F81B00446008800283B
:10325C005AD043F240084EF2BB4B0025C4F208088A
:10326C000FF2AC0AC4F2010B4FF00109002700BFAA
:10327C0060685AF8272000EBC500416891423CD1A8
:10328C0000689BF8001000F0B85009FA07F6B0F18E
:10329C00807F06EA010015D150B90120FEF7E7FE48
:1032AC009BF8000030438BF800000120FEF706FF6E
:1032BC0018F91700002820D418F8170040F08000E7
:1032CC0015E000BF50B10120FEF7D1FE9BF80000C5
:1032DC00B0438BF800000120FEF7F0FE18F9170040
:1032EC00B0F1FF3F09DC18F8170000F07F0008F878
:1032FC001700C8200121FEF70AFF0137032FB7D1B1
:10330C00208801358542B1D301B0BDE8F08F00BFF4
:10331C0002040000030400000404000010B541681E
:10332C00B1F5806F18BF10BD41F27851C2F20001A7
:10333C000C68416990F8202004F10803616100F1E8
:10334C00280118462274082A28BF0822FCF731FFEE
:10335C00616F19B12046BDE81040084710BD000050
:10336C002DE9F04FB7B0EFF303806FF35F20A0F1BE
:10337C00100141F63850C2F2000050F82170009153
:10338C00786839680468006901F59855CDE902043C
:10339C00F8690790285D002878D024F0004808EBE5
:1033AC004800072101FA00F001904FEA841A0DF150
:1033BC000C090DF1740B20462A5DD1074FEA400130
:1033CC0008D13868120727D400F56B624FF40073EC
:1033DC0005E000BF38684FF4006300F561620493A8
:1033EC0052F8213093FAA3F3B3FA83F3082B08D3E2
:1033FC0002EB8101496891FAA1F1B1FA81F101F175
:10340C00200303EB0A01084490F8D01701F0F901EE
:10341C0080F8D0171EE000BF029AD26902EB81013E
:10342C00096BC9044FF4006158BF4FF4005104916B
:10343C00D0F8B412019A114091FAA1F1B1FA81F1CC
:10344C0000EB810001F12803D0F8E02122F01002FA
:10345C00C0F8E021BE69069356B158463146682241
:10346C00FCF7A7FE304649466822FCF7A2FE00E0B6
:10347C004E46796930468847B86918B15946682272
:10348C00FCF797FE285D0028404695D146F20030A7
:10349C00009AC4F2000050F8221021F4803140F858
:1034AC00221050F8220037B0BDE8F08F2DE9F04F14
:1034BC00B7B0EFF303804FF480636FF35F20A0F19C
:1034CC00100141F63850C2F2000050F82170019101
:1034DC00D7E900010968D0F8B022CDE9031302F056
:1034EC003F0292FAA2F2B2FA82F202F01F06032E07
:1034FC0088BF02F0030242F0280106914FF480715C
:10350C00D0F8A02201FA06F912EA090F029633D17B
:10351C000DF10C0806F1280408F114060DF1740ADB
:10352C002146324600F096FC039841F63051C2F227
:10353C00000151F820B0DBE90650079055B1504618
:10354C0029466822FCF735FE284641466822FCF7DE
:10355C0030FE00E04546DBF8141028468847DBF8BF
:10356C00180018B151466822FCF723FE3868D0F8D1
:10357C00A01211EA090FD3D0029900EB8100D0F808
:10358C00E01121F00801C0F8E0113868D0F8B00261
:10359C0060B946F20030019AC4F2000050F82210D3
:1035AC0021F4803140F8221050F8220037B0BDE8E9
:1035BC00F08FF0B5B5B0EFF303806FF35F20A0F19F
:1035CC001005032D33D141F63050C2F200000668CD
:1035DC0001A80C305C21FCF705FE4FF480500290E2
:1035EC0031684FF07040D1F8902000EA023000EBC7
:1035FC000240920703904FF00000C1F890000FD5E5
:10360C003168D1F8A82292FAA2F2B2FA82F201EB56
:10361C0082010492D1F8E02022F00402C1F8E020EB
:10362C00D6E906410190059104BB01AC2AE041F6B4
:10363C003850C2F2000001AF50F8256007F11400B9
:10364C005421FCF7CFFD4FF480700290D6E90001B5
:10365C00096800EB0110C26892B203920022C260AA
:10366C00D6E9064001910492059054B11BA821465D
:10367C006822FCF79EFD01A920466822FCF799FD03
:10368C0000E03C46716920468847B06918B11BA917
:10369C006822FCF78EFD46F20030C4F2000050F8B0
:1036AC00251021F4803140F8251050F8250035B054
:1036BC00F0BD00002DE9F04FB5B040F2000BC4F2A4
:1036CC000B0BDBF8AC0290FAA0F0B0FA80F2072AF0
:1036DC0053D84FF4806042F02005029004950120ED
:1036EC00DBF8A01200FA02F4214200923CD10098BF
:1036FC0046F208010BEBC0100DF16C0900EB010A4E
:10370C0001A800F1140700BFDAF800002946C0F345
:10371C0001203A460190584600F09CFB019841F676
:10372C003051C2F2000151F82080D8E906600590B2
:10373C0056B1484631466822FCF73BFD304601A99C
:10374C006822FCF736FD00E001AED8F814103046C4
:10375C008847D8F8180018B149466822FCF729FDAB
:10376C00DBF8A0022042CFD000980BEB8000D0F801
:10377C00E01021F00801C0F8E010DBF8AC0240B911
:10378C0046F21030C4F20000016821F4803101606F
:10379C00006835B0BDE8F08F80B584B041F61050AC
:1037AC00C2F20000016846F2EC530131016042F6AE
:1037BC0008110420C2F20001CDE9000143F62100FA
:1037CC0041F2D86CC0F200000CA1C0F200034FF41F
:1037DC008072C2F2000CCDF808C001F017FD41F266
:1037EC00D461C2F20001086008B104B080BD0020B1
:1037FC00002104B0BDE8804000F09BBD4461656DC4
:10380C006F6E5461736B0000FCF704FF0A2001F02B
:10381C0015F8F9E710B5044600F05AFD2046BDE84E
:10382C001040FFF7F1BF7047FFF7FDBF80B541F6C1
:10383C001050C2F200000021016041F6C040C2F2FB
:10384C00000041F6C84201704FF48070C2F20002D1
:10385C00012101F055F941F6C441C2F200010860A2
:10386C0018B90020002100F064FD00F009F8FFF702
:10387C0093FF00F0E3FC01F073F8002080BD000022
:10388C0080B584B041F61050C2F20000016846F2D7
:10389C00C4730131016042F608510120C2F20001EB
:1038AC00CDE9000143F6111042F2080CC0F2000001
:1038BC000CA1C0F200034FF48062C2F2000CCDF8F0
:1038CC0008C001F0A3FC42F20401C2F2000108603E
:1038DC0008B104B080BD0020002104B0BDE88040D8
:1038EC0000F027BD4D6F746F724374726C5461732A
:1038FC006B000000FCF740FFFCF794FF052000F084
:10390C009DFFF9E710B5044600F0E2FC2046BDE847
:10391C001040FFF7EFBF2DE9F04381B00E4642F6A1
:10392C00F801C2F200010D6842F23411C2F200013A
:10393C00D1F8008042F2381142F22C14C2F200018C
:10394C00C2F20004D1F8009021680746081D00F06F
:10395C0032FE781C16D1AEB142F6D000C2F2000095
:10396C00D0E90012236801319A6093682768FB60E4
:10397C00276804375F602368043393602268016012
:10398C00506117E02068ED194560206800F10401D2
:10399C0005D3484601B0BDE8F04300F051BE4046A7
:1039AC0000F04EFE42F65C00C2F2000001688D424F
:1039BC0038BF056001B0BDE8F083000070B582B07F
:1039CC0000F05BFE42F6FC06C2F20006306850BB0B
:1039DC0042F60804C2F20004204600F022FE42F631
:1039EC001C05C2F20005284600F01BFE42F2301006
:1039FC00C2F20000046042F23C10C2F2000042F23B
:103A0C00680242F2E003056000250A20C2F20002BF
:103A1C000C21C2F20003009501F094F8306010B153
:103A2C0003A100F0B9FE02B0BDE8704000F04CBE3E
:103A3C00546D72510000000070B542F23834C2F27D
:103A4C0000042068D0B142F6E40542F23436C2F2EA
:103A5C000005C2F2000600BF00F00FFEE868C06867
:103A6C00043000F0A8FD306801383060206801385F
:103A7C00206000F029FE20680028EDD170BD70B5E3
:103A8C00866B036C044643B31546CAB1E0681A460C
:103A9C00FCF78FFBE168206C2268091A9142E16007
:103AAC0003D2A16840420844E060A81EB0FA80F03E
:103ABC0040093146002E18BF01210840361A0CE08F
:103ACC0060681A46FCF775FBD4E90101226C1044BE
:103ADC008842606001D320686060701CA06370BD78
:103AEC0042F240144EF60455C2F20004CEF2000528
:103AFC004FF08056FFF7A0FF2068022804D32E60F9
:103B0C00BFF34F8FBFF36F8F00F07FFDF2E78C4652
:103B1C00014641F804CF9445006108D942F23010B7
:103B2C009A42C2F200000AD29C450ED207E080698C
:103B3C00D21A824209D242F23C10C2F2000080B585
:103B4C00006800F07DFD002080BD0120704770B53D
:103B5C0042F23012C2F2000212680646D2680D46DA
:103B6C00D468201D00F027FD94F82400410704D4EC
:103B7C0000F0FA0084F8240004E0204631462A467E
:103B8C0000F006F8216A2046BDE8704008470000A6
:103B9C0070B50546806914460E460144284600BFA0
:103BAC003346FFF7B4FF48B1A869296A0644284692
:103BBC008847A869224681192846F1E770BD0000A4
:103BCC00F0B581B0044601F061FC42F22816C2F255
:103BDC0000063168054688420ED242F23017C2F216
:103BEC00000700BF3868016841B1C0684FF0FF3171
:103BFC000068FFF7ACFFF5E7002007E042F23C114C
:103C0C00C2F200010A68086001203A602060284670
:103C1C00356001B0F0BD000000BE00BFFEE7000043
:103C2C0084B042F2301842F6FC05C2F2000801AC36
:103C3C00C2F200054FF00009EB4600BFD8F80000B7
:103C4C00D0F800A0BAF1000F1ABFC06806680026B1
:103C5C0000F0E2FE2046FFF7B3FF019911B101F02D
:103C6C005DFD2DE00746BAF1000F08D0BE4206D824
:103C7C0001F054FD30463946FFF769FF20E0BAF1F8
:103C8C00000F01D0002208E042F23C10C2F200000A
:103C9C0000680068B0FA80F042092868F11B00F057
:103CAC00AAFD01F03BFD58B94EF604514FF080507F
:103CBC00CEF200010860BFF34F8FBFF36F8F00BFD0
:103CCC002868CDE90299CDF8049000BF2146002266
:103CDC0001F0C6F80028B1D0019800284CD4039EFE
:103CEC00706910B1301D00F066FC5846FFF768FF94
:103CFC000199013908293FD80746DFE801F005058D
:103D0C001C231C05051C230096F82400029BB1699A
:103D1C0040F0010086F82400194430463A46FFF77B
:103D2C00F6FE48B396F8240041071BD400F0FA00C5
:103D3C0086F824001DE096F8240000F0FE0086F8BA
:103D4C00240019E096F8240040F00101029886F84E
:103D5C002410B06190B1C11930463A463B46FFF78A
:103D6C00D6FE09E00298B1693A4601443046FFF7A5
:103D7C000FFF316A304688472868A7E746F6D041DE
:103D8C0003A0C0F200014FF48262FFF745F900BFB7
:103D9C002820707854696D65722D3E7854696D6574
:103DAC0072506572696F64496E5469636B73203E1F
:103DBC002030202900000000F0B581B0044600F04E
:103DCC005CFC94F94560012E0EDB04F1240500BF68
:103DDC00286848B1284601F028FC08B100F066FDBF
:103DEC0070B2013E0128F3DCFF2684F8456000F038
:103DFC006BFC00F042FC94F94470012F0EDB04F1D3
:103E0C00100500BF286848B1284601F00EFC08B127
:103E1C0000F04CFD78B2013F0128F3DC84F84460DB
:103E2C0001B0BDE8F04000F04FBC283140F8481D0F
:103E3C0043F62541C0F200014FF0807C22F00102D4
:103E4C00C1636FF002010264C0F844C0C0E90913F9
:103E5C00704700001F2904D800EBC11303F5005C68
:103E6C0004E000EBC113282903F5A04C80B5DCF865
:103E7C0000E0CEF380739360DCF8083003F00703A6
:103E8C0013612EF0604313604FEADE735360DCF86D
:103E9C0004305FEA137E13A313F80EE082F80CE0F3
:103EAC0009D00CF10C03143213F801CBBEF1010E46
:103EBC0002F801CBF8D11F29BDE8804006D80122B9
:103ECC0002FA01F1C943C0F8B010704700EB810051
:103EDC0028294FF0FF012CBFC0F8A011C0F88010AA
:103EEC00704700BF0001020304050607080C1014FC
:103EFC001820304070B5D0E90042802901F00F0342
:103F0C00D2F800C043D204EB0C14C90754F804EFE8
:103F1C0002D11EF0040504D1052B08BF1EF00105CB
:103F2C0009D12568012666F302052560656805F050
:103F3C000705012DFAD1256825F007051D432560DD
:103F4C00656805F007059D42FAD1002960D11EF085
:103F5C0003015DD011690CEB4C02C9694FF49073ED
:103F6C0001EB820603EB820106F13002002300BF55
:103F7C00066852F823500E4456F8234005F001050C
:103F8C00254346F823500133032BF1D140E0D4F8FC
:103F9C0088205FEAC17E02F0010118D0B9B9302443
:103FAC00026852F8245025F0010542F824500134DF
:103FBC00382CF5D1482400BF026852F8245025F063
:103FCC00010542F8245001344E2CF5D10468D4F884
:103FDC00882022F007021A43C4F88820D4F88C20D9
:103FEC0002F007029A42F9D1BEF1000F10D179B15B
:103FFC00416800220969C969083100BF036851F89A
:10400C00225003EB82030132082AC3F8C050F5D1C9
:10401C00016801EB0C11496801F00701C16070BD2A
:10402C0001F10E0212F80B3C402B06D3B2F800C083
:10403C005FFA8CF343EA0C23138012F80C3C103219
:10404C003F2BEFD845F21042C4F200020823137044
:10405C00406840F20003C2F2000343F8201018201D
:10406C001070704770B50446FFF7ECF841F62C5C05
:10407C00EFF31080012181F31088C2F2000CDCF800
:10408C00001039B940F60351C4F2080100220A703D
:10409C0040220A70DCF800100131CCF8001080F3DB
:1040AC001088208818B340F6000E0021C4F2080EC8
:1040BC00606800EBC10250F831305268DD034FEA02
:1040CC001220D2B20BD50EEB801555F8226026F4D7
:1040DC00803645F8226023F4803645F822600EEBDA
:1040EC008010013140F8223020888142E0D3012039
:1040FC00EFF3108180F31088DCF8000020B1DCF8BD
:10410C0000000138CCF80000DCF8000038B940F6AB
:10411C000350C4F20800002202708022027081F366
:10412C00108870BDB0B584B00446806A40B1D0E947
:10413C0000CED0E90253CDE900CECDE9025300E028
:10414C006846E369D4F824C01B78E56AC0E90032FC
:10415C00C0E90215E047A06A10B19DE82E002EC000
:10416C0004B0B0BD10B5D1F804C00478DCF800E0A0
:10417C00136014B103F10C041460C069406858B9A1
:10418C009EF8030000F0CF0010308EF80300D1F839
:10419C0004C003F10B0010608A680868126861465D
:1041AC00BDE8104010470000074801680A6802CAC1
:1041BC0081F30B88B2E8F04F1EF0100F08BFB2EC81
:1041CC00108A82F3098870472C21002088B14EF2A6
:1041DC000C00C4F20100B0F90010B1F1FF3F09DD91
:1041EC00BFF34F8F30BFBFF36F8F62B6BFF36F8FCC
:1041FC0072B6704780B54EF2FE32C4F20102B2F8CC
:10420C0000E04AF2025CCFF6FF7C0023A2F800C06B
:10421C0003804EF425431380BFF34F8F30BFBFF3A1
:10422C006F8F62B6BFF36F8F72B61388A2F800C09F
:10423C00018043F42540108080BD000080B584B01F
:10424C0041F61050C2F20000016846F2D8730131F9
:10425C00016043F608510120C2F20001CDE90001D2
:10426C0044F2C92042F2AC1CC0F200000CA1C0F216
:10427C0000034FF48062C2F2000CCDF808C000F0CD
:10428C00C5FF42F2A811C2F20001086008B104B0E7
:10429C0080BD0020002104B0BDE8804000F049B88A
:1042AC00526F626F745461736B000000FCF7D2F9AB
:1042BC00FCF704FA052000F0C1FAF9E710B5044642
:1042CC0000F006F82046BDE81040FFF7EFBF0000F5
:1042DC00B0B541F6C444C2F2000420684FF0FF317F
:1042EC0000F08CFE012803D02068002100F021F89A
:1042FC0041F6C040C2F20000017801B1B0BD01210D
:10430C000170FFF791FA41F61055C2F2000500BF9B
:10431C00286801382860F1D0206800210022002391
:10432C0000F0CAFC0128F3D02068002100F001F84D
:10433C00EEE700BE7047B0B5EFF303806FF35F207C
:10434C00A0F1100541F63850C2F2000050F82500DB
:10435C00017821B9817801F00301022921D1036A86
:10436C00198A6FF35F211A79D40602F0380203D54B
:10437C001C7FE40708BF40321C7904F0C7041C7191
:10438C00436A0BB1FFF7CEFE46F20030C4F20000D8
:10439C0050F8251021F4803140F8251050F82500F4
:1043AC00B0BD036A5979DEE710B582B0EFF3038034
:1043BC0040F2FC7101EA800046F2C021C4F2000117
:1043CC00425822F48032425041F63852C2F2000276
:1043DC004158104450F8404CE069006B78B1A0692A
:1043EC0068B1616A002000296061A06140D020465C
:1043FC000021012202B0BDE81040FFF793BE2078E7
:10440C0038B9A07800F00301206A022905D041795F
:10441C0006E0206AC18AC90628D0018A6FF35F21A1
:10442C00A0690191B0B1A178606901F0030201A902
:10443C00FBF7BFFEA0786169A26900F0030001449C
:10444C00101A6161A0610BD1606A48B1204600214D
:10445C00012203E0606A18B120460422FFF762FED5
:10446C00207828B1206AC18AC906D2D1BE21017137
:10447C0002B010BD10B5EFF303806FF35F20A0F115
:10448C00100441F63850C2F2000050F82400016AC2
:10449C008A7802F07B028A70416A19B100210222EB
:1044AC00FFF740FE46F20030C4F2000050F8241032
:1044BC0021F4803140F8241050F8240010BD000085
:1044CC0080B5EFF3038040F2FC7101EA800046F204
:1044DC00C021C4F20001425822F48032425041F60D
:1044EC003852C2F200024158104450F8400CC169D5
:1044FC00496B11B10169A1B380BD01690029F9D0E3
:10450C000378002B3ED0026AD18AC1F30421994270
:10451C0021D20122F2B1827802F00303C268022B8D
:10452C0006D11288036A42F47E42DA8103E000BFAE
:10453C001278036ADA73837890F800C00269D0F8B5
:10454C000CE003F003030131D21A7344614502619C
:10455C00C360DFD3026A117901F07D010231117160
:10456C00C8E7016A8A7802F07B0204328A70416AD9
:10457C0000294FF00001C160BED08022BDE8804010
:10458C00FFF7D0BD817801F00302C168022A05D182
:10459C000988026A41F47E41D18102E00978026AFD
:1045AC00D17081780269C36801F00301521A194471
:1045BC000261C1609EE7D0E901320169D1F804C003
:1045CC009A608445536008BF4A600B680022026100
:1045DC00581E0860704742F24853C2F20003036051
:1045EC0042F24830C2F20000086080201060704730
:1045FC0042F2A873C2F20003036042F2A850C2F266
:10460C000000086080201060704780B572B600F022
:10461C0003FA0120FFF7DAFD62B6BDE8804001F035
:10462C007DB84FF0FF31024642F8081F0021C0E967
:10463C000322C0E90012704700210161704700009D
:10464C0080B5D1F800C01CF1010207D000F10802BE
:10465C009646526813686345FAD903E0D0F810E027
:10466C00DEF804204A6091600268C1F808E0CEF8D8
:10467C0004100861511C016080BD1021EFF3118002
:10468C0081F3118842F23031C2F200010A68531CE6
:10469C000B605AB941F61C51C2F2000108604EF68B
:1046AC000450CEF200000068C00500D1704746F6F9
:1046BC00255046F66B51C0F20000C0F2000140F2EA
:1046CC00A442FEF7A9FC000042F23030C2F2000016
:1046DC00016859B10139016018BF704741F61C508F
:1046EC00C2F20000006880F31188704746F66B51E7
:1046FC0003A0C0F2000140F2AD42FEF78DFC00BFFA
:10470C007578437269746963616C4E657374696E14
:10471C0067000000806910F8020C022808BFFFF740
:10472C0043BD042838BF704746F66B5103A0C0F256
:10473C0000014FF47E72FEF76FFC00BF7563535699
:10474C00434E756D626572203C3D203300000000C5
:10475C0041F27050C2F20000006844F6D351C1F22D
:10476C006201A0FB01014FF0FF3000EB9111002022
:10477C00B0EB116F18BF70474EF21002CEF2000270
:10478C0051604EF62351CEF20001F0230B70906075
:10479C000720106070470000B0B500B3D1B142F6ED
:1047AC007C0E4FF0000C0023C2F2000E002200BF62
:1047BC000EEB03046568A8420DD022B92268002ACA
:1047CC0018BF644622460833502BF1D1002A18BF7B
:1047DC00C2E90010B0BD2246C2E90010B0BD46F6D9
:1047EC00CB2046F67D21C0F20000C0F2000140F65D
:1047FC00C932FEF711FC70B515460E460446FFF79C
:10480C003CFF94F84400FF2804BF002084F84400C7
:10481C0094F84500FF2804BF002084F84500FFF7FA
:10482C0053FFA06B28B904F1240031462A4600F04E
:10483C0061F82046BDE87040FFF7BEBA80B580B184
:10484C0042F23C31C2F200010A6801320A60096886
:10485C00012912D10021FFF75EF800F05FFF00B1D3
:10486C0080BD4EF60450CEF200004FF08051016036
:10487C00BFF34F8FBFF36F8F80BD46F6364046F6C1
:10488C005141C0F20000C0F2000140F68E12FEF75A
:10489C00C3FB42F66001C2F200010968016042F6F6
:1048AC00F801C2F2000109684160704742F6041039
:1048BC00C2F2000001210160704710B570B10C46C6
:1048CC0042F22C11C2F2000109681831FFF7B8FE50
:1048DC0020460121BDE81040FFF71DB846F6AC405C
:1048EC0046F65141C0F20000C0F200014FF4A45250
:1048FC00FEF792FBB0B538B30346D0E900C042F2E4
:10490C002C1EC2F2000EDEF80040002AE061846822
:10491C00DEF800502C62DEF8005005F118056560D9
:10492C00DEF800400CF1010504F118048460DEF897
:10493C000000836218BF4FF0FF31084611461D601E
:10494C00BDE8B040FEF7E7BF46F6AC4046F6514135
:10495C00C0F20000C0F2000141F2BE42FEF75CFB67
:10496C00B0B58AB044F24940C4F24C5000240690D1
:10497C0005A804A903AA8DF81C40CDE90444FFF74F
:10498C002AFEDDE90320059D06A90023CDE90040A0
:10499C0043F6ED20C0F20000029500F037FC42F621
:1049AC005800C2F2000005602DB300F083FF01280F
:1049BC000AD001301FD146F6514112A0C0F20001BD
:1049CC0040F6A962FEF728FB42F65C01C2F2000138
:1049DC004FF0FF32012080F310880A6042F6CC01C0
:1049EC00C2F20001086042F6F800C2F20000002199
:1049FC00016000F067F846F6B450C0F200000068A1
:104A0C000AB0B0BD7852657475726E20213D2028B5
:104A1C00202D31202900000042F23C30C2F200006F
:104A2C00016801310160704742F23C30C2F2000073
:104A3C00006830B142F60410C2F20000012101609E
:104A4C00704742F60410C2F20000002142F2443CCE
:104A5C000160C2F2000CDCF8001042F2401301EBD2
:104A6C008102C2F2000353F8220003EB820228B940
:104A7C00B9B152F8140D01390028F9D050684368C7
:104A8C0002F108008342536001D1D3685360D868A7
:104A9C0042F22C12C2F200021060CCF80010106826
:104AAC00704746F6514103A0C0F2000141F2FA32C0
:104ABC00FEF7B2FA7578546F705072696F72697440
:104ACC00790000004EF62250CEF20000F021017069
:104ADC00FFF73EFE4EF63470CEF20000016841F056
:104AEC004041016062B6BFF36F8FEFF3148C2CF072
:104AFC00040C8CF31488BFF36F8F02DF00BEFDE74C
:104B0C00B0B582B080B10D4681420DD814464FF03D
:104B1C00000C002100222346CDF800C000F012F852
:104B2C002046A56302B0B0BD46F67D2103A0C0F2BD
:104B3C0000014FF45E72FEF76FFA00BF7848616EA9
:104B4C00646C650010B582B00BB3B8B11C4601B9EA
:104B5C00A2B901B192B148230193019B482B1FD1FB
:104B6C00019B002908BF2246C4E90F012046012100
:104B7C00226000F03BF8204602B010BD46F67D21C5
:104B8C0013A0C0F200014FF4D872FEF745FA46F6B6
:104B9C007D2112A0C0F200014FF4C272FEF73CFA64
:104BAC0046F67D2103A0C0F200014FF4CB72FEF754
:104BBC0033FA00BF7853697A65203D3D2073697ADA
:104BCC00656F66282051756575655F742029000036
:104BDC0070784E6577517565756500007078537403
:104BEC0061746963517565756500000070B50028C6
:104BFC0044D00446C06BC0B30E46216CA0FB01012F
:104C0C0099BBFFF73AFDD4E90F0122680025A56393
:104C1C0001FB0023013800FB0120C4E90123E06003
:104C2C00FF2084F8440084F8450004F110004EB1D4
:104C3C00FFF7F7FC04F12400FFF7F3FCFFF744FD4A
:104C4C00012070BD01680029F8D000F0EEFC0028AE
:104C5C00F4D04EF60450CEF200004FF080510160BB
:104C6C00BFF34F8FBFF36F8FE8E746F67D2109A0A6
:104C7C00C0F200014FF4B672FEF7CEF946F6CA2028
:104C8C0046F67D21C0F20000C0F2000140F237125E
:104C9C00FEF7C2F97852657475726E20213D20289A
:104CAC00202820282042617365547970655F742038
:104CBC0029203020292029002DE9F04F85B000282B
:104CCC00049200F09D8099461546044619B9206C53
:104CDC00002840F0B980B9F1020F03D1E06B012834
:104CEC0040F0A680019100F0BFFB10B9002D40F000
:104CFC009380FFF7C2FCA06BB9F1020F59D0E16BA6
:104D0C00884256D304F11007012002AE4FF0000A7E
:104D1C0004AD00BF0499002966D0C0071CBF304603
:104D2C00FFF7B7FDFFF7D0FCFFF776FEFFF7A5FC0A
:104D3C0094F84400FF2808BF84F844A094F8450078
:104D4C00FF2808BF84F845A0FFF7BEFC3046294673
:104D5C0000F00EFA00284AD1FFF78FFCD4F838B0D7
:104D6C00D4F83C80FFF7B0FCC34515D10499384604
:104D7C00FFF7A3FD2046FFF71FF800F0CFFC80B92A
:104D8C004EF60450CEF200004FF080510160BFF39C
:104D9C004F8FBFF36F8F04E02046FFF70DF800F044
:104DAC00BDFCFFF76AFCA06BE16B88424FF0000082
:104DBC00B0D2019920464A46FEF761FE54F8240F02
:104DCC0070B1204600F031FC50B14EF60450CEF2DA
:104DDC0000004FF080510160BFF34F8FBFF36F8F16
:104DEC00FFF772FC012008E0FFF76EFC04E02046A0
:104DFC00FEF7E2FF00F092FC002005B0BDE8F08F5A
:104E0C0046F6CA2046F67D21C0F20000C0F2000131
:104E1C0040F2B632FEF700F946F6B10046F67D21B7
:104E2C00C0F20000C0F2000140F2BB32FEF7F4F811
:104E3C0046F6041046F67D21C0F20000C0F20001D7
:104E4C004FF46E72FEF7E8F846F6A11046F67D2197
:104E5C00C0F20000C0F2000140F2B732FEF7DCF8FD
:104E6C002DE9F04F83B00028029200F0A280164684
:104E7C008946044619B9206C002840F0B28000F035
:104E8C00F3FA10B9002E40F0A080FFF7F6FBD4F82F
:104E9C0038A0BAF1000F28D0226C52B1D4E902012B
:104EAC001144E160814224BF2168E1604846FBF770
:104EBC0080F954F8100FAAF10101A16270B12046DB
:104ECC0000F0B3FB50B14EF60450CEF200004FF0A0
:104EDC0080510160BFF34F8FBFF36F8F0124FFF739
:104EEC00F3FB204603B0BDE8F08F04F12408012049
:104EFC006F464FF0000B02AE0299002955D0C00747
:104F0C001CBF3846FFF7C5FCFFF7DEFBFFF784FD3F
:104F1C00FFF7B3FB94F84400FF2808BF84F844B0B3
:104F2C0094F84500FF2808BF84F845B0FFF7CCFB88
:104F3C003846314600F01CF960B12046FEF73CFFC4
:104F4C0000F0ECFBFFF799FBA56BFFF7BDFB1DBB5E
:104F5C002DE000BFFFF791FBA56BFFF7B5FB2DB163
:104F6C002046FEF729FF00F0D9FB15E002994046D8
:104F7C00FFF7A3FC2046FEF71FFF00F0CFFB58B94C
:104F8C004EF60450CEF200004FF080510160BFF39A
:104F9C004F8FBFF36F8F00BFFFF76FFBD4F838A0B4
:104FAC000020BAF1000FA7D076E7002497E7002481
:104FBC0097E746F6582046F67D21C0F20000C0F275
:104FCC00000140F2E952FEF727F846F6B10046F62A
:104FDC007D21C0F20000C0F2000140F2F252FEF757
:104FEC001BF846F6511046F67D21C0F20000C0F2C7
:104FFC00000140F2ED52FEF70FF800002DE9F04FE2
:10500C0083B00028029100F08E800446006C0028CA
:10501C0040F095800D4600F027FA10B9002D40F0B5
:10502C009A80FFF72AFBA16BD1B154F8100F01390C
:10503C00A16270B1204600F0F8FA50B14EF604505F
:10504C00CEF200004FF080510160BFF34F8FBFF3E1
:10505C006F8F0124FFF738FB204603B0BDE8F08FBB
:10506C004EF6045904F1240801206E464FF0000B53
:10507C0002AFCEF200094FF0805A00BF029900290E
:10508C004DD0C0071CBF3046FFF703FCFFF71CFBDD
:10509C00FFF7C2FCFFF7F1FA94F84400FF2808BFB1
:1050AC0084F844B094F84500FF2808BF84F845B054
:1050BC00FFF70AFB3046394600F05AF860B120463B
:1050CC00FEF77AFE00F02AFBFFF7D7FAA56BFFF785
:1050DC00FBFAEDB925E000BFFFF7CFFAA56BFFF7A0
:1050EC00F3FA2DB12046FEF767FE00F017FB0FE038
:1050FC0002994046FFF7E1FB2046FEF75DFE00F00B
:10510C000DFB28B9C9F800A0BFF34F8FBFF36F8F09
:10511C00FFF7B3FAA16B00200029AFD085E700247C
:10512C0098E7002498E746F6582046F67D21C0F211
:10513C000000C0F2000140F28262FDF76DFF46F6FE
:10514C00642046F67D21C0F20000C0F2000140F25E
:10515C008662FDF761FF46F6B10046F67D21C0F28E
:10516C000000C0F2000140F28B62FDF755FF000019
:10517C0070B568B30D46B9B30446FFF77EFA42F634
:10518C00F80EC2F2000EDEF8003029684A1C16D068
:10519C0042F6600CD4E90002C2F2000CDCF80060AC
:1051AC00864201D093420CD29A1A914209D9881A9C
:1051BC002860DCF800002060DEF80000606000244D
:1051CC0002E0002001242860FFF77EFA204670BD23
:1051DC0046F6B84046F65141C0F20000C0F200015C
:1051EC0041F2A552FDF718FF46F6514103A0C0F25B
:1051FC00000141F2A652FDF70FFF00BF7078546911
:10520C00636B73546F576169740000002DE9F04FA4
:10521C0081B00B9D002D00F0D7800C9C002C00F071
:10522C00DC808146602000900098602840F0DE8091
:10523C0000980E460A9F2046602198469246FAF73F
:10524C00D1FF256366B104F134000021725C425435
:10525C001AB10F2901F10101F8D1002084F84300A3
:10526C00052F80F0CC8005EB8A00251D043820F03A
:10527C0007062846E762FFF7DFF904F11800FFF78D
:10528C00DBF9C7F10500216BA06130464A46434665
:10529C0024616462FEF7C9FD2060FFF7EEF942F26B
:1052AC003430C2F20000016842F22C1B0131016063
:1052BC00C2F2000BDBF8001042F6CC0A42F24017A7
:1052CC00C2F2000AC2F2000761B1DAF8000000284D
:1052DC0040D1DBF80000E16AC06A884298BFCBF885
:1052EC00004037E0CBF800400068012832D100269E
:1052FC00B819FFF796F91436642EF9D142F6300836
:10530C00C2F200084046FFF78CF942F64409C2F29B
:10531C0000094846FFF785F942F66800C2F2000022
:10532C00FFF77FF942F6E400C2F20000FFF779F9CB
:10533C0042F6D000C2F20000FFF773F942F23410CB
:10534C00C2F20000C0F8008042F23810C2F2000035
:10535C00C0F8009042F24030C2F200000168013106
:10536C00016042F24431C2F20001E06A0A689042E4
:10537C0088BF086000EB800007EB80014A68616120
:10538C009368C4E90223956057F820205D60511C96
:10539C0047F82010FFF798F9DAF8000080B1DBF835
:1053AC000000E16AC06A88420AD24EF60450CEF27E
:1053BC0000004FF080510160BFF34F8FBFF36F8F30
:1053CC00204601B0BDE8F08F46F6514121A0C0F255
:1053DC00000140F2F142FDF71FFE46F6514118A0C4
:1053EC00C0F2000140F2F242FDF716FE46F65141C2
:1053FC0007A0C0F2000140F2FA42FDF70DFE46F69E
:10540C0051410AA0C0F2000140F26472FDF704FEA3
:10541C007853697A65203D3D2073697A656F6628FB
:10542C00205443425F7420290000000075785072AC
:10543C00696F72697479203C2028352900000000BE
:10544C0070785461736B42756666657220213D20DD
:10545C0030000000707578537461636B427566663A
:10546C00657220213D20300042F6CC00C2F20000D3
:10547C00006848B142F23C30C2F200000068B0FA59
:10548C0080F04009400070470120704742F6F80058
:10549C00C2F20000006870472DE9F04F81B042F273
:1054AC003C30C2F20000006840B142F66400C2F227
:1054BC0000000168013101600020A7E042F6F8000D
:1054CC00C2F20000016842F65C0211F1010BC2F25B
:1054DC000002C0F800B021D342F23410C2F2000036
:1054EC0001680968002940F0948042F23813C2F236
:1054FC00000301681F680760196042F66001C2F280
:10550C0000010B6801330B600168096819B1006870
:10551C00C068006801E04FF0FF30106010688345F0
:10552C0001D200206AE042F2341AC2F2000ADAF820
:10553C000000006800285DD042F2443942F2401E5F
:10554C0042F22C18C2F20009C2F2000EC2F200089C
:10555C00002000BFDAF80010C968CE68374657F84B
:10556C00045FAB4541D3D6E9023571694A689D6049
:10557C00BA426B6008BF4D600A68B56A013A0A60AE
:10558C007DB1D6E90721D5F804C006F118039C4576
:10559C0091604A6008BF6960296800220139B262D3
:1055AC002960F56AD9F800108D4288BFC9F80050FF
:1055BC0005EB85010EEB8102536872619C68C6E9AC
:1055CC0002349F605EF8213067605A1C4EF821202F
:1055DC00D8F80010C96ADAF800208D4288BF012083
:1055EC0011680029B6D14FF0FF3542F65C02C2F2C9
:1055FC00000202E04FF0FF350020156042F6041166
:10560C00C2F200010968002918BF012001B0BDE8F1
:10561C00F08F46F6D22046F65141C0F20000C0F29F
:10562C00000141F25F22FDF7F7FCB0B5C068C0681D
:10563C00002867D0D0E90713826A00F1180CD2F861
:10564C0004E08B60E645596008BF53601368002185
:10565C008162591E116042F23C31C2F200010968AC
:10566C0089B142F66801C2F20001D1E900238162DE
:10567C009D68C0E90735C3F808C0531CC26AC5F859
:10568C0004C00B602DE0D0E90213426900F1040C58
:10569C00D2F804E08B60E645596008BF536011688E
:1056AC0042F2443301391160C2F20003C26A196834
:1056BC0042F2401E8A4288BF1A6002EB8201C2F29B
:1056CC00000E0EEB81035C684361A568C0E90245DE
:1056DC00C5F804C05EF82150C4F808C0681C4EF828
:1056EC00210042F22C10C2F200000068C06A824213
:1056FC0091BF002042F60411C2F20001012088BFC4
:10570C000860B0BD46F6F73046F65141C0F20000D5
:10571C00C0F2000141F2F542FDF77EFC2DE9F04F9D
:10572C0081B0FEF7AAFF42F23C30C2F200000168E1
:10573C00002900F0A880016801390160006830B1CF
:10574C000024FEF7C1FF204601B0BDE8F08F42F205
:10575C003430C2F2000000680028F1D042F6680B29
:10576C00C2F2000BDBF8001042F6041942F22C18BE
:10577C000029C2F20009C2F200085FD042F2443A9A
:10578C0042F240134FF0000EC2F2000AC2F20003C4
:10579C004FF0010CDBF80C70FC68A76AD4E90756D3
:1057AC00796804F118029142AE60756008BF7E60A2
:1057BC003968C4F828E001393960261D6769D4E9D5
:1057CC0002157A68B2428D60696008BF7D603968E5
:1057DC0001393960E76ADAF800108F4288BFCAF8DD
:1057EC00007007EB870103EB810255686261A868C2
:1057FC00C4E90250466053F82100AE60013043F812
:10580C002100D8F80000C06A874288BFC9F800C0E0
:10581C00DBF800000028BDD142F23410C2F20000C7
:10582C000168096819B10068C068006801E04FF0B0
:10583C00FF3042F65C01C2F20001086042F66404DB
:10584C00C2F20004266856B1012700BFFFF724FE00
:10585C0008B1C9F80070013EF8D100202060D9F8D9
:10586C00000000283FF46CAFD8F800004EF604504E
:10587C00CEF200004FF080510160BFF34F8FBFF3A9
:10588C006F8F01245DE746F6514103A0C0F2000181
:10589C0040F68B72FDF7C0FB7578536368656475D1
:1058AC006C657253757370656E64656420213D2060
:1058BC003055000080B586B0FEF780F842F6FC004B
:1058CC00C2F20000006808B30020CDE9040005A86E
:1058DC0004A903AAFEF78CFEDDE903200321DDF801
:1058EC0014C00023CDE9001043F62D40C0F2000097
:1058FC000BA1CDF808C0FFF789FC42F60011C2F2EB
:10590C000001086010B1012006B080BD46F6D04100
:10591C0005A0C0F200014FF4A372FDF77DFB00BFA0
:10592C00546D7220537663007852657475726E00F4
:10593C004100080218BF04200A0E18BF40F00100F5
:10594C004FF07F4232EA010108BF40F0020001280B
:10595C0008BF05207047000010B5002821D0114B5E
:10596C000022001F196803E0814203D80A464968E7
:10597C000029F9D152B11368841A9C4204D10068F1
:10598C0018441060104602E0506000E0186039B115
:10599C0002680B1A934203D10B681A4402604968DF
:1059AC00416010BD4400002010B510EE104A4FF0BD
:1059BC001A402DED028B00EB4400B0F1C85F4AD8C1
:1059CC004FF0FC40B0EB440F22D2B0EEC00AF7EE21
:1059DC00000A30EEC00AF6EE000A20EE208A18EE1D
:1059EC00100A00F037FD00EE100A14F0004F1DBF36
:1059FC009FED281ADFED280AB1EE400A9FED271A19
:105A0C0008BFF0EE410AF8EE001A20EE210A05E07C
:105A1C0020EE008A9FED221ADFED220ADFED221A1A
:105A2C009FED222A70EEC00A20EE080A08EE212A09
:105A3C00DFED1F1A48EE021A9FED1E2A08EE212AEE
:105A4C00DFED1D1A48EE021ABDEC028B40EE610A26
:105A5C0030EE810A10BD4FF0CC40B0EB440F82BF4A
:105A6C009FED160ABDEC028B10BD4FF07F40B0EBE2
:105A7C00440F05D2BDEC028BBDE8104000F024BCF5
:105A8C00012000F0E1FCBDEC028BBDE8104000F001
:105A9C0021BC00000000494022AA7D3A0000000011
:105AAC000000C93F22AAFD3924FE1C3DC78AD83C00
:105ABC001E67383D1B93993DAFAA2A3EDB0FC93FA9
:105ACC0070B54FF068422DED048BF0EE408A18EE65
