:020000040000FA
:10000000E015002049530000C93F000025170000FB
:1000100025170000251700002517000025170000F0
:100020000000000000000000000000005553000028
:100030002517000000000000D14200001F540000FE
:10004000935D0000415B00008D5C0000935D00004B
:10005000955E0000F16E000009700000BD6F0000A9
:100060007F6E0000F16E000009700000BD6F00009F
:100070007F6E0000F16E000009700000BD6F00008F
:100080007F6E00005D740000917400001974000020
:100090003B740000F16E000009700000BD6F0000AD
:1000A0007F6E000000000000000000000000000063
:1000B0000100000000001008000000000000000027
:1000C0000000000000000800000000000000000028
:1000D000000000004000A100030B00000000000031
:1000E000037400000273000002730000027300003A
:1000F000027300000273000002730000027300002C
:1001000002070000050500000370E0000571C00053
:1001100000606000006060000060600000606000DF
:1001200000000000A01E0020C81E0020B81E0020F5
:10013000481E0020CC1E0020AC1E0020B01E002057
:10014000A41E0020A81E0020D01E0020B41E0020E7
:1001500000000000000096420000D24200000000B3
:1001600000000000000000004D6573736167655F6B
:100170004D616E61676572000000000000000000C4
:10018000000000000000000000000000000000006F
:100190000000000000000000010000001D00000041
:1001A0000A00000004000000010000000E00000032
:1001B0000500000001000000A89F000000000000F2
:1001C0000100000000000000003E00006801002067
:1001D000010000009800002000000800000000005E
:1001E00000000000000000000000100800000000F7
:1001F00000000000000000004000350040003D000D
:1002000000000800000000000000000000000000E6
:020000040000FA
:100210002DE9F05F0546002092469B46884606463B
:10022000814640241BE0284641464746224600F0CE
:10023000C1FA53465A46C01A914110D31146184686
:10024000224600F0A8FA2D1A67EB01084F46224615
:100250000120002100F09FFA17EB00094E41201EFB
:10026000A4F10104DFDC484631462A464346BDE896
:10027000F09F40EA01039B0703D009E008C9121F61
:1002800008C0042AFAD203E011F8013B00F8013B50
:10029000521EF9D27047D2B201E000F8012B491E7C
:1002A000FBD270470022F6E710B513460A46044613
:1002B0001946FFF7F0FF204610BD10B5002200E000
:1002C000521C835C8C5CA34201D1002BF8D1D8B2C4
:1002D000E1B2401A10BD034611F8012B00F8012BC2
:1002E000002AF9D1184670470246014400E0521C2A
:1002F0008A4202D21378002BF9D1101A704710B538
:100300004843044609F0F4FA002805D00021002CE7
:1003100002D0641E0155FAE710BD2DE9FE4F80465C
:1003200081EA0300C00F0C46009021F0004123F049
:100330000045B8EB0200A94105D24046214690464F
:100340001C460B46024623F00040104347D0270DC1
:10035000C7F30A00C3F30A510290401A01904028E3
:100360006BDAC3F3130040F4801B0098924620B16F
:100370000023D2EB030A63EB0B0B01985946C0F143
:100380004002504600F007FA06460D4650465946D0
:10039000019A00F01FFA10EB08006141002487EA7F
:1003A000115284EAE7731A4340D0009A62B3019A6B
:1003B000012A4FEA075215DC001B61EB02014FF0E6
:1003C000004202EA0752CDE90042001C41F58011CB
:1003D00032462B4600F056FA03B0BDE8F08F404697
:1003E0002146F9E7001B61EB0201001C41F5801377
:1003F00000185B412018A2F5001747EB030140EA03
:10040000D570B6196D4111E06D084FEA360645EA20
:10041000C0754FEA0752001B61EB0201001C41F559
:10042000801149084FEA30000019514132462B46ED
:1004300003B0BDE8F04F00F016BA0098012240006A
:100440000023D0EB020263EBE073009821464FEAF1
:10045000E074B8EB000061EB0401E9E783F00043CE
:100460005BE781F0004158E72DE9FE4F81EA030484
:1004700004F0004421F0004100944FF0000B23F001
:10048000004350EA01045ED052EA03045BD0C3F398
:100490000A54C1F30A552C44A4F2F3340194A0FB8E
:1004A0000254C1F3130141F48011C3F3130343F465
:1004B000801301FB024400FB034E840A970A44EABE
:1004C000815447EA8357A4FB076802958D0A05FB10
:1004D00007854FEA932C04FB0C542705029D4FEA35
:1004E000065847EA1637B5EB08056EEB070C870E82
:1004F000920E47EA811742EA8312A7FB0201B6EB8C
:100500000B0164EB00042B0D43EA0C335E1844EB43
:100510001C50DA465146E7FB0201C5F313044FEACB
:100520000B3343EA14534FEA0432019C43EA0603B7
:10053000A4F10C040294009CCDE900B400F0A2F9EF
:1005400003B0BDE8F08F00200146F9E72DE9F04D3A
:1005500081EA030404F0004B21F0004514464FF0FB
:10056000000A23F0004150EA050220D054EA0102BB
:100570001DD0C5F30A570246C5F31303C1F3130098
:10058000C1F30A5640F4801543F48013A7EB060824
:10059000101BD64608F2FD3873EB050002D308F1B4
:1005A000010801E092185B41B8F1000F03DA002066
:1005B0000146BDE8F08D00204FF4801106468446C8
:1005C0000EE0171B73EB050705D3121B63EB050346
:1005D00006434CEA010C49084FEA300092185B418F
:1005E00050EA0107EDD152EA030012D082EA04007A
:1005F00083EA0501084305D0101BAB4106D2012256
:10060000002306E000224FF0004302E06FF00102F9
:1006100053101AEB06004CEB085110EB0A0041EBAB
:100620000B01BDE8F04D00F01EB930B5041E71F1AC
:10063000000404DB4FF00044404264EB0101141E4F
:1006400073F1000405DB1C464FF00043524263EB9C
:100650000403801A994101D3012030BD002030BD30
:1006600030B5041E71F1000404DB4FF00044404239
:1006700064EB0101141E73F1000405DB1C464FF00E
:100680000043524263EB0403101A8B4101D2012054
:1006900030BD002030BD30B5041E71F1000404DB14
:1006A0004FF00044404264EB0101141E73F100045A
:1006B00005DB1C464FF00043524263EB0403101A63
:1006C0008B4101D3012030BD002030BD30B5041E68
:1006D00071F1000404DB4FF00044404264EB01017F
:1006E000141E73F1000405DB1C464FF00043524218
:1006F00063EB0403801A994101D2012030BD002030
:1007000030BD30B4044696230800214604D0B623F9
:1007100030BC002200F079B820460021F8E70EB581
:1007200040F2334102910021CDE900110A460B4607
:1007300000F0A8F803B000BD00F0004230F0004027
:100740000AD0C10D01F56071C0F3160042EA0151F3
:10075000C20840071143704700200146704701F06E
:10076000004330B421F0004150EA010206D00A0DE6
:10077000A2F56072C1F31301002A02DC30BC002034
:100780007047440F44EAC104C100E01830BC00EBDC
:10079000C25000F031B8202A04DB203A00FA02F1FE
:1007A000002070479140C2F1200320FA03F319435F
:1007B00090407047202A04DB203A21FA02F0002101
:1007C000704721FA02F3D040C2F120029140084361
:1007D00019467047202A06DBCB17203A41FA02F06F
:1007E00043EAE07306E041FA02F3D040C2F120028E
:1007F00091400843194670470029A8BF7047401C24
:10080000490008BF20F00100704710B4B0FA80FC26
:1008100000FA0CF050EA010404BF10BC704749B163
:10082000CCF1200421FA04F411FA0CF118BF0121D3
:1008300021430843A3EB0C01CB1D4FEA00614FEAB3
:10084000102042BF002010BC704700EBC350104482
:100850000029A4BF10BC7047401C490008BF20F00D
:10086000010010BC704710B5141E73F1000408DAC3
:10087000401C41F1000192185B411A4301D120F064
:10088000010010BD2DE9F04D92469B4611B1B1FA21
:1008900081F202E0B0FA80F220329046FFF77BFF4F
:1008A00004460F4640EA0A0041EA0B0153465A4605
:1008B000084313D0114653EA010019D0C8F1400291
:1008C0005046FFF777FF05460E46504659464246CA
:1008D000FFF761FF084305D0012004E020463946B8
:1008E000BDE8F08D0020054346EAE0762C4337430F
:1008F0000A986305E40AA0EB08000022FD0A44EA16
:1009000047540A3002D500200146E9E701051019D5
:100910006941DDE9084500196941BDE8F04DA2E7EC
:100920002DE9F04D00231A461B1A8A4103DB0020F3
:100930000146BDE8F08DC1F30A52C1F3130141F441
:1009400080154FF0000BD10702D100186D41521EE7
:100950000027044640F2FF11384601EB620A3E468A
:100960008046024600204FF48011FFF723FFC21992
:100970007141BB1846EB0100B4EB030C75EB000CA6
:1009800004D3E41A65EB000517460E46241908F156
:1009900001006D4180463428E3DDF91946EB06007D
:1009A000091BA84103D24FF0FF32134601E0002299
:1009B00013461BEB070046EB0A51BDE8F04DFFF76D
:1009C00052BF000030B5041E71F1000404DB4FF08B
:1009D0000044404264EB0101141E73F1000405DB86
:1009E0001C464FF00043524263EB04038B4208BFA6
:1009F000824230BD0EB5C10F80EAE0700844CA07DC
:100A0000002140F233438DE80E000A460B46FFF703
:100A100039FF03B000BD70B5C1F30A5201F00045C3
:100A20000024C1F3130140F2FF3341F480119A42D4
:100A300001DA002070BD40F233439A42A2F2334201
:100A400003DC5242FFF7B6FE00E090402C43F1D0A9
:100A5000404270BD2DE9F041044600284FF00000EF
:100A60002DD041F2D865C2F2000529780F2926D889
:100A700041F2D468C2F20008D8F8000008B301209F
:100A80008421FFF73CFC10B394E8CE00C0E9066374
:100A9000C0E900122978D8F800304A1C64692A702D
:100AA00041F2DC62C2F20002002B0762C0F8804013
:100AB00042F8210018BFBDE8F081C8F80000BDE889
:100AC000F081D4E9000103F0B1FE0028D7D0002066
:100AD000BDE8F08110B584B0CDE9010140F61530D4
:100AE000C0F200001C22039068468DF8002004F03C
:100AF00093FD41F2D06141F25464C2F20001C2F2AE
:100B00000004086020461C21FFF7CCFB204604B0FF
:100B100010BD000041F2D060C2F20000016800295F
:100B200065D02DE9F04F87B042F6040291F800310C
:100B3000C2F20002108863B142F60605C2F2000557
:100B400011F8017B86B20130013BC0B2AF55F7D13D
:100B5000108042F60611C2F200010A88801AC1B262
:100B60001C2941D34FF6E47404F1170742F606003E
:100B70001FFA87FE41F254696B46C2F2000004F18D
:100B80001B08C2F2000900BF96B20027F419E4B2B4
:100B9000045DDC5501371C2FF8D19DF80060AA2EAA
:100BA0004FF0010614D1BDF81A707745474610D1B1
:100BB0009DE8D0000DF10C0C9CE8201C89E8D000C9
:100BC00009F10C041C264FF6E47784E8201C00E0B1
:100BD000474639448FB232441B2FD2B2D4D842F6A2
:100BE0000610C2F20000028007B0BDE8F04F704767
:100BF000B0B50A464FF00004B1B10146A0B141F2D0
:100C0000D065C2F20005286870B190F810315BB968
:100C1000012480F81041D0F8040104F056FB18B10B
:100C20002868002480F810412046B0BD80B541F20C
:100C30008460C2F200005A21017041F6E421C2F240
:100C40000001CA6A0B6EC0F80120D1F8FC20D1F86F
:100C500094C0D1F8C8E0C0F80530D1F83031C0F800
:100C600011204022C0F809C0C0F80DE0C0F81530CE
:100C70008B5C2BB13432B2F5BC7FF9D1012100E09D
:100C800000214FF6FB7241761C214283BDE8804073
:100C9000FFF7AEBFFFF7DEBE70B5044644F82C1F69
:100CA00006460020082B1D46C4E90100206128BF2C
:100CB0000825257332B12BB106F1400011462A46B2
:100CC000FFF7D7FA30682921224603F05FFFB0FA18
:100CD00080F0400970BD00002DE9F04742F2C224C7
:100CE000C2F200042078002800F0988041F69809AC
:100CF00042F6C41A4FF00008C2F20009C2F2000A1C
:100D0000002500BF59F82560D6E9080196ED7E0A56
:100D1000B1EE401A012941FE000A410716D5F169DA
:100D2000042913D1F06A012805D1B06B002808BF4F
:100D300006F1140001E006F1140090ED000A06F53A
:100D4000B47003F063F9306AF0EE400A800720D5F2
:100D5000307F10F0060F1CD096F83400800705D5C0
:100D6000306C18B190ED000A70EE800A306B0128EB
:100D700005D1F06B002808BF06F10C0001E006F178
:100D80000C0090ED000A06F1D80003F03FF9F0EEF8
:100D9000400A96F83400C00705D0706C18B190ED89
:100DA000000A70EE800A96F82000C0070BD0B6F952
:100DB000100000EE100A06F14800B8EEC00A03F079
:100DC00025F9F0EE400AD6F80002022808BFD6ED59
:100DD0007E0AB06AB1EE600A012896F8080200FEA9
:100DE000200A00EB4011BDEEC00A96F809020AEB9A
:100DF000810110EE102A01EB4003170A83F82470DA
:100E000083F82520D6F810221AB940000844A0F82B
:100E10002480207801358542FFF474AF42F6C41473
:100E200042F650360025C2F20004C2F2000600BFAE
:100E3000705D30B1E16904F1240220460823FFF718
:100E40002BFF0135032D04F1840408BFBDE8F087B2
:100E5000EEE72DE9F04184B000284FF0000400F0E7
:100E6000B98042F2C228C2F20008054698F8000094
:100E70000B2800F2AF8001204FF40871FFF73FFA12
:100E8000002800F0A6800446D5E92E10D5E928CE2A
:100E900005F1A807CCCFC4F80C0204F12400CCC0A3
:100EA000616304F1480005F11001C4E907CE03F0C5
:100EB000E9F904F1D80005F1400103F0E3F904F584
:100EC000B47005F1700103F0DDF995E80F0004F14D
:100ED000380C8CE80F00D4F80C32D5F8C810DA1EA4
:100EE00005F1C0004E1E022A4FF0000207D2F3B2F5
:100EF000042B38BF0122134640F201220BE0022BE3
:100F000010D1F2B20023032A88BF0123042A4FEA3A
:100F1000430340F2052252FA86F228BF4E1F1146C3
:100F2000324600E0002342F65037C5F8CC1041F2BB
:100F30005151C2F200070126C0F20001FE5484F8AC
:100F4000092284F80832C5E93441FFF7A3FEC4F84A
:100F50000402D8B3054698F80000E8B942F6C41672
:100F6000C2F2000630464FF4C671FFF79BF9D5E98F
:100F7000000140F2FF12F261C6E90001C6E9210159
:100F80004FF40070C6F8A000D5E90001C6E942019F
:100F900040F2FF20C6F824010220019040F6DD70E7
:100FA000C0F20000CDE9020401A800F092FA98F81E
:100FB00000200121C4E98410501C88F8000041F68B
:100FC0009800C2F2000040F8224003E0204607F0FB
:100FD0000BFD0024204604B0BDE8F08110B10021D3
:100FE000C0F81012704708B1C0F800127047000036
:100FF000B0B5056A002D00F0EE800446686808B1BF
:1010000000F085FA207A0138032800F2E280DFE858
:1010100000F002B12D696089A18900EE100AE08913
:1010200003EE101AB8EE400A9FED711AB8EE433A7B
:1010300004EE100A20EE010A9FED682A23EE013A21
:10104000B8EE444A80EE020A83EE023A24EE011A18
:10105000142081EE021A9FED672A30EE020A33EE69
:10106000023A85ED030A85ED043AADE06089B421CA
:1010700000FB01F09FED591A00EE100AA089B8EEAE
:10108000400A4FF4B47180EE010A00FB01F0E289DE
:1010900002EE100A02FB01F0B8EE422A03EE100A3B
:1010A00082EE012AB8EE433A95ED124A83EE011A18
:1010B0009FED4B3A342030EE030A95ED113A30EEB5
:1010C000430A95ED103A85ED0E0A9FED460A32EE81
:1010D000002A31EE000A32EE431A30EE440A85ED62
:1010E0000F1A73E0E17AA07A227B090160F30D31D7
:1010F000637B41EA121C7C219B0001EA5000617A6B
:1011000062F38D23A27B40EAC11043EA9213E17B94
:1011100000EE100A4FEA4C0062F30D2102EE100AB5
:10112000580003EE100A4800B8EE400A9FED2A1A54
:1011300004EE100A80EE010AB8EE422AB8EE433AF5
:10114000B8EE444A82EE012A83EE013A84EE011A97
:10115000BFEE004A302030EE040A85ED090A32EE77
:10116000042A33EE043A31EE040A85ED0A2A85EDAD
:101170000B3A2BE06089A18900EE100AE08903EEAA
:10118000101AB8EE400A9FED181AB8EE433A04EE72
:10119000100A20EE010A9FED112A23EE013AB8EE63
:1011A000444A80EE020A83EE023A24EE011A20201D
:1011B00081EE021A9FED0D2A30EE020A33EE023A5A
:1011C00085ED060A85ED073A31EE020A284480EDE6
:1011D000000A00202870B0BD00FC7F4600FF7F475A
:1011E0000000B4C2000034C31F858B421F850BC2B0
:1011F0003333EB4233336BC270B584B04FF000042D
:10120000B0B342F2C426C2F2000605463078022886
:101210002ED801205021FFF772F840B30446C820B1
:10122000019041F60570C0F20000CDE9020401A86A
:1012300000F04FF9606040F6F170C0F20000C5E9BF
:1012400004402846FFF726FDA06068B101203178F0
:10125000207000202064481C307041F21460C2F2FB
:10126000000040F8214003E0204607F0BDFB0024C9
:10127000204604B070BD41F21060C2F20000017857
:1012800001B1704781B00121017041F20401CEF239
:1012900000010968009141F20861C2F20001009A60
:1012A0000B689A4206D241F20C62C2F20002136845
:1012B00001331360009A0A600021017001B0704789
:1012C00041F2040041F2FC52CEF20000C2F20002F0
:1012D0000168126872B101EE102AB8EE411A20EED0
:1012E000010ABCEEC00A10EE102A00BF03685B1AA8
:1012F0009342FBD3704780B52DED028B82B041F253
:101300000401CEF200010968019101990268891A6D
:1013100000EE101A41F2FC51C2F2000191ED001AE8
:10132000B8EE400AB8EE411A019980EE018A0160D8
:10133000FFF7A1FFB0EE480A02B0BDEC028B80BD02
:1013400080B52DED028B00F070F841F23860C2F2EA
:101350000000D0E90001FFF7D4F908EE100A41F2CD
:101360004060C2F20000D0E90001FFF7CAF901EEC7
:10137000100A41F24860C2F200009FED0A0AD0E96B
:10138000000128EE000A30EE018AFFF7BAF900EEFC
:10139000100A9FED051A20EE010A30EE080ABDEC96
:1013A000028B80BD00007A446F12833A4EF6FC51E6
:1013B000CEF200010A684FF0000C42F080720A6021
:1013C00041F20001CEF20001C1F804C00B6844F202
:1013D0004022C0F20F0200FB02F043F001020A605B
:1013E00041F2FC51C2F20001086044F6D351C1F24F
:1013F0006201A0FB0112910941F20062C2F20002F7
:1014000011604DF68361C4F21B31A0FB0101880C11
:1014100041F20461C2F20001086041F20C60C2F2C4
:101420000000C0F800C0FFF726BF70B582B041F2DF
:101430000400CEF2000000680190FFF71CFF41F2AB
:101440000C60C2F200000068019C00254FF0FF31E3
:10145000E0FB014541F2FC50C2F200000668204664
:10146000294632460023FEF7D3FEA0FB062301FBEC
:101470000633A41A41F20062C2F200029D4141F219
:1014800038631668C2F20003C3E90001204629460A
:1014900032460023FEF7BCFE41F24062C2F2000277
:1014A000C2E90001A0FB060201FB062141F2046231
:1014B000C2F20002201A126865EB01010023FEF758
:1014C000A7FE41F24862C2F20002C2E9000102B086
:1014D00070BD10B5044601201021FEF710FFD4E9BD
:1014E00001122388002BC26042F2C122038108BF8F
:1014F0006423C2F20002038013784160591C11700A
:1015000041F23471C2F2000141F8230010BD01889C
:101510000181704770B542F2C124C2F20004207804
:10152000A0B141F234760025C2F2000656F825102B
:101530000A891AB1013A0A8105E000BF4A6812B16E
:10154000C8689047207801358542EFD370BD000010
:10155000B0B5056A002D66D00446D5F8140208B16E
:10156000FFF7D5FF05F50670FFF7C5FEA88885EDE6
:10157000870A9FED2D1A688021899FED2C3A09BAC0
:101580000A0C00EE102AAA80B8EE400A9FED284A05
:1015900020EE010A95ED031A85ED020AC0EB114118
:1015A000628921EE041AD2BA02EE102AB5F910208F
:1015B000B8EEC22A9FED204A22EE032A9FED1D3A83
:1015C00031EE021AB1F5805F85ED031A01EE102AA3
:1015D000A289B8EEC11AD2BA02EE102A21EE041A7C
:1015E000B8EEC22A22EE032A31EE021ABDEEC11A6B
:1015F00011EE102A2A82A07BA87402DDA8690138A6
:1016000004E0A86911F5805F01DA0130A86101EEFC
:10161000100A9FED0A2AB8EEC11A21EE021A31EE25
:10162000000A85ED050AB0BDACFF333D3433A3405D
:101630009899193E6666663FD0CCCC3D0000B44315
:10164000B0B5056A002D5BD00446D5F8180208B184
:10165000FFF75DFFA8689FED2B1A6860207A9FED69
:101660002E2A2870B4F8090000BA000C00EE100A07
:10167000B8EE400A20EE010A9FED231A80EE010A1F
:101680009FED221A30EE010A9FED211A85ED020A24
:10169000E07A217B000140EA111000EE100AB8EE5A
:1016A000400A20EE010A9FED1B1A80EE010A30EE7F
:1016B000020A9FED1A2A20EE020A85ED030A207B1A
:1016C000617B00F00F0041EA00200B2100FB01F0DC
:1016D00000EE100AB8EE400A80EE010AB9EE061AD2
:1016E00030EE010A9FED0E1A85ED040AE08940BA3A
:1016F00000EE100AB8EE400A20EE010A85ED050A58
:10170000B0BD00BFB81EC9C100FF7F47B81E494128
:101710000000C84200F07F45000048C2E12E65424B
:10172000CDCCCC3D00BE704780B5C820FFF73EFE53
:1017300041F2A06049F63871C2F20000C0F2000127
:10174000FFF7C8F941F27061C2F20001086042F28D
:1017500010604AF27421C2F20000C0F2000103F0EE
:1017600093FF43F29441C2F20001086042F68C10EC
:101770004AF27831C2F20000C0F2000101F028F80C
:1017800042F27051C2F2000108600AA04C2102F03E
:10179000DFFD41F61411C2F20001086008A04FF409
:1017A000BE7103F021FE41F6E021C2F200010860A3
:1017B00080BD00BF64756D6D795F636D640000006E
:1017C00064756D6D795F66656564000080B541F68E
:1017D000E020C2F20000006841F6E421C2F20001FC
:1017E00003F0EDFD01F05AF903F094FFFFF71EFA44
:1017F00041F61410C2F20000006841F61811C2F25E
:101800000001BDE8804002F085BD000010B500F089
:10181000FBFB42F2A834C2F20004204600F024FC94
:1018200041F6641CC2F2000C0CF1400100226FF082
:10183000170304F1180E00BF5EF803001EF8024003
:1018400041F8140C0C700132043301F13401F3D16E
:1018500041F6C801C2F2000191E81C00C968CCE958
:101860000024CCE9023110BD70B5ADF5567D49F6C6
:1018700038411CA8C0F200014822FEF7FAFC6C4671
:1018800049F6C831C0F2000120467022FEF7F1FC93
:10189000204600F0FBFC51480DF5517CD0904FA044
:1018A000061D4ECE40698CE84E009AAC49F6804148
:1018B000D590C0F200012046D822FEF7DAFC64ADD4
:1018C00049F65851C0F200012846D822FEF7D1FC53
:1018D0002EAE49F63061C0F200013046D822FEF744
:1018E000C8FC204602F026FE42F28074C2F20004D8
:1018F00020602846FFF7ADFA42F28475C2F2000577
:1019000028603046FFF7A5FA216842F28874C2F2D7
:101910000004206011B1084602F048FD286810B1AB
:101920000221FFF760FB206810B10221FFF75BFB8B
:10193000D0A8FFF761FC42F2A034C2F2000420609C
:1019400028B1032100F003FB206800F0DFFA42F227
:101950004840C2F200001CA900F048FD42F2345495
:10196000C2F20004012500BFE8B200F099FB013586
:10197000A4EC010A072DF7D142F27C10C2F200005C
:101980000721002301704FF07C51C4F2FA33C0E903
:101990000131002100224FF4FA76C4F24821C0E957
:1019A0000321466113A04FF4BE7102F0D1FC41F651
:1019B0000061C2F20001086011A04C2103F014FD87
:1019C00041F60461C2F20001086042F2A530C2F2A1
:1019D0000000012101700DF5567D70BD7C250020B1
:1019E0000CA2000022000000220000000000000005
:1019F0000000000064756D6D795F666565640000C8
:101A000064756D6D795F636D6400000042F2A5300E
:101A1000C2F200000078012818BF7047F0B581B00D
:101A20002DED028B41F60460C2F2000041F6C807BA
:101A30000068C2F20007394603F0C1FC3868032889
:101A400000F29481DFE810F004002C0111002C005A
:101A50009FEDE08A451C00BFB0EE480AE8B200F0F6
:101A600074FC0135082DF7D180E1B3EE048A012022
:101A700097ED060AF0EE480A00F06AFC97ED070AB7
:101A8000F0EE480A022000F063FC97ED080AF0EE41
:101A9000480A032000F05CFC97ED090A042053E19A
:101AA00007F130064FCE42F66C35C2F200057C6C71
:101AB00085E84F0000206C6185F83C0041F21C7500
:101AC000C2F20005012600BFF0B200F0E9FA0136CB
:101AD000A5EC010A072EF7D142F2484042F66C31DC
:101AE00040F2101242F2C823C2F20000C2F200011A
:101AF000C2F20002C2F2000300F08EFD002800F0E6
:101B0000EF8042F2C82640F2101542F24840C2F27D
:101B10000006C2F20005C2F2000031462A4600F07B
:101B2000A3FC40F27001C2F200010028086000F13D
:101B3000DE8000EB40009FEDA02A06EBC00156F8C6
:101B400030C0D1E90342D1E9013642F65430496947
:101B5000C2F200009FED990A9FED993A9FED991A04
:101B6000C0E904210021C0E900C3C0E9026400BF4C
:101B700042186B1892ED034A93ED035A34EE456A0E
:101B8000B0EE425AB4EE406AF1EE10FA06DCB4EE62
:101B9000416AB0EE435AF1EE10FA04DA34EE054A27
:101BA0000C3282ED004A04310C29E1D190ED012A7A
:101BB0009FED853A90ED024A33EE422A9FED833A3B
:101BC0009FED856A32EE033A9FED825A33EE443A36
:101BD0009FED7F4A9FED817A82FE442A83FE463A3A
:101BE00082FE052A83FE073A33EE424AD0E9001608
:101BF000B2EE0E8AB5EE404AD0E90242F1EE10FA9A
:101C0000D0E9043C32FE033A9FED757A33EE426A26
:101C100090ED034AB4EE467AC5E9001684FE404AC8
:101C2000AC60F1EE10FAEA602B61C5F814C032EE38
:101C3000076A42F23455C2F2000536FE033A85EDDA
:101C4000012A84FE012A90ED045AD0ED050A85EDA3
:101C5000032A85ED023A9FED632A9FED633A85FEE4
:101C6000422A80FEC00A82FE032A80FE010A012663
:101C700085ED042A296085ED050A00BFB5EC010A4F
:101C8000F0EE480AF0B200F063FB0136072EF5D102
:101C900042F2C620C2F2000000210180012040E093
:101CA0007868012844D0002860D1B3EE0E8A012064
:101CB00097ED060AF0EE480A00F04AFB97ED070A96
:101CC000F0EE480A022000F043FB97ED080A0320DB
:101CD000F2EE0E0A00F03CFB97ED090A042041E009
:101CE00040F27000C2F200004FF0FF31016042F29A
:101CF000C620B2EE048AC2F20000018842F23455D6
:101D00000131C2F200050126018000BFB5EC010AD5
:101D1000F0EE480AF0B200F01BFB0136072EF5D1B9
:101D2000032041F66411C2F20001F860C8601DE0B2
:101D300097ED080A0320F2EE0E0A00F009FB97ED7A
:101D4000090A0420B3EE0E8AF0EE480A00F000FB08
:101D500097ED0A0AF0EE480A052000F0F9FA97ED2F
:101D60000B0A0620F0EE480A00F0F2FA02F02CFB13
:101D7000FEF7B2FF42F2A030C2F20000006808B1E4
:101D800000F0C4F8FFF742FD397A42F27C10C2F24B
:101D9000000000F0ADF941F60060C2F200000068FA
:101DA00041F66411C2F20001BDEC028B01B0BDE846
:101DB000F04002F0AFBA00BF0000B4C300003443EB
:101DC0000000B443000034C3000096420000D24239
:101DD00000000C4300000000000020420000DCC2B4
:101DE000000007C300000243000002C342F2BC200F
:101DF000C2F20000006842F29C120021C2F200020E
:101E0000117003F03FBC000042F2BC20C2F200009F
:101E10000168002975D02DE9F04F87B042F2981281
:101E200091F80031C2F20002108863B142F29D17AE
:101E3000C2F2000711F8016B85B20130013BC0B25C
:101E40007E55F7D1108042F29A19C2F20009B9F812
:101E50000010401A5FFA80FABAF11B0F4ED342F21B
:101E60009D1742F2A02B6E46C2F200074FF6FB7898
:101E7000C2F2000B88B200228318DBB2FB5CB354C1
:101E800001321B2AF8D19DF80000AA282CD1BDF8F8
:101E90001900404528D19DE83D10AAF11B0A8BE8A6
:101EA0001D00BDF8180042F29C12ABF818009DF816
:101EB0001A00C2F200028BF81A0001F11B00C1B235
:101EC00042F29410C2F2000000680123CBF81050D7
:101ED000CBF814C0A9F80010137058B1FFF717FB26
:101EE000B9F8001006E000BF481CC1B2AAF1010A0F
:101EF000A9F800101FFA8AF01A28BBD807B0BDE86D
:101F0000F04F704708B1012101707047F0B181684E
:101F1000E1B180B5C36CD1F81CE05A1E4FEA1E2C0B
:101F2000042A28BF0323CC2281F824E081F825C0AD
:101F300081F8263081F82720806840F2FF6100F1A7
:101F400024020423BDE88040FEF7A6BE704700B11E
:101F5000C16470474169C1F3C312A2F1080313F1D0
:101F6000070F4ED301F07F01A1F12103042B88BF9D
:101F7000704710B541F6604E4FF0340CC2F2000EBF
:101F800012FB0CE1DFE803F0033612300C00027C98
:101F9000042A34D382684A62027C052A20D22EE0C9
:101FA000027C042A24BF8068886228E0037C042B1A
:101FB00025D3836842F2C834C2F2000400EE103A1E
:101FC0009FED101A04EB021220EE010A92ED001AA6
:101FD0008B6180EE010A027C052A81ED070A0ED38F
:101FE000007B81F830000AE0027C042A07D3806875
:101FF000C86204E0027C042A01D380680862BDE85C
:10200000104070470000B44370B52DED048B0024E0
:10201000FFF796F9B0EE408A9FED129A41F66045BF
:10202000C2F20005002600BFA91991F84500012859
:1020300010D191ED120A38EE400AB4EE490AF1EEE1
:1020400010FA07DD91F8440081F845400121012292
:1020500003F0A1F93436B6F5B67FE5D1BDEC048BBB
:1020600070BD00BF00007A44C8B12DE9F04100F115
:10207000180800276FF017067D1CECB2204600F010
:102080000FF808EB060080ED000A204600F01CF86F
:1020900008F8070004362F46EED1BDE8F04170473E
:1020A000A0F1080111F1070F3CBF9FED060A704730
:1020B00041F66041C2F20001342210FB021090EDA3
:1020C000070A704700000000A0F1080111F1070F96
:1020D0003CBF0020704741F66041C2F2000134224B
:1020E00010FB021090F83000002818BF0120704744
:1020F00070B5002800F0C88004780546A4F10800F7
:10210000C0B2F928C0F0C080012915D0002940F0E4
:10211000BB8095ED030AD5ED040A204600F018F9BE
:1021200041F22060C2F200000021017041F22460FF
:10213000C2F20000016070BD41F22066C2F20006EA
:102140003078012814D0002844D141F66040C2F212
:102150000000342114FB0100002195ED010AD5EDAA
:10216000040A4162204600F0F3F80120307070BD8F
:1021700041F22861C2F2000108780130C2B2052A9A
:1021800008700CD341F22C60C2F2000000680022FB
:102190000A7020B1E10121310023FEF77DFD41F6F7
:1021A0006040C2F20000342114FB010095ED021AD8
:1021B00090ED090A41F22461B0EEC00AC2F20001BA
:1021C000B4EE410A0B68F1EE10FA3ADAA3F13200EC
:1021D000086059E041F22161C2F200010878013043
:1021E000C2B2052A08700CD341F22C60C2F2000082
:1021F000006800220A7020B1E10121310023FEF7BE
:102200004BFD95ED010A95ED031A41F66040B4EEE1
:10221000410AC2F20000B8EE080A3421B0EE081AF2
:1022200014FB0100F1EE10FA31FE000A90ED071ADE
:10223000D5ED040A30EE010A2046BDE8704000F0FA
:1022400087B86A69013393420B601DD9B3EB420F23
:1022500084BF52000A6095ED010A95ED031AD5ED91
:10226000040AB4EE410AB8EE080AB0EE081AF1EE1C
:1022700010FA31FE000A90ED071A204630EE010AEE
:1022800000F066F8022071E770BD00002DE9F04310
:1022900087B042F2A438C2F2000898F80010002972
:1022A00050D1054600200490CDE9020042F27C5056
:1022B000C2F2000000904AF20C20C0F2000001902F
:1022C00041F65570C0F2000005906846FEF7C2FB6B
:1022D000814641F22C60C2F20000C0F8009095B136
:1022E00042F2C8300021C2F2000000BF6A18D2E9F1
:1022F00001746B581031D2680E1870290B50C6E962
:102300000174F260F2D141F66045C2F20005284640
:102310004FF4D071FDF7C6FF05F14400012100BF65
:1023200000F8341B01310829FAD10125B9F1000F59
:10233000069505D006AA484601210423FEF7ACFC09
:1023400088F8005007B0BDE8F083032103F00EB811
:10235000A0F1080111F1070F38BF704780B582B0B6
:1023600042F2C831C2F2000101EB00119FED1D3AAB
:1023700091ED031A91ED022A81FE400A9FED1A1A8F
:1023800082FE000A80EE010A80EE811A91ED002A99
:102390000979B4EE423AB7EE003AF1EE10FA33FEA4
:1023A000022A002941F22C61C2F200010B6822EEE0
:1023B000003A22EE400A21EE021A03FE000AB0EEB5
:1023C000C11A8DED000A8DED011A33B1C001C11D96
:1023D0006A4618460823FEF75FFC02B0BDE880405D
:1023E000704700BF6F12833A0000B443C8B32DE9B1
:1023F000F0412DED048B0D4679B3EC210446FDF739
:1024000051FF204629464822FDF733FF4AF2E820D3
:10241000C0F2000000F160054FF00008002700BF87
:1024200015ED180BE61951EC100B95ED008B15ED21
:102430000C9BC6F84880FEF792F9F06451EC190B3A
:10244000FEF78DF9306551EC180BFEF788F910375F
:10245000602F05F108057065E2D1BDEC048BBDE885
:10246000F0417047000000002DE9F04F81B02DEDE4
:10247000108B84B000294FF0FF30009100F0A18054
:102480009246002A00F09D8000989FED510BC030CD
:102490009FED578A9FED579A55EC107B9FED4EAB01
:1024A0009FED4FBB9FED50CB9FED53DA01904FF066
:1024B000FF30002303EB43020199895C00297CD0A3
:1024C0000099B0EE49EA01EBC20B4FF000094FF062
:1024D0000008CDE9023000BF5BF82800FEF72CF9B8
:1024E00004465AF828000E46FEF726F902460B4627
:1024F00020463146FDF7B2FF3A462B4641EC1F0B12
:10250000FEF793F870B900BF51EC1F0B53EC1A2B78
:10251000FDF703FF3A462B4641EC1F0BFEF7D6F8BA
:102520000028F1D154EC1B6B51EC1F0B32462346B3
:10253000FEF7B1F870B900BF51EC1F0B53EC1C2B28
:10254000FDF7EBFE3246234641EC1F0BFEF788F801
:102550000028F1D151EC1F0BFEF701F920F00040EB
:1025600000EE100AB4EE4D0AF1EE10FA14DC23A0CE
:1025700000EB8800B8F1040F90ED001A08F1010893
:1025800021EE000A4FF0000930EE0EEA88BF4FF04E
:102590000109B8F1060F9FD1B4EE48EA0020F1EE30
:1025A00010FAB8BF012000EA090010F0010008FE8F
:1025B0000E8ADDE9023018BF18460133082B7FF47C
:1025C00079AF04B0BDEC108B01B0BDE8F08F00BF57
:1025D000000000000080664000000000008076C01F
:1025E00000000000008066C000000000008076400F
:1025F000FFFF7F7F000000000000AA430000C040F2
:102600000000A040000080400000004000000040AA
:102610000000803F0000000000294FF0000008BFCC
:1026200070472DE9F04FADF5057D9946002B00F080
:10263000C2800C464846D821FDF734FE94E861007C
:10264000FEF77AF841EC100B28468DED780BFEF77B
:1026500073F841EC100B30468DED7A0BFEF76CF8F9
:1026600094F83C2041EC100B012A8DED7C0B21D11C
:1026700018344FF0000804AD00272E46E059FEF74D
:102680005BF841EC100B04370C2FA6EC020BF5D1D4
:1026900008F101080C34B8F1030F05F11805EBD16E
:1026A00004A801F0EDFB7EA880EC060B16A878A923
:1026B0007EAA3AE0D4E9030AD4F81480FEF73CF885
:1026C0009FED3F0B54EC105B23462A46FDF7CCFEF2
:1026D0009FED3D0B57EC106B3B463246FDF736FF46
:1026E00041EC100B50468DED040BFEF725F82A4601
:1026F0002346FDF7B9FE32463B46FDF727FF41EC86
:10270000100B40468DED060BFEF716F82A462346C1
:10271000FDF7AAFE32463B46FDF718FF41EC100BD1
:1027200016A878A98DED080B04AA00F011FB769885
:1027300000210028C8BF0121012800913ADB9FED4C
:10274000220B09F1C00157EC106B9FED1D0B0138F6
:102750000291072828BF072054EC105B019000204D
:102760000DF1580A4FF0000BD0460390B8EC020B65
:1027700032463B4651EC100BFDF776FE2A462346C7
:10278000FDF7E4FEFDF7EBFF49F80B000BF1040B3E
:10279000BBF1180FEAD1039A029902EB4200012320
:1027A0000B54019809F11809824202F101000AF163
:1027B000300AD7D100980DF5057DBDE8F04F704780
:1027C00000000060FB21094000000000008066401E
:1027D00080B588B042F65D0205ABC0F2000207C3C7
:1027E00019208DF8100004A802F016FF10A2D2E9FB
:1027F000012142F27853DFF838C0C2F200031860BA
:1028000001A8CDE901C20391FEF763FE42F26C51CB
:10281000C2F2000142F274520860012142F24C50AF
:10282000C2F20002C2F20000117008B080BD00BF09
:10283000C80000003D2800000000000042F278506F
:10284000C2F2000042F24C510068C2F200010022C4
:10285000C1E90022C1E9022202F014BF2DE9F04FC4
:1028600087B042F2785042F60816C2F20000C2F277
:1028700000060068318842F60A150022C2F20005FF
:10288000835C8FB201310132192A01F07F01EB55CF
:10289000F6D142F68A18C2F20008B8F8002001F119
:1028A0008000801A00EB5063318023F07F03C01A50
:1028B0001928C0F2F08042F24C570DF10304C2F225
:1028C000000700BFA85C0F2805D102F1180000F036
:1028D0007F00285C78B1501C00F07F02A8F800202F
:1028E00088B2801A803000EB506323F07F03C01A57
:1028F0001828E7DCCFE0002093B20132EB5C02F055
:102900007F02235401301928F6D19DF80300A8F85E
:1029100000200F28E4D19DF81B000028E0D19DF88D
:1029200004C09DF805009DF807E060F30A2C9DF8AF
:102930000630ACF57A763E804FEAD0094FEA8E0633
:102940009DF8080063F34A1946EA931300F0010664
:1029500043EA8623A9F57A78A3F57A7E9DF80930B3
:10296000A7F802804FEA500863F3CA18A8F57A70F6
:102970009DF80B60F8809DF80A004FEA131B760063
:1029800060F30A1B46EAD01A9DF80C009DF80D6012
:1029900060F34A2A800866F38A10B8819DF80E0019
:1029A000A8F2EE33C0009BB240EA56104FF6F5761F
:1029B000A7F804E0A7F808B0A7F80AA0B342F88186
:1029C00024BF0020F880B7F914604FF6F573BEEB12
:1029D000060048BF40421D289CBFB0B2B88042F6F6
:1029E0008A18ACF2EE3080B2C2F20008984224BFDE
:1029F00000203880A9F2EE3080B24FF0000C9842EF
:102A000028BFA7F802C0BBF1C80F09D0BBF5E16F22
:102A100004D0BBF57A7F05D1032302E0022300E056
:102A200001233B81BAF1C80F09D0BAF5E16F04D098
:102A3000BAF57A7F05D1032002E0022000E00120F0
:102A40007881002037F810301EB283EAE633A3EB1A
:102A5000E6339BB2B3F5E16F88BF27F810C00130B1
:102A60000428EFD197E84910BE61C7E9040342F298
:102A70006C50C2F200000068C7F81CC000283FF488
:102A80002FAFFEF744FD42F60810C2F200000188A5
:102A9000B8F8002024E707B0BDE8F08FB0B52DED01
:102AA000028B42F27055C2F20005286841F61814F4
:102AB0004189C2F20004012910D0032902D0022961
:102AC00031D032E00189028B01239142236000F072
:102AD0009A80022940F09580012022E041F2706046
:102AE000C2F200000068014611F8012BAA2A1AD18F
:102AF000428B4FF6FB739A4215D1032222600A687B
:102B000004F1300E4B688D68D1F80CC08EE82C00B3
:102B10000A694969407EC4E90FC26164002818BF90
:102B20000120A06001E00020206094ED071ABBEEB8
:102B30000E0AB4EE401AF1EE10FA02DA84ED070A3A
:102B400008E09FED7A0AB4EE401AF1EE10FAC8BF21
:102B500084ED070A94ED081A9FED750AB4EE401A49
:102B6000F1EE10FA02DA84ED080A08E09FED710A2E
:102B7000B4EE401AF1EE10FAC8BF84ED080A94EDE5
:102B8000091A9FED6D0AB4EE401AF1EE10FA02DA5E
:102B900084ED090A08E09FED670AB4EE401AF1EEF1
:102BA00010FAC8BF84ED090A94ED0A1A9FED630A72
:102BB000B4EE401AF1EE10FA02DA84ED0A0A08E0E7
:102BC0009FED5F0AB4EE401AF1EE10FAC8BF84ED33
:102BD0000A0A94ED0B1A9FED5B0AB4EE401AF1EE6F
:102BE00010FA02DA84ED0B0A08E09FED570AB4EE02
:102BF000401AF1EE10FAC8BF84ED0B0ABDEC028B4F
:102C0000B0BD0022A260012943D003298DD1B0F9C3
:102C10000400DFED410A00EE100A9FED401AB8EE05
:102C2000C00ADFED3F1A9FED3F2A0121616003F0EA
:102C300091FA286884ED080A9FED3B2AB0F9061046
:102C4000B0F9002001EE101AB0F90200B8EEC11A76
:102C500094ED093A21EE021A05EE102A31EE031A1C
:102C600003EE100AB8EEC55AB8EEC33A94ED0A4A1C
:102C700023EE023A25EE022A94ED0B5A33EE043A83
:102C800032EE052A84ED091A84ED0A3A84ED0B2A06
:102C90004BE7B0F900109FED248A00EE101A94ED76
:102CA000061AB8EEC00AB0F9021020EE080A94ED38
:102CB000072A30EE011A00EE101AB0F9040084ED74
:102CC000061AB8EEC00ADFED140A20EE080A9FEDDE
:102CD000131A30EE022A00EE100A84ED072A0022B1
:102CE000B8EEC00ADFED0E1A9FED0E2A626003F007
:102CF00031FA286884ED080A94ED092AB0F9060033
:102D000001EE100AB8EEC11A21EE081A31EE021ACD
:102D100084ED091A09E700BF000048C400004844D8
:102D2000000000000000524352499D390000164344
:102D300000000CC200003443000034C30000F0C2A5
:102D40000000F0420000B4C30000B44300000000E3
:102D50002DE9F04F81B02DED108BC6B00D464FF42C
:102D6000C47114460990FDF79DFA95ED040B94ED9E
:102D7000008B8DED2E0BB0EE480AF0EE680A95ED53
:102D800000FB95ED02EB94ED02BB94ED04CB06F055
:102D9000BFF8B0EE409AB0EE480AF0EE609AF0EE5E
:102DA000680A06F019F9B0EE40AAB0EE4B0AF0EE50
:102DB00060AAF0EE6B0A06F0ABF8B0EE40DAB0EEC7
:102DC0004B0AF0EE60DAF0EE6B0A06F005F9B0EEB1
:102DD000408AB0EE4C0AF0EE608AF0EE6C0A06F023
:102DE00097F8B0EE40BAB0EE4C0AF0EE60BAF0EEF2
:102DF0006C0A06F0F1F856EC1B7B51EC1D0BB0EEA3
:102E000040CA3A463346F0EE60CACDE93001329707
:102E10003396FDF729FB55EC184B41EC100BCDE92F
:102E20001A1020468DED340B29463A463346FDF7FD
:102E30001BFB58EC1C9B82468B4651EC1A0B4A46F6
:102E40004346CDE92C01FDF70FFB53EC192B064649
:102E50000F4650465946CDE92A23FDF705FB324679
:102E60003B46FDF75AFADDF8C0B0DDF8C4A0CDE965
:102E70001C1041EC1C0B584651464A464346FDF790
:102E8000F3FACDE91610204629464A4643461994DE
:102E90001895FDF7E9FA06460F46DDE93201DDE94E
:102EA0002C23FDF7E1FA04460D46304639462A9FA9
:102EB0002B9E3A463346FDF7D7FA22462B46FDF7BE
:102EC000CDFA8DED3E8B04469DF8FF200D4682F035
:102ED00080008DF8FF009DED3E0B384631468DEDAC
:102EE000140B5A465346FDF7BFFA9FED830B8246FB
:102EF0008B4641EC1D0BDDE91C1058EC109B434642
:102F00004A46FDF7B1FA53EC1F2BFDF706FA0646C9
:102F10000F4641EC180B204629464A464346339457
:102F20003295FDF7A1FA53EC1E2BFDF7F6F9044696
:102F30000D4641EC190B504659464A464346CDF8DA
:102F4000C4A0CDF8C0B0FDF78FFA9DED2E0B53EC69
:102F5000102BFDF7E2F98046894620462946224695
:102F60002B462C942B95FDF77FFA04460D463046F0
:102F7000394632463B462E962D97FDF775FA224686
:102F80002B46FDF7CAF941EC100B04460D4606F03E
:102F900087F8B0EE40AAB0EE490AB0EE481AF0EE5B
:102FA00060AAF0EE690AF0EE681A05F0B1FE9FED36
:102FB00054EBB0EE40BAB0EE4E0AB0EE4A1AF0EE64
:102FC00060BAF0EE6E0AF0EE6A1A05F0A1FE51EC5E
:102FD0001B0B53EC102BFDF741FAB0EE490AB0EE93
:102FE000481AF0EE690AF0EE681ACDE9061005F00D
:102FF0008FFE8DED44AB9DF81701B0EE408A80F056
:1030000080008DF81701B0EE4E0A9DED441BF0EEE6
:10301000608AF0EE6E0A05F07BFE51EC180B53EC63
:10302000102BFDF71BFACDE90410404649464246F5
:103030004B46CDF84C80CDF84890FDF715FA224666
:103040002B46FDF76AF99FED300B53EC102BFDF783
:1030500064F99FED2F0B53EC102BFDF75EF99FEDFC
:103060002E0B53EC102BFDF758F99FED2D0B53EC65
:10307000102BFDF76BFA41EC100B02460B468DED61
:10308000100BFDF7F1F99FED280B02460B4651ECB2
:10309000100BFDF7E3F98DED42CB00269DF80F21D3
:1030A00082F080028DF80F219DED420B8DED0E0B0D
:1030B0008DED3CDB9DF8F72082F080028DF8F72043
:1030C0009DED3C0B8DED0C0B9DED340B8DED400B10
:1030D0009DF8072141EC100BCDE9021082F0800031
:1030E0008DED000B8DF807019DED400B01208DED5E
:1030F0000A0B35E000BF00BF0000000000004EC01A
:103100000000000000000000000000008084EEC00D
:1031100006F0164890869DC037AB3ED7E72000C129
:103120000000000000407F4017D9CEF7F45B00415B
:103130001BBB180E7278BEBF0000000000406F403D
:103140005C8FC2F528BC45C0A4703D0AD7B776C0D5
:1031500000000060FB21F93F000000887CD912C00C
:10316000089010F00100069C049808BF0446079DD3
:10317000059808BF05461FED1E0BDDE9021053EC54
:10318000107B22933A46FDF76BFA002840F0FB854E
:103190009DED000B239744EC1B5B05F081FF8DED4B
:1031A000200B8DED3A0B9DF8EF0080F080008DF83C
:1031B000EF009DED3A0B01208DED1E0B9DED1E0BDA
:1031C0002A9010F0010051EC100B9DED200B34966D
:1031D00052EC103B04BF0A46034642EC113B9DED06
:1031E000100B05F095FD53EC102B1FED2F0B51EC40
:1031F000100BFDF733F941EC1D0BCDE92710B0EEB4
:103200004D0AF0EE6D0A05F083FE51EC100B1FED38
:10321000360B59EC10BB4B465A46FDF725F91FED0E
:10322000380B53EC102BCDE92523FDF776F8B0EEE3
:103230004B0AF0EE6B0A8246249105F069FEB0EE6F
:10324000408AB0EE4B0AF0EE608AF0EE6B0A05F0B1
:10325000C3FEDDE92B1053EC102BFDF705F9DDE97A
:103260002D3204460D4651EC180BFDF7FDF82246B1
:103270002B46FDF752F8B0EE4D0AF0EE6D0A04460B
:10328000884605F0A9FE51EC100B5A464B46FDF757
:10329000EBF81FED530B55EC106B2B463246FDF748
:1032A0003CF802460B4620464146FDF7DDF8044651
:1032B0005046DDF84C80DDF848A00F462499424680
:1032C0005346FDF7D1F802460B4620463946FDF736
:1032D000C5F8B0EE4D0AF0EE6D0A41EC180B05F0A2
:1032E0007BFE51EC100B5A464B46FDF7BDF83246BB
:1032F0002B46FDF712F8B0EE4B0AF0EE6B0A0746CC
:103300000E4605F005FEB0EE409AB0EE4B0AF0EE28
:10331000609AF0EE6B0A05F05FFEDDE92B1053ECCE
:10332000102BFDF7A1F8DDE92D3204460D4651ECD6
:10333000190BFDF799F822462B46FCF7EEFFB0EE8D
:103340004D0AF0EE6D0A04460D4605F0E1FD51EC24
:10335000100B5A464B46DDF89C90FDF785F8DDE9E9
:103360002523FCF7DAFF02460B4620462946FDF7E7
:103370007BF804460D46384631464246289E534661
:10338000FDF772F822462B46FCF7C7FFB0EE480A5D
:1033900041EC110BF0EE680A05F0BAFC51EC100B91
:1033A000B0EE408A32464B46F0EE608AFDF756F8A2
:1033B000239C229F0546884641EC190B304649461E
:1033C00022463B46FDF767F910B91FED9F0B08E059
:1033D0003046494622463B46FDF727F948B91FEDDE
:1033E000A20B53EC102B28464146FCF796FF41EC0C
:1033F000190BB0EE4B0AF0EE6B0A8DED289B05F031
:10340000EBFDB0EE409AB0EE4B0AF0EE609AF0EEB3
:103410006B0A05F07DFDDDF8CCA0DDF8C8B053ECFB
:10342000102B50465946FDF71FF89DED0E0B53EC3F
:10343000192B54EC105B06460F4628462146FDF733
:1034400013F832463B46FCF768FFB0EE4B0AF0EE4D
:103450006B0A41EC190B05F05BFD51EC100B2A4691
:103460002346FDF701F8B0EE480AF0EE680A04467C
:103470000D4605F04DFDB0EE40AAB0EE4B0AF0EE61
:1034800060AAF0EE6B0A05F0A7FD53EC102B504636
:103490005946FCF7E9FFB0EE480AF0EE680A064626
:1034A0000F4605F035FD53EC102B30463946FCF73E
:1034B000DBFF53EC1A2B06460F4620462946FCF745
:1034C000D3FF32463B46FCF7C9FFB0EE480AF0EEA8
:1034D000680A04460D4605F07FFDDDE9301053EC27
:1034E000102BFCF7C1FF22462B46FCF716FFB0EE6F
:1034F000490A41EC110BF0EE690A05F009FCB0EE47
:1035000040FAB0EE4B0AF0EE60FAF0EE6B0A05F00E
:10351000FFFCB0EE409AB0EE480AF0EE609AF0EE92
:10352000680A05F0F5FC51EC190B53EC102BFCF775
:103530009BFFB0EE4F0AF0EE6F0A04460D4605F011
:10354000E7FCB0EE409AB0EE4B0AF0EE609AF0EE77
:103550006B0A05F041FDB0EE40AAB0EE4F0AF0EE66
:1035600060AAF0EE6F0A05F037FD53EC102B51EC1A
:103570001A0BFCF779FF53EC192B06460F46204631
:103580002946FCF771FF32463B46FCF7C6FEB0EE1B
:103590004B0AF0EE6B0A8046894605F01DFDB0EE41
:1035A000409AB0EE480AF0EE609AF0EE680A05F034
:1035B000AFFC51EC190B53EC102BFCF755FFB0EEA0
:1035C0004F0AF0EE6F0A06460F4605F0A1FCB0EE7A
:1035D000409AB0EE4B0AF0EE609AF0EE6B0A05F0FE
:1035E00097FCB0EE40AAB0EE4F0AF0EE60AAF0EE03
:1035F0006F0A05F0F1FC53EC102B51EC1A0BFCF7A1
:1036000033FF53EC192B04460D4630463946FCF780
:103610002BFF02460B4620462946FCF71FFF0246B9
:103620000B4650465946FCF71FFFDDF874A0DDF845
:1036300070B004460D465046594642464B46FCF78C
:1036400013FF02460B4620462946FCF707FFB0EE63
:10365000480AF0EE680A04460D4605F0BDFCB0EEDF
:10366000409AB0EE4F0AF0EE609AF0EE6F0A05F065
:103670004FFC53EC102B51EC190BFCF7F5FE9DEDB4
:103680000C0B02460B4651EC100BFCF7EDFE02460C
:103690000B4620462946FCF7E1FEB0EE4B0AF0EE61
:1036A0006B0A41EC190B05F033FCB0EE40AAB0EE0A
:1036B000480AF0EE60AAF0EE680A05F08DFC51ECC5
:1036C000100B53EC1A2BFCF7CFFEB0EE4B0AF0EECA
:1036D0006B0A04460D4605F07FFC8DED380B9DF816
:1036E000E700B0EE480A80F080008DF8E700F0EEC9
:1036F000680ADDE9386705F06FFC51EC100B3246C3
:103700003B46FCF7B1FE02460B46DDE93210FCF702
:10371000ABFE06460F465046594622462B46FCF75E
:10372000A3FE02460B4630463946FCF797FEB0EE44
:10373000480AF0EE680A04460D4605F0E9FBDDE9AB
:10374000301053EC102BFCF78FFE02460B46204640
:103750002946FCF783FEB0EE490A41EC110BF0EE6E
:10376000690A05F0D5FAB0EE40AAB0EE4B0AF0EEC9
:1037700060AAF0EE6B0A05F0CBFBB0EE409AB0EE1B
:10378000480AF0EE609AF0EE680A05F0C1FB51ECD1
:10379000190B53EC102BFCF767FEB0EE4F0AF0EE5E
:1037A0006F0A04460D4605F017FCB0EE409AB0EEE5
:1037B0004B0AF0EE609AF0EE6B0A05F00DFCB0EEED
:1037C00040CAB0EE4F0AF0EE60CAF0EE6F0A05F0A4
:1037D0009FFB53EC102B51EC1C0BFCF745FE53ECFC
:1037E000192B06460F4620462946FCF73DFE324679
:1037F0003B46FCF733FEB0EE4B0AF0EE6B0A804618
:10380000894605F0E9FBB0EE409AB0EE480AF0EECA
:10381000609AF0EE680A05F07BFB51EC190B53EC53
:10382000102BFCF721FEB0EE4F0AF0EE6F0A0646B1
:103830000F4605F0D1FBB0EE409AB0EE4B0AF0EE29
:10384000609AF0EE6B0A05F063FBB0EE40CAB0EE92
:103850004F0AF0EE60CAF0EE6F0A05F059FB53EC28
:10386000102B51EC1C0BFCF7FFFD53EC192B0446FD
:103870000D4630463946FCF7F7FD22462B46FCF74D
:103880004CFDDDF85CA0DDF858B002460B46504612
:103890005946FCF7E9FD9DED0A0B04460D4651EC37
:1038A000100B42464B46FCF7DFFD22462B46FCF749
:1038B000D5FDB0EE480AF0EE680A04460D4605F064
:1038C0008BFBB0EE409AB0EE4F0AF0EE609AF0EE4D
:1038D0006F0A05F081FB53EC102B51EC190BFCF730
:1038E000C3FD9DED140B02460B4651EC100BFCF78B
:1038F000BBFD22462B46FCF710FDB0EE4B0AF0EE66
:103900006B0A41EC190B05F003FBB0EE40CAB0EEB8
:10391000480AF0EE60CAF0EE680A05F0F9FA51ECD8
:103920001C0B53EC102BFCF79FFDB0EE4F0AF0EE92
:103930006F0A04460D4605F0EBFAB0EE40CAB0EE51
:103940004B0AF0EE60CAF0EE6B0A05F045FBB0EEF4
:1039500040EAB0EE4F0AF0EE60EAF0EE6F0A05F0D2
:103960003BFB53EC102B51EC1E0BFCF77DFD53EC95
:103970001C2B06460F4620462946FCF775FD3246AD
:103980003B46FCF7CAFCB0EE4A0AF0EE6A0A04466F
:103990000D4605F0BDFAB0EE40CAB0EE4B0AF0EEAF
:1039A00060CAF0EE6B0A05F0B3FAB0EE40EAB0EE92
:1039B000480AF0EE60EAF0EE680A05F00DFB51EC03
:1039C0001E0B53EC102BFCF74FFDB0EE4A0AF0EE45
:1039D0006A0A06460F4605F0FFFA53EC102B3046F4
:1039E0003946FCF741FD53EC1C2B06460F4620469A
:1039F0002946FCF739FD32463B46FCF72FFDB0EE79
:103A00004B0AF0EE6B0A8046894605F0E5FAB0EE07
:103A100040CAB0EE480AF0EE60CAF0EE680A05F05F
:103A200077FA51EC1C0B53EC102BFCF71DFDB0EE9C
:103A30004F0AF0EE6F0A06460F4605F069FAB0EE3F
:103A400040CAB0EE4B0AF0EE60CAF0EE6B0A05F029
:103A50005FFAB0EE40EAB0EE4F0AF0EE60EAF0EE48
:103A60006F0A05F0B9FA53EC102B51EC1E0BFCF762
:103A7000FBFC53EC1C2B04460D4630463946FCF744
:103A8000F3FC22462B46FCF7E9FCB0EE4A0AF0EEC6
:103A90006A0A06460F4605F03BFAB0EE40CAB0EEA1
:103AA0004B0AF0EE60CAF0EE6B0A05F095FAB0EE44
:103AB00040EAB0EE480AF0EE60EAF0EE680A05F07F
:103AC0008BFA51EC1E0B53EC102BFCF7CDFCB0EE37
:103AD0004A0AF0EE6A0A04460D4605F07DFA53ECF8
:103AE000102B20462946FCF7BFFC53EC1C2B044648
:103AF0000D4630463946FCF7B7FC22462B46FCF70C
:103B0000ADFC02460B4650465946FCF7ADFC044658
:103B10000D46DDE91A1042464B46FCF7A5FC22464D
:103B20002B46FCF7FAFBB0EE480AF0EE680A804636
:103B3000894605F051FAB0EE40CAB0EE4F0AF0EEF9
:103B400060CAF0EE6F0A05F0E3F953EC102B51EC6C
:103B50001C0BFCF789FCB0EE4A0AF0EE6A0A064636
:103B60000F4605F0D5F9B0EE40CAB0EE480AF0EEC7
:103B700060CAF0EE680A05F0CBF9B0EE408AB0EE0C
:103B80004A0AF0EE608AF0EE6A0A05F025FA53EC74
:103B9000102B51EC180BFCF767FC53EC1C2B044664
:103BA0000D4630463946FCF75FFC22462B46FCF7B3
:103BB000B4FB02460B46DDE91810FCF755FC424603
:103BC0004B46FCF7AAFBB0EE490A41EC110BF0EEB4
:103BD000690A05F09DF8349E072E00F3CE80B0EE02
:103BE000408AB0EE4D0AF0EE608AF0EE6D0A00F009
:103BF000EBF85BEC10AB9FED6C0B504653EC102BCD
:103C00005946FCF731FC9FED6A0B58EC109B43467C
:103C10004A46FCF79BFC9FED680B044656EC107B74
:103C200033463A460D46FCF700FD38B941F23060A4
:103C30000126C2F20000229F14E000BF2046294660
:103C40003A463346FCF727FD229F68B9239A50462F
:103C500059463B46FCF73AFD30B141F23060002650
:103C6000C2F20000067004E041F23060C2F20000CF
:103C70000678239A204629463B46FCF7F1FC9FED47
:103C8000500B002818BF012053EC102B00F001044A
:103C900050465946FCF741FB002C04BF594650469C
:103CA000002E04BF59465046349EB0EE4B0A06EB38
:103CB000460241EC1D0B0998F0EE6B0A00EB021472
:103CC00000F082F8B0EE409AF0EE609A84ED000BBE
:103CD0009DED280B00F078F8B0EE40CA84ED020BA1
:103CE00084ED04DBB0EE4F0AF0EE60CAF0EE6F0A2E
:103CF00000F06AF884ED060BB0EE4A0AF0EE6A0AAC
:103D000000F062F884ED080BB0EE480AF0EE680AA5
:103D100000F05AF8072E84ED0A0B01D108262CE09A
:103D200051EC1F0B4A4684ED0C9B434684ED0ECBB1
:103D3000023684ED10DBFCF7F0FA41EC100B00F0DA
:103D400043F884ED120B8DED36AB9DF8DF0080F06B
:103D500080008DF8DF009DED360B00F035F851EC5A
:103D6000180B4A4684ED140B4346FCF7D6FA41EC97
:103D7000100B00F029F884ED160B2A98C0074FF0BD
:103D800000007FF41BAA0898C0074FF000007FF4E2
:103D9000E7A90998C0F8806146B0BDEC108B01B06E
:103DA000BDE8F08F00BF00BF00000000008066404B
:103DB00000000060FB21094000000000000064409A
:103DC00000000060FB211940F0B581B02DED028BA1
:103DD000B0EE408AF0EE608A9FED210B51EC180B9B
:103DE00055EC104B2B462246FCF71FFC90B99FED7B
:103DF0001E0B57EC106B00BF51EC180B32463B46C4
:103E0000FCF78BFA22462B4641EC180BFCF75EFCC4
:103E10000028F1D19FED160B51EC180B55EC104B0F
:103E20002B462246FCF737FC90B99FED130B57EC5D
:103E3000106B00BF51EC180B32463B46FCF76DFA95
:103E400022462B4641EC180BFCF70AFC0028F1D166
:103E5000B0EE480AF0EE680ABDEC028B01B0F0BD8E
:103E600000000060FB21094000000060FB2119C038
:103E700000000060FB2109C000000060FB21194028
:103E800070B52DED088B86B090ED069B044690ED45
:103E9000008B51EC190B0B460246FCF7E5FA054680
:103EA0000E4651EC180B0B460246FCF7DDFA2A468B
:103EB0003346FCF732FA41EC100B05F0F1F8B0EEA6
:103EC00040AAF0EE60AA51EC100B9FED3B0B53ECB7
:103ED000102BFCF7AAFB90BB94ED0E0B94ED101B7E
:103EE00004F016FF94ED0C1BB0EE40BA8DED001BF4
:103EF0009DF80700F0EE60BA80F080008DF80700B2
:103F00009DED001BB0EE410AB0EE4A1AF0EE610AD8
:103F1000F0EE6A1A04F0FCFEB0EE40AAB0EE490AD8
:103F2000B0EE481AF0EE60AAF0EE690AF0EE681AF8
:103F300004F0EEFEB0EE402AF0EE602A2FE094EDA1
:103F40000A0B94ED081B8DED020B9DF80F0080F01D
:103F500080008DF80F009DED020B04F0D9FE94ED6A
:103F60000C1BB0EE40BA8DED041B9DF81700F0EE6F
:103F700060BA80F080008DF817009DED041BB0EE54
:103F8000410AB0EE4A1AF0EE610AF0EE6A1A04F045
:103F9000BFFEB0EE40AA9FED0A2BF0EE60AAB0EE95
:103FA0004B0AB0EE4A1AF0EE6B0AF0EE6A1A06B04F
:103FB000BDEC088B70BD00BF8DEDB5A0F7C6B03E5F
:103FC00000000000000000002DE9F04146F220183A
:103FD000C4F20008B8F80000B8F8201041F60865EF
:103FE00001EA0006B7B20024C2F2000527FA04F085
:103FF000C00704D055F8241009B120468847013481
:10400000102CF3D1A8F81060BDE8F08110B52DEDAB
:10401000048B0446007EB0EE609A0006B0EE408A43
:1040200044BF204601F0F0FF04F17400FDF763F98E
:1040300039EE482A94ED051AB0EEC26A84ED1E0AE4
:10404000B4EE416A84ED0C8A84ED1C9AF1EE10FA0C
:1040500084ED0E2A40F3BA8094ED117A94ED025A61
:1040600032EE471AD4ED010A25EE011A22EE204A5B
:1040700081EE003A94ED001AA06922EE011A20EEBA
:10408000044A410784ED141A84ED184A84ED163A67
:104090000BD532EE074AB6EE007A24EE074A20EE40
:1040A000844A20EE044A84ED184A810625D594ED11
:1040B000157A22EE077AB5EE407AF1EE10FA1CDDA1
:1040C00094ED097AB4EE476AF1EE10FA15DDD4EDFD
:1040D000080A70EEC61A77EE211A37EE207AC1EE82
:1040E000A01AB4EE476A9FED666AF1EE10FA21EE6F
:1040F000844A36FE044A84ED184A810709D594EDB6
:104100000D3A33EE483A25EE033A83EE003A84ED59
:10411000163A410611D594ED0B5A94ED1B6A20EE28
:10412000033A30EE057A25EE065A83EE073A85EE1D
:10413000075A33EE053A84ED163A94ED155AC10745
:1041400050D031EE056A94ED047A36EE036AB0EE93
:10415000C66AB4EE476A35EE046AF1EE10FA0ADD7B
:1041600022EE057AB5EE407AF1EE10FA03DD9FED0E
:10417000444A00212166D4ED070ADFED411AB4EE6E
:10418000606AB1EE607AF1EE10FAB4EE467A30FE73
:10419000855AF1EE10FAB4EE606A37FE055AF1EE78
:1041A00010FAB4EE467A31FE844AF1EE10FAB4EE1B
:1041B000606A31FE844AF1EE10FA11DCB4EE476A0F
:1041C000F1EE10FAB8BF84ED184A0BE09FED2C4ACF
:1041D00094ED163AB0EE441A0020C4E918003FE00E
:1041E00084ED184A34EE055A94ED0D6A94ED037A85
:1041F00038EE466A31EE051A26EE076A31EE031AEA
:10420000C00684ED155A36EE011A84ED176A84ED66
:10421000191A11D594ED0A5A94ED1A6A20EE011A72
:1042200030EE050A25EE065A81EE001A85EE000AE8
:1042300031EE001A84ED191A94ED045AB4EE451AC1
:1042400081FE450AB1EE455AF1EE10FA04DCB4EEF7
:10425000450AF1EE10FA03DA80FE051A84ED191A08
:1042600084ED0D8A84ED1A1A84ED1B3A84ED112A2F
:10427000B0EE410A84ED134ABDEC048B10BD00BFC3
:1042800000000000B0B50D4690210446FCF70AF886
:10429000D5E900CED5E90223D5E90410C4E900CE62
:1042A000C4E90223C4E90410D5E906C0D5E908230E
:1042B000D5E90A15C4F818C0C4E90A1504F11C01AF
:1042C0000DC104F17400BDE8B040FDF714B8000062
:1042D0000F4B1968EFF309821EF0100F08BF22ED93
:1042E000108A22E9F04FEFF30B8342F8043D0A6095
:1042F0004FF0100080F31188BFF34F8FBFF36F8F23
:1043000003F016FC4FF0000080F3118802F0F0BCBF
:1043100004270020F0B581B0466AB6B104460D46C8
:10432000002700BF307A2946012804BFB7713772D1
:10433000F079628C56F82000FBF79BFF307AF7711A
:1043400001303072F668002EECD1012001B0F0BDD2
:10435000F0B581B00C4621210546FBF7C5FF1F28AB
:1043600001D900BFFEE740F22817C2F2000700BFE4
:10437000BE6A66B130462946FBF79FFF00283746E4
:10438000F6D1708C844230460BD000BFFEE701208E
:104390003021FBF7B4FF2946B8624484FBF79BFF4A
:1043A0003E46012186F82C1001B0F0BD80B50146D3
:1043B000FE2000F046F99FED030ABDE88040FCF7BF
:1043C0007FBF00BFCDCCCC3D2DE9F04381B02DEDBA
:1043D000088B42F2C329C2F2000999F800000028B4
:1043E00000F0A18042F2F478B1EE068A9FED50AA67
:1043F0000026B9EE069AC2F20008B2EE06BA00270D
:1044000058F82750D5E90A0195ED800AD5F80842F9
:10441000B1EE401A012901FE001A410718D5696A58
:10442000042915D1686B012805D1286C002808BF24
:1044300005F1080001E005F1080090ED000AF0EE3A
:10444000410A05F5B870FFF7E1FDA86AB0EE401A21
:10445000800723D595F8240010F0060F1ED095F89C
:104460003C00800705D5A86C18B190ED000A31EE2C
:10447000001AA86B012805D1686C002808BF05F157
:104480000C0001E005F10C0090ED000AF0EE410A8D
:1044900005F1E000FFF7BAFDB0EE401A95F83C00D8
:1044A000F0EE410AC00707D0E86CF0EE410A18B1FF
:1044B00090ED000A71EE000A95F82800C00707D0B9
:1044C00095ED040A05F15000FFF7A0FDB0EE401A8B
:1044D00081FE480AD5F8140280FE090A224630EE11
:1044E000080A002820EE0A0A80EE0B0ABDEEC00A78
:1044F00010EE103AC3F3032008BF4FF0FF33A6625B
:1045000042F8246F08BF0720E16984F82A0084F884
:104510002B3020460823FCF7BFFB99F80000013739
:104520008742FFF46DAFBDEC088B01B0BDE8F083AE
:1045300000F07F452DE9F04184B000284FF00004E1
:1045400072D042F2C328C2F20008054698F8000073
:10455000032869D801204FF40E71FBF7D0FE002824
:1045600061D00446D5E92E10D5E928CE05F1A8077B
:10457000CCCFC4F8100204F12C00CCC0E16304F1EC
:10458000500005F11001C4E909CEFFF77BFE04F1EC
:10459000E00005F14001FFF775FE04F5B87005F184
:1045A0007001FFF76FFE95E80F0004F1400C8CE8F6
:1045B0000F00D5F8CC1005F1C000002941F241618F
:1045C000C0F20001C5E9344103D1D5F8C810C5F8DF
:1045D000CC10FCF75FFBC4F8080208B30A20019076
:1045E00044F23560C0F20000CDE9020401A8FCF7F6
:1045F00070FF0121C4E98510FC20214600F021F85C
:104600009FED0B0AFCF75CFE98F80000411C88F84F
:10461000001042F2F471C2F2000141F8204003E0C0
:10462000204604F0E1F90024204604B0BDE8F08102
:10463000CDCCCC3D00281ABF0146FC207047AFF31B
:10464000008099B1D1F8082282B14FF0FF33C2F84F
:1046500027305362D1F80822082382F82B00D1F8C2
:104660000802C16900F12402FCF716BB7047000084
:10467000B0B543F22404C4F208040025C820012187
:10468000257100F082F8257020780028FCD1207870
:1046900040F00200207000BF20788007FCD400208A
:1046A00004F8020C14F8020C0028FBD1002004F1DD
:1046B0001C0100BF11F8102002F07F0201F8102049
:1046C00011F91020002AFBD401300328F2D1012077
:1046D00000F00BF84EF2BB420021C4F201020120AF
:1046E0001170BDE8B04000F027B880B50122EFF3AB
:1046F000108182F3108841F6D462C2F2000232F8CF
:1047000010308BB94EF2FE3C4AF23C13C4F2010C5D
:10471000C0F20003BCF800E033F8103043EA0E03A7
:1047200043F42543ACF8003032F81030013322F85E
:10473000103081F3108880BD0122EFF3108182F3E5
:10474000108841F6D462C2F2000232F8103023B170
:1047500032F81030013B22F8103032F810208AB9BC
:104760004EF2FE3CC4F2010C4AF23C12BCF800309E
:10477000C0F2000232F8100043F4254222EA0000A1
:10478000ACF8000081F31088704741F25062C2F229
:104790000002126801FB00F041F20021C0F27A0130
:1047A0008A420FD340F6FF01C0F23D0111444DF69D
:1047B0008362C4F21B32A1FB0212110DA0FB0101A6
:1047C000E9B11FE04CF60021C3F69A3148F63813E0
:1047D000C0F24103B1FBF2F1984207D24FF47A7272
:1047E00000FB02F0B0FBF1F0800808E08900B0FBAC
:1047F000F1F0984206D24FF47A7100FB01F028B133
:1048000001F0F3B84FF0FF3001F0EFB87047704798
:10481000022818BF704741F6BC604AF23C01C2F260
:104820000000C0F2000100F04FBB00002DE9F04F86
:1048300081B0834608688A460090D1E902010027CA
:10484000DAF81090C4F20B070022CBF81C100121FB
:10485000CBE9007ACBE90502D9F81C80EFF3108090
:1048600081F3108844F20801C4F208010A684EF28C
:10487000034C22F000620A60096880F310884EF24F
:104880000016D7F88C0046F2003542F21814CEF22A
:10489000000CCEF20006C007C4F20005C2F200040C
:1048A00055D06446D7F88C000007FBD458468121C8
:1048B00002F0C4F8D8F8040041F21431C7F88400BB
:1048C0004FF48030C7F89C000120C4F20B0108604F
:1048D000D8F82800C7F8AC00002000BF08EB800122
:1048E00007EB8002896801300828C2F8C010F5D1B2
:1048F00098F82D00A4460001607042F218140020C0
:10490000C2F2000446F200352061C4F200052969B4
:104910004EF2001621F48031296129691021CEF26E
:104920000006BFF35F8FC6F880113160D8F8001021
:10493000C7F8881008F1300151F8202007EB8003F8
:10494000013022F001020628C3F82021F4D198F8A2
:104950002C00A04600018CF80000C4F80CB0E868F8
:1049600020F48030E860E8680820BFF35F8FC6F865
:104970008001306042F21010009CC2F2000040F84A
:1049800024B04FF48070012CC7F8980021D0D9F8DA
:104990000010C7F89800D1F800C04A688B68C96851
:1049A00041F60C00C4F20B00016041F6080041F62C
:1049B0000401C4F20B00C4F20B0103600A6041F66B
:1049C0000001C4F20B01C1F800C0016864F3C71113
:1049D00001600020C7F898005846012102F02EF827
:1049E000DAF804004EF2001690E80E00C0680139B3
:1049F0006FF39F2141EA42415A1EA1F5003141EA7D
:104A000042614FF60042CFF6FF7202EB802046F281
:104A10000035084321017850D9F81400CEF2000681
:104A200090E80E00C0680139C9B241EA02210022B3
:104A3000CFF6FF7202EB0342A1F5807111430138FA
:104A400041EA006041F21431C4F20B0101EB441160
:104A5000C4F20005C1F8EC00D9F814004068FF2842
:104A600028BFFF2099F81820000440EA422040F2B5
:104A700001421043C1F8F000D9E9021207EBC4006B
:104A8000C0F8501FC0F8542FD9F8100007EB0411DC
:104A900040F003004860DAF8180000281DD49AF8A6
:104AA00014103218090182F8001348F820B055F8A4
:104AB0002010012321F4803145F8201055F82010F2
:104AC00000F01F01400906EB800203FA01F1BFF379
:104AD0005F8FC2F8801146F82010DAF82000002815
:104AE0001DD49AF814103218090182F8001348F8FE
:104AF00020B055F8201000F01F0221F4803145F855
:104B0000201055F820100123400903FA02F206EBA9
:104B10008003BFF35F8FC3F8802146F82020DAF8C6
:104B20001C0000281DD49AF814103218090182F8CC
:104B3000001348F820B055F82010012221F48031EC
:104B400045F8201055F8201000F01F01400906EB31
:104B5000800302FA01F1BFF35F8FC3F8801146F8BA
:104B600020105846802101F069FF58460021002599
:104B700001F064FF44F24460C5F24320CBE9020532
:104B80000020CBF8105001B0BDE8F08F10B593684D
:104B9000D2E900E4D0F804C04EEA8373DCF800C028
:104BA00043EAC47E272916D90CEB4C0304680B4456
:104BB000A3F1280C04EBCC134FF4C84443F804E0F1
:104BC000137B092B27D3182B22D803F57E730824D7
:104BD00004EB93031FE041EA8C1C036803EB0C0415
:104BE00094F8D047240744BF4EF6632010BD03EB72
:104BF000CC134FF4803443F804E0137B092B28D303
:104C0000182B23D803F57E73082404EB930320E0CC
:104C10000B2404EB131304684FEA037E04EBCC145B
:104C200046F2044344F803E00468136904EBCC142F
:104C300003F0070E46F2084344F803E0036846F227
:104C40000C4403EBCC1303EB040E1DE00B2404EB2C
:104C5000131304681B0704EBCC1E0424C0F20104E8
:104C60004EF804300368146903EBCC1E082304F0EB
:104C70000704C0F201034EF80340036803EBCC13B2
:104C800003F5803303F10C0E137B3BB1143200BFEC
:104C900012F8014B013B0EF8014BF9D100682729AE
:104CA00005D900EB8C00FF21C0F8401203E06044FE
:104CB000012180F8D012002010BD06207047014667
:104CC000406846F20032C4F2000252F8203023F06D
:104CD000807342F8203040F20002C2F2000200234A
:104CE00042F8203000200B607047416846F20032E5
:104CF000C4F2000252F8210020F08073002042F834
:104D000021307047416846F20032C4F2000252F886
:104D1000210040F08073002042F821307047406845
:104D200040F20002C2F2000252F820000022C1E963
:104D30000022C278402A05D24FF480328A60C089AE
:104D4000C8600FE04FF480728A60C289D2B2CA6034
:104D5000C27802F0C002802A04D14FF480320A6087
:104D60008089486000207047F0B581B042F28C72B3
:104D7000C2F20002137840F200060D460446C2F269
:104D80000006D3B9012744F200011770EFF3108039
:104D900087F31088C4F208010A6822F480020A60CE
:104DA000096880F3108830466421FBF77BFA45F2EE
:104DB0000C40C4F200008660077068680068002834
:104DC00004D456F8201019B108200DE00B200BE098
:104DD0002968606011B1204601F0C6FE44F200303F
:104DE000C4F254402060002001B0F0BDB0B50446CC
:104DF000406846F20035C4F2000555F8202022F044
:104E0000807245F82020606845F20E4240F4004070
:104E1000C4F2000213889842FCD0204601F0A4FEA0
:104E2000616855F8210040F08072002045F821208B
:104E3000B0BD06207047000010B582B0019100920D
:104E4000416840F2000246F2003CC2F20002C4F2A5
:104E5000000C52F821E05CF8212022F080724CF81E
:104E60002120426845F20E41C4F2000142F40042A2
:104E70000C88A242FCD008228A70019A12B1019AD1
:104E8000CEF80420009A12B1009ACEF808209EF8BD
:104E9000032002F0C004802C02D1AEF80C3003E0F5
:104EA0003F2A98BFAEF80E3018228A7041685CF82D
:104EB000210040F0807200204CF8212002B010BD8B
:104EC000062070470620704780B545F25422C5F28F
:104ED0004F020260084601F069FE002080BD00001C
:104EE0002DE9F04381B00A780D460121914011F07F
:104EF000060F044605D0286CC0680078000700F152
:104F0000C28048F20000C4F2110040EA02200022F0
:104F1000206240F2F930084018BF0120E56100012D
:104F20002070D5E90E01A2626062A078E16220F0F3
:104F30000300411CA170696811B940F00200A07023
:104F4000EE6A4EF2001806F01F014FF0010CCEF28F
:104F500000080CFA01F308F18001770995F8282080
:104F600041F82730BFF34F8F46F20039C4F20009F1
:104F7000BFF36F8F59F82630170123F4803349F8B7
:104F8000263008F5407259F8263097556F6942F27D
:104F9000181E07F01F00C2F2000E0CFA00F07B0989
:104FA0004EF826402E7C41F82300BFF34F8FBFF30D
:104FB0006F8F59F82700330120F4803049F827001B
:104FC00059F82700D355E8694EF8274000F01F062E
:104FD0000CFA06F647092B7E41F82760BFF34F8F86
:104FE000BFF36F8F59F820601B0126F4803649F813
:104FF000206059F8206013544EF82040686A95F8F4
:10500000203000F01F060CFA06F7460941F826701A
:10501000BFF34F8FBFF36F8F59F820101B0121F49E
:10502000803149F8201059F8201013544EF82040D0
:10503000286B78B1406802684FF4002042F8040BF6
:10504000206A296B431D204601F030FE06460028E9
:1050500040F01C81686BC0B1406802684FF000608E
:1050600042F8080B206A696BC31C204601F01EFE43
:1050700058B10646286B002800F008818168006856
:10508000096A884702E1032600E10120EFF310815D
:1050900080F3108844F204072A78C4F208074FF01E
:1050A00000433E6823FA02F226EA02023A603A68B6
:1050B00081F310880022216A8A70216A0A71216AAC
:1050C0004A72216A8A72216ACA72216A4A832978DD
:1050D000884040F2F931084202D0206A4021C17470
:1050E000206A062101772078C8B1E269116B002996
:1050F0004FF0010105D1126C431E12691A4062F390
:105100000B21013800F00F0041EA0030216A40F025
:1051100006028A82216A00BF8A8A9042FCD1D5E9C0
:105120000112E8684FEAC00040EA021029B10329E1
:1051300008BF40F04000F22100E0E221226A00278F
:105140001070206A02228171286C816902EA410292
:105150000829216A08BF0A224A73236AD0E901128A
:105160001F720368C90123F00103C9B2022B62F365
:1051700045110AD1226AFF23537000680228206A71
:1051800008BF41F01001C17117E0226AD171C068F7
:10519000216A82784A7042780B7802F0030203F0A9
:1051A000FC031A440A70C2788A74CA79007802F043
:1051B000A30200F05C001044C8710026E169C4E954
:1051C0000366C4E90566286C4F69017859F8272001
:1051D00007F01F0322F4803249F8272059F82720CE
:1051E000012202FA03F508F5C0737F09BFF35F8F50
:1051F00043F8275048F82750E769FF6A59F82750C5
:1052000025F4803549F8275059F8275007F01F0535
:1052100002FA05F57F09BFF35F8F43F8275048F87E
:105220002750E769FF6959F8275025F4803549F878
:10523000275059F8275007F01F0502FA05F57F0996
:10524000BFF35F8F43F8275048F82750E7697F6A1C
:1052500059F8275025F4803549F8275059F8275038
:1052600007F01F05AA407F09BFF35F8F43F827208F
:1052700048F827201C22236A62F39F019970406935
:1052800044F65511C5F24331C4E90110304601B06E
:10529000BDE8F08370B50446C0691546006B0E4644
:1052A00078B1A178826801F00301013925FA01F192
:1052B0000068D2F808C08BB200213246E04700B146
:1052C00070BD0020C4E9056570BD70B50446006A74
:1052D0000E46837803F07B038370207808B1314653
:1052E00004E0A07800F00300121A3118E069C4E964
:1052F0000312406B88B182B1A3784FF0000C03F029
:105300000303013BDA40836800689D6893B2002282
:10531000C4F810C0A84700B170BD206A817841F080
:1053200080018170207868B9A07800F0030002281D
:1053300005D13088216A40F47E40C88102E030788F
:10534000216AC870002070BD00F092F800F0D9FE0C
:10535000FEE700001EF0040F0CBFEFF30880EFF330
:1053600009800149084700006577000080B582B0D8
:1053700007288DED010A0CD841F22C62C2F200021E
:10538000136833B141EAC01101AA18460423FBF7A0
:1053900083FC02B080BD80B582B0072801920CD892
:1053A00041F22C62C2F20002136833B141EAC0112B
:1053B00001AA18460423FBF76FFC02B080BDB0B50C
:1053C0000546007A002460B1A879AA8855F82030F3
:1053D00008461946FAF74DFF287AAC7101380124C6
:1053E00028722046B0BD000070B50E46FEF7B0FF33
:1053F000054601201021FAF782FF044686803046D8
:1054000004F076FA206055F8240F28B10146C068F0
:105410000028FBD101F10C0520462C6070BD10B5B1
:105420001020EFF3118480F3118803F079F830B184
:105430004EF60450CEF200004FF08051016084F32C
:10544000118810BD4EF22000C4F20100817900687D
:1054500041F2E052C2F20002C0F3026052F82110A1
:1054600021FA00F041F25061C2F200010860704779
:1054700010B54EF60850CEF200004FF47001C0F89F
:10548000801040F20001C0F2000101600020002401
:10549000FFF7BEF900F084F90120FFF7B9F941F2F6
:1054A000E010C2F2000080F30A88002000F032F819
:1054B000FFF7C8FFFFF7DCF80320FFF716F940F607
:1054C0001050C4F208004FF6FF7100BF20F814100E
:1054D00001340C2CFAD10320FFF72EF90320FFF73B
:1054E00004F90420C4F20E000021016041608160D3
:1054F000C1600320FFF720F90220FFF789F901209E
:1055000000F008F800F02CFA0020BDE8104000F090
:1055100025BA0000F0B581B04AF2C005C0F200051E
:105520002E68044676B16868071D00BF787984420A
:1055300004D157E90101091AFAF7B4FE013E07F157
:105540000C07F3D1AE6886B1E86800F1080500BF2A
:105550006879844205D155E902022968121AFAF7DE
:1055600088FE013E05F11005F2D101B0F0BD00004A
:10557000B0B542F2C021C2F20001097881B10446FF
:10558000006842F6AC72C2F2000200BF1568D5F89E
:1055900008311B78984204D0013902F10402F5D198
:1055A000B0BD60680F2806DD102818BF2028F7D08E
:1055B0004028F5D010E0012802D00828F0D00BE0F8
:1055C000D5F80C0100B18047D5F8040195F8002109
:1055D0002946FFF75FFE6068022819D00428DFD152
:1055E000A068B5F81213B5F8142301316FF35F21E9
:1055F000914204D0B5F812232A4482F81101A5F88B
:105600001213D5F80C010028CAD0BDE8B0400047FD
:10561000002085F81001B0BDF0B581B042F2C0267F
:10562000C2F200063778032F20D8054601204FF438
:105630004671FAF764FE2A1D044607CAC4F80C2115
:105640007A1C2B78327042F6AC72C2F20002C4E9C6
:10565000410184F8003142F82740FFF741FC48B18E
:10566000204603F0C1F9307801383070002420461C
:1056700001B0F0BDD4F8040194F800212146FFF7F1
:1056800009FEF4E77047000080B588B0CDE9050158
:1056900041F60960C0F200001B22079004A88DF8B3
:1056A0001020FFF7B9FF0EA2D2E9012142F2BC237C
:1056B000DFF82CC0C2F20003186001A8CDE901C2D6
:1056C0000391FBF706FF42F29412014642F2A0203A
:1056D000C2F20002C2F20000116008B080BD00BF3B
:1056E00032000000ED1D00000000000042F2BC226C
:1056F000C2F20002136823B10A46014693F8100172
:1057000000B17047012083F81001D3F80401FFF7BE
:10571000DCBD000041F6E421C2F2000191ED180A5F
:105720009FED1B1A43F2984091ED252A30EE010AB5
:105730009FED181A5A22C2F20000027010EE102AD1
:1057400032EE010ACB6AC0F8052010EE102AC0F82C
:105750000130D1F8C830C0F80920D1F8FC20C0F8D9
:105760000D30D1F83031C0F811204022C0F815308A
:105770008B5C2BB13432B2F5BC7FF9D1012100E052
:10578000002141764FF6FB721C214283FFF7AEBF2A
:10579000000096C20000B4C200BE00BFFEE70000D9
:1057A0002DE9F0414EF2FE34C4F201044AF20350F6
:1057B0004CF200162080C4F201060120B08000BF28
:1057C000B0880028FCD147F200010120C4F200019A
:1057D00030808860086041F2E05742F6005041F2A4
:1057E0000022C2F20007C0F23110C0F27A02C7E90B
:1057F000000243F200604FF40041C0F26E10C7E9AE
:1058000002104CF20020396141F60041C0F6EB3045
:10581000C0F64E614EF220057861C4F20105B9610F
:10582000A879296857F82000C1F3026141F2506855
:10583000C840C2F20008C8F80000002060750920C6
:1058400085F8820094F8820020B994F883008007DC
:1058500000F07F8094F8820050B9012084F8820023
:10586000C8200121FEF791FF94F882000128FBD1A6
:10587000002084F8830084F882000020A87400BF10
:10588000287F0007FCD542F201702885002043F2F2
:10589000021185F82A002981A87200BF287F80069E
:1058A000FCD50320307741F22120C2F201002860AC
:1058B0000520A871A879296857F82000C1F3026172
:1058C000F022C840C8F8000042F20800C4F200000C
:1058D000F1210171012101700271297485F83210E2
:1058E00095F8540040F0400085F8540095F95400B4
:1058F000B0F1FF3FFADC0620462185F84C0085F820
:10590000541085F8540000BF95F954000028FBD4CA
:1059100095F8560040F0400085F8560095F956007D
:10592000B0F1FF3FFADC032085F84E00C62085F871
:10593000560095F8560000F0BF0085F8560000BFED
:1059400095F956000028FBD44FF425402080BDE88F
:10595000F0814FF47A70FEF75AFF8EE7704700002F
:1059600070B584B048F248060320C4F20006FEF782
:10597000BCFE6FF0FF004AF2D80430604FF0FF30F9
:105980000021C0F200040122CDE9020054F82130C8
:1059900002FA01F5002B18BFA84301311929F5D1EE
:1059A0004EF280320190002001A9CEF2000200BF29
:1059B00051F8203006EB8005AB6242F82030013010
:1059C0000328F5D10320FEF7B7FE46F20031002090
:1059D000C4F2000154F820200AB141F8202001301F
:1059E000192804BF04B070BDF4E701380028FCD1C9
:1059F000704700002DE9F04F81B004460088002870
:105A00005AD043F240084EF2BB4B0025C4F20808BE
:105A10000FF2AC0AC4F2010B4FF00109002700BFDE
:105A200060685AF8272000EBC500416891423CD1DC
:105A300000689BF8001000F0B85009FA07F6B0F1C2
:105A4000807F06EA010015D150B90120FEF74DFE16
:105A50009BF8000030438BF800000120FEF76CFE3D
:105A600018F91700002820D418F8170040F080001B
:105A700015E000BF50B10120FEF737FE9BF8000093
:105A8000B0438BF800000120FEF756FE18F917000E
:105A9000B0F1FF3F09DC18F8170000F07F0008F8AC
:105AA0001700C8200121FEF770FE0137032FB7D180
:105AB000208801358542B1D301B0BDE8F08F00BF29
:105AC0000204000003040000040400002DE9F04774
